{
  "_format": "hh-sol-artifact-1",
  "contractName": "DappNotes",
  "sourceName": "contracts/DappNotes.sol",
  "abi": [
    {
      "inputs": [],
      "stateMutability": "nonpayable",
      "type": "constructor"
    },
    {
      "anonymous": false,
      "inputs": [
        {
          "indexed": true,
          "internalType": "address",
          "name": "owner",
          "type": "address"
        },
        {
          "indexed": true,
          "internalType": "address",
          "name": "approved",
          "type": "address"
        },
        {
          "indexed": true,
          "internalType": "uint256",
          "name": "tokenId",
          "type": "uint256"
        }
      ],
      "name": "Approval",
      "type": "event"
    },
    {
      "anonymous": false,
      "inputs": [
        {
          "indexed": true,
          "internalType": "address",
          "name": "owner",
          "type": "address"
        },
        {
          "indexed": true,
          "internalType": "address",
          "name": "operator",
          "type": "address"
        },
        {
          "indexed": false,
          "internalType": "bool",
          "name": "approved",
          "type": "bool"
        }
      ],
      "name": "ApprovalForAll",
      "type": "event"
    },
    {
      "anonymous": false,
      "inputs": [
        {
          "indexed": true,
          "internalType": "address",
          "name": "previousOwner",
          "type": "address"
        },
        {
          "indexed": true,
          "internalType": "address",
          "name": "newOwner",
          "type": "address"
        }
      ],
      "name": "OwnershipTransferred",
      "type": "event"
    },
    {
      "anonymous": false,
      "inputs": [
        {
          "indexed": true,
          "internalType": "address",
          "name": "from",
          "type": "address"
        },
        {
          "indexed": true,
          "internalType": "address",
          "name": "to",
          "type": "address"
        },
        {
          "indexed": true,
          "internalType": "uint256",
          "name": "tokenId",
          "type": "uint256"
        }
      ],
      "name": "Transfer",
      "type": "event"
    },
    {
      "inputs": [
        {
          "internalType": "address",
          "name": "to",
          "type": "address"
        },
        {
          "internalType": "uint256",
          "name": "tokenId",
          "type": "uint256"
        }
      ],
      "name": "approve",
      "outputs": [],
      "stateMutability": "nonpayable",
      "type": "function"
    },
    {
      "inputs": [
        {
          "internalType": "address",
          "name": "owner",
          "type": "address"
        }
      ],
      "name": "balanceOf",
      "outputs": [
        {
          "internalType": "uint256",
          "name": "",
          "type": "uint256"
        }
      ],
      "stateMutability": "view",
      "type": "function"
    },
    {
      "inputs": [
        {
          "internalType": "string",
          "name": "",
          "type": "string"
        }
      ],
      "name": "existingURIs",
      "outputs": [
        {
          "internalType": "uint8",
          "name": "",
          "type": "uint8"
        }
      ],
      "stateMutability": "view",
      "type": "function"
    },
    {
      "inputs": [
        {
          "internalType": "uint256",
          "name": "tokenId",
          "type": "uint256"
        }
      ],
      "name": "getApproved",
      "outputs": [
        {
          "internalType": "address",
          "name": "",
          "type": "address"
        }
      ],
      "stateMutability": "view",
      "type": "function"
    },
    {
      "inputs": [
        {
          "internalType": "string",
          "name": "key",
          "type": "string"
        }
      ],
      "name": "getContentByKey",
      "outputs": [
        {
          "internalType": "string",
          "name": "",
          "type": "string"
        }
      ],
      "stateMutability": "view",
      "type": "function"
    },
    {
      "inputs": [
        {
          "internalType": "address",
          "name": "owner",
          "type": "address"
        },
        {
          "internalType": "address",
          "name": "operator",
          "type": "address"
        }
      ],
      "name": "isApprovedForAll",
      "outputs": [
        {
          "internalType": "bool",
          "name": "",
          "type": "bool"
        }
      ],
      "stateMutability": "view",
      "type": "function"
    },
    {
      "inputs": [
        {
          "internalType": "string",
          "name": "uri",
          "type": "string"
        }
      ],
      "name": "isContentOwned",
      "outputs": [
        {
          "internalType": "bool",
          "name": "",
          "type": "bool"
        }
      ],
      "stateMutability": "view",
      "type": "function"
    },
    {
      "inputs": [],
      "name": "name",
      "outputs": [
        {
          "internalType": "string",
          "name": "",
          "type": "string"
        }
      ],
      "stateMutability": "view",
      "type": "function"
    },
    {
      "inputs": [],
      "name": "owner",
      "outputs": [
        {
          "internalType": "address",
          "name": "",
          "type": "address"
        }
      ],
      "stateMutability": "view",
      "type": "function"
    },
    {
      "inputs": [
        {
          "internalType": "uint256",
          "name": "tokenId",
          "type": "uint256"
        }
      ],
      "name": "ownerOf",
      "outputs": [
        {
          "internalType": "address",
          "name": "",
          "type": "address"
        }
      ],
      "stateMutability": "view",
      "type": "function"
    },
    {
      "inputs": [
        {
          "internalType": "address",
          "name": "recipient",
          "type": "address"
        },
        {
          "internalType": "string",
          "name": "metadataURI",
          "type": "string"
        }
      ],
      "name": "payToMint",
      "outputs": [
        {
          "internalType": "uint256",
          "name": "",
          "type": "uint256"
        }
      ],
      "stateMutability": "payable",
      "type": "function"
    },
    {
      "inputs": [],
      "name": "renounceOwnership",
      "outputs": [],
      "stateMutability": "nonpayable",
      "type": "function"
    },
    {
      "inputs": [
        {
          "internalType": "address",
          "name": "to",
          "type": "address"
        },
        {
          "internalType": "string",
          "name": "uri",
          "type": "string"
        }
      ],
      "name": "safeMint",
      "outputs": [],
      "stateMutability": "nonpayable",
      "type": "function"
    },
    {
      "inputs": [
        {
          "internalType": "address",
          "name": "from",
          "type": "address"
        },
        {
          "internalType": "address",
          "name": "to",
          "type": "address"
        },
        {
          "internalType": "uint256",
          "name": "tokenId",
          "type": "uint256"
        }
      ],
      "name": "safeTransferFrom",
      "outputs": [],
      "stateMutability": "nonpayable",
      "type": "function"
    },
    {
      "inputs": [
        {
          "internalType": "address",
          "name": "from",
          "type": "address"
        },
        {
          "internalType": "address",
          "name": "to",
          "type": "address"
        },
        {
          "internalType": "uint256",
          "name": "tokenId",
          "type": "uint256"
        },
        {
          "internalType": "bytes",
          "name": "_data",
          "type": "bytes"
        }
      ],
      "name": "safeTransferFrom",
      "outputs": [],
      "stateMutability": "nonpayable",
      "type": "function"
    },
    {
      "inputs": [
        {
          "internalType": "address",
          "name": "operator",
          "type": "address"
        },
        {
          "internalType": "bool",
          "name": "approved",
          "type": "bool"
        }
      ],
      "name": "setApprovalForAll",
      "outputs": [],
      "stateMutability": "nonpayable",
      "type": "function"
    },
    {
      "inputs": [
        {
          "internalType": "string",
          "name": "",
          "type": "string"
        }
      ],
      "name": "storedNotes",
      "outputs": [
        {
          "internalType": "string",
          "name": "",
          "type": "string"
        }
      ],
      "stateMutability": "view",
      "type": "function"
    },
    {
      "inputs": [
        {
          "internalType": "bytes4",
          "name": "interfaceId",
          "type": "bytes4"
        }
      ],
      "name": "supportsInterface",
      "outputs": [
        {
          "internalType": "bool",
          "name": "",
          "type": "bool"
        }
      ],
      "stateMutability": "view",
      "type": "function"
    },
    {
      "inputs": [],
      "name": "symbol",
      "outputs": [
        {
          "internalType": "string",
          "name": "",
          "type": "string"
        }
      ],
      "stateMutability": "view",
      "type": "function"
    },
    {
      "inputs": [
        {
          "internalType": "uint256",
          "name": "tokenId",
          "type": "uint256"
        }
      ],
      "name": "tokenURI",
      "outputs": [
        {
          "internalType": "string",
          "name": "",
          "type": "string"
        }
      ],
      "stateMutability": "view",
      "type": "function"
    },
    {
      "inputs": [
        {
          "internalType": "address",
          "name": "from",
          "type": "address"
        },
        {
          "internalType": "address",
          "name": "to",
          "type": "address"
        },
        {
          "internalType": "uint256",
          "name": "tokenId",
          "type": "uint256"
        }
      ],
      "name": "transferFrom",
      "outputs": [],
      "stateMutability": "nonpayable",
      "type": "function"
    },
    {
      "inputs": [
        {
          "internalType": "address",
          "name": "newOwner",
          "type": "address"
        }
      ],
      "name": "transferOwnership",
      "outputs": [],
      "stateMutability": "nonpayable",
      "type": "function"
    }
  ],
  "bytecode": "0x60806040523480156200001157600080fd5b506040518060400160405280600981526020017f446170704e6f74657300000000000000000000000000000000000000000000008152506040518060400160405280600381526020017f4441500000000000000000000000000000000000000000000000000000000000815250816000908051906020019062000096929190620001a6565b508060019080519060200190620000af929190620001a6565b505050620000d2620000c6620000d860201b60201c565b620000e060201b60201c565b620002bb565b600033905090565b6000600760009054906101000a900473ffffffffffffffffffffffffffffffffffffffff16905081600760006101000a81548173ffffffffffffffffffffffffffffffffffffffff021916908373ffffffffffffffffffffffffffffffffffffffff1602179055508173ffffffffffffffffffffffffffffffffffffffff168173ffffffffffffffffffffffffffffffffffffffff167f8be0079c531659141344cd1fd0a4f28419497f9722a3daafe3b4186f6b6457e060405160405180910390a35050565b828054620001b49062000256565b90600052602060002090601f016020900481019282620001d8576000855562000224565b82601f10620001f357805160ff191683800117855562000224565b8280016001018555821562000224579182015b828111156200022357825182559160200191906001019062000206565b5b50905062000233919062000237565b5090565b5b808211156200025257600081600090555060010162000238565b5090565b600060028204905060018216806200026f57607f821691505b602082108114156200028657620002856200028c565b5b50919050565b7f4e487b7100000000000000000000000000000000000000000000000000000000600052602260045260246000fd5b61391180620002cb6000396000f3fe6080604052600436106101355760003560e01c80638da5cb5b116100ab578063c87b56dd1161006f578063c87b56dd1461043d578063d204c45e1461047a578063e985e9c5146104a3578063ec6cafcb146104e0578063f2fde38b1461051d578063f37971df1461054657610135565b80638da5cb5b1461035857806395d89b41146103835780639f1cabc6146103ae578063a22cb465146103eb578063b88d4fde1461041457610135565b80633b410ffe116100fd5780633b410ffe1461023157806342842e0e1461026e578063615fd9e2146102975780636352211e146102c757806370a0823114610304578063715018a61461034157610135565b806301ffc9a71461013a57806306fdde0314610177578063081812fc146101a2578063095ea7b3146101df57806323b872dd14610208575b600080fd5b34801561014657600080fd5b50610161600480360381019061015c9190612759565b610583565b60405161016e9190612c52565b60405180910390f35b34801561018357600080fd5b5061018c610665565b6040516101999190612c6d565b60405180910390f35b3480156101ae57600080fd5b506101c960048036038101906101c491906127ec565b6106f7565b6040516101d69190612beb565b60405180910390f35b3480156101eb57600080fd5b506102066004803603810190610201919061271d565b61077c565b005b34801561021457600080fd5b5061022f600480360381019061022a91906125c3565b610894565b005b34801561023d57600080fd5b50610258600480360381019061025391906127ab565b6108f4565b6040516102659190612c6d565b60405180910390f35b34801561027a57600080fd5b50610295600480360381019061029091906125c3565b6109aa565b005b6102b160048036038101906102ac91906126c9565b6109ca565b6040516102be9190612f0f565b60405180910390f35b3480156102d357600080fd5b506102ee60048036038101906102e991906127ec565b610b29565b6040516102fb9190612beb565b60405180910390f35b34801561031057600080fd5b5061032b6004803603810190610326919061255e565b610bdb565b6040516103389190612f0f565b60405180910390f35b34801561034d57600080fd5b50610356610c93565b005b34801561036457600080fd5b5061036d610d1b565b60405161037a9190612beb565b60405180910390f35b34801561038f57600080fd5b50610398610d45565b6040516103a59190612c6d565b60405180910390f35b3480156103ba57600080fd5b506103d560048036038101906103d091906127ab565b610dd7565b6040516103e29190612c52565b60405180910390f35b3480156103f757600080fd5b50610412600480360381019061040d919061268d565b610e12565b005b34801561042057600080fd5b5061043b60048036038101906104369190612612565b610e28565b005b34801561044957600080fd5b50610464600480360381019061045f91906127ec565b610e8a565b6040516104719190612c6d565b60405180910390f35b34801561048657600080fd5b506104a1600480360381019061049c91906126c9565b610e9c565b005b3480156104af57600080fd5b506104ca60048036038101906104c59190612587565b610f49565b6040516104d79190612c52565b60405180910390f35b3480156104ec57600080fd5b50610507600480360381019061050291906127ab565b610fdd565b6040516105149190612c6d565b60405180910390f35b34801561052957600080fd5b50610544600480360381019061053f919061255e565b6111c1565b005b34801561055257600080fd5b5061056d600480360381019061056891906127ab565b6112b9565b60405161057a9190612f2a565b60405180910390f35b60007f80ac58cd000000000000000000000000000000000000000000000000000000007bffffffffffffffffffffffffffffffffffffffffffffffffffffffff1916827bffffffffffffffffffffffffffffffffffffffffffffffffffffffff1916148061064e57507f5b5e139f000000000000000000000000000000000000000000000000000000007bffffffffffffffffffffffffffffffffffffffffffffffffffffffff1916827bffffffffffffffffffffffffffffffffffffffffffffffffffffffff1916145b8061065e575061065d826112ef565b5b9050919050565b6060600080546106749061318d565b80601f01602080910402602001604051908101604052809291908181526020018280546106a09061318d565b80156106ed5780601f106106c2576101008083540402835291602001916106ed565b820191906000526020600020905b8154815290600101906020018083116106d057829003601f168201915b5050505050905090565b600061070282611359565b610741576040517f08c379a000000000000000000000000000000000000000000000000000000000815260040161073890612e0f565b60405180910390fd5b6004600083815260200190815260200160002060009054906101000a900473ffffffffffffffffffffffffffffffffffffffff169050919050565b600061078782610b29565b90508073ffffffffffffffffffffffffffffffffffffffff168373ffffffffffffffffffffffffffffffffffffffff1614156107f8576040517f08c379a00000000000000000000000000000000000000000000000000000000081526004016107ef90612eaf565b60405180910390fd5b8073ffffffffffffffffffffffffffffffffffffffff166108176113c5565b73ffffffffffffffffffffffffffffffffffffffff1614806108465750610845816108406113c5565b610f49565b5b610885576040517f08c379a000000000000000000000000000000000000000000000000000000000815260040161087c90612d4f565b60405180910390fd5b61088f83836113cd565b505050565b6108a561089f6113c5565b82611486565b6108e4576040517f08c379a00000000000000000000000000000000000000000000000000000000081526004016108db90612ecf565b60405180910390fd5b6108ef838383611564565b505050565b600a8180516020810182018051848252602083016020850120818352809550505050505060009150905080546109299061318d565b80601f01602080910402602001604051908101604052809291908181526020018280546109559061318d565b80156109a25780601f10610977576101008083540402835291602001916109a2565b820191906000526020600020905b81548152906001019060200180831161098557829003601f168201915b505050505081565b6109c583838360405180602001604052806000815250610e28565b505050565b600060016009836040516109de9190612bb0565b908152602001604051809103902060009054906101000a900460ff1660ff161415610a3e576040517f08c379a0000000000000000000000000000000000000000000000000000000008152600401610a3590612e4f565b60405180910390fd5b66b1a2bc2ec50000341015610a88576040517f08c379a0000000000000000000000000000000000000000000000000000000008152600401610a7f90612eef565b60405180910390fd5b6000610a9460086117c0565b9050610aa060086117ce565b6001600984604051610ab29190612bb0565b908152602001604051809103902060006101000a81548160ff021916908360ff16021790555082600a84604051610ae99190612bb0565b90815260200160405180910390209080519060200190610b0a929190612382565b50610b1584826117e4565b610b1f81846119b2565b8091505092915050565b6000806002600084815260200190815260200160002060009054906101000a900473ffffffffffffffffffffffffffffffffffffffff169050600073ffffffffffffffffffffffffffffffffffffffff168173ffffffffffffffffffffffffffffffffffffffff161415610bd2576040517f08c379a0000000000000000000000000000000000000000000000000000000008152600401610bc990612d8f565b60405180910390fd5b80915050919050565b60008073ffffffffffffffffffffffffffffffffffffffff168273ffffffffffffffffffffffffffffffffffffffff161415610c4c576040517f08c379a0000000000000000000000000000000000000000000000000000000008152600401610c4390612d6f565b60405180910390fd5b600360008373ffffffffffffffffffffffffffffffffffffffff1673ffffffffffffffffffffffffffffffffffffffff168152602001908152602001600020549050919050565b610c9b6113c5565b73ffffffffffffffffffffffffffffffffffffffff16610cb9610d1b565b73ffffffffffffffffffffffffffffffffffffffff1614610d0f576040517f08c379a0000000000000000000000000000000000000000000000000000000008152600401610d0690612e2f565b60405180910390fd5b610d196000611a26565b565b6000600760009054906101000a900473ffffffffffffffffffffffffffffffffffffffff16905090565b606060018054610d549061318d565b80601f0160208091040260200160405190810160405280929190818152602001828054610d809061318d565b8015610dcd5780601f10610da257610100808354040283529160200191610dcd565b820191906000526020600020905b815481529060010190602001808311610db057829003601f168201915b5050505050905090565b60006001600983604051610deb9190612bb0565b908152602001604051809103902060009054906101000a900460ff1660ff16149050919050565b610e24610e1d6113c5565b8383611aec565b5050565b610e39610e336113c5565b83611486565b610e78576040517f08c379a0000000000000000000000000000000000000000000000000000000008152600401610e6f90612ecf565b60405180910390fd5b610e8484848484611c59565b50505050565b6060610e9582611cb5565b9050919050565b610ea46113c5565b73ffffffffffffffffffffffffffffffffffffffff16610ec2610d1b565b73ffffffffffffffffffffffffffffffffffffffff1614610f18576040517f08c379a0000000000000000000000000000000000000000000000000000000008152600401610f0f90612e2f565b60405180910390fd5b6000610f2460086117c0565b9050610f3060086117ce565b610f3a8382611e07565b610f4481836119b2565b505050565b6000600560008473ffffffffffffffffffffffffffffffffffffffff1673ffffffffffffffffffffffffffffffffffffffff16815260200190815260200160002060008373ffffffffffffffffffffffffffffffffffffffff1673ffffffffffffffffffffffffffffffffffffffff16815260200190815260200160002060009054906101000a900460ff16905092915050565b606061101d6040518060400160405280600f81526020017f676574436f6e74656e7442794b65790000000000000000000000000000000000815250611e25565b61102682611e25565b6110d5600a836040516110399190612bb0565b908152602001604051809103902080546110529061318d565b80601f016020809104026020016040519081016040528092919081815260200182805461107e9061318d565b80156110cb5780601f106110a0576101008083540402835291602001916110cb565b820191906000526020600020905b8154815290600101906020018083116110ae57829003601f168201915b5050505050611e25565b6111136040518060400160405280600f81526020017f676574436f6e74656e7442794b65790000000000000000000000000000000000815250611e25565b600a826040516111239190612bb0565b9081526020016040518091039020805461113c9061318d565b80601f01602080910402602001604051908101604052809291908181526020018280546111689061318d565b80156111b55780601f1061118a576101008083540402835291602001916111b5565b820191906000526020600020905b81548152906001019060200180831161119857829003601f168201915b50505050509050919050565b6111c96113c5565b73ffffffffffffffffffffffffffffffffffffffff166111e7610d1b565b73ffffffffffffffffffffffffffffffffffffffff161461123d576040517f08c379a000000000000000000000000000000000000000000000000000000000815260040161123490612e2f565b60405180910390fd5b600073ffffffffffffffffffffffffffffffffffffffff168173ffffffffffffffffffffffffffffffffffffffff1614156112ad576040517f08c379a00000000000000000000000000000000000000000000000000000000081526004016112a490612caf565b60405180910390fd5b6112b681611a26565b50565b6009818051602081018201805184825260208301602085012081835280955050505050506000915054906101000a900460ff1681565b60007f01ffc9a7000000000000000000000000000000000000000000000000000000007bffffffffffffffffffffffffffffffffffffffffffffffffffffffff1916827bffffffffffffffffffffffffffffffffffffffffffffffffffffffff1916149050919050565b60008073ffffffffffffffffffffffffffffffffffffffff166002600084815260200190815260200160002060009054906101000a900473ffffffffffffffffffffffffffffffffffffffff1673ffffffffffffffffffffffffffffffffffffffff1614159050919050565b600033905090565b816004600083815260200190815260200160002060006101000a81548173ffffffffffffffffffffffffffffffffffffffff021916908373ffffffffffffffffffffffffffffffffffffffff160217905550808273ffffffffffffffffffffffffffffffffffffffff1661144083610b29565b73ffffffffffffffffffffffffffffffffffffffff167f8c5be1e5ebec7d5bd14f71427d1e84f3dd0314c0f7b2291e5b200ac8c7c3b92560405160405180910390a45050565b600061149182611359565b6114d0576040517f08c379a00000000000000000000000000000000000000000000000000000000081526004016114c790612d2f565b60405180910390fd5b60006114db83610b29565b90508073ffffffffffffffffffffffffffffffffffffffff168473ffffffffffffffffffffffffffffffffffffffff16148061154a57508373ffffffffffffffffffffffffffffffffffffffff16611532846106f7565b73ffffffffffffffffffffffffffffffffffffffff16145b8061155b575061155a8185610f49565b5b91505092915050565b8273ffffffffffffffffffffffffffffffffffffffff1661158482610b29565b73ffffffffffffffffffffffffffffffffffffffff16146115da576040517f08c379a00000000000000000000000000000000000000000000000000000000081526004016115d190612e6f565b60405180910390fd5b600073ffffffffffffffffffffffffffffffffffffffff168273ffffffffffffffffffffffffffffffffffffffff16141561164a576040517f08c379a000000000000000000000000000000000000000000000000000000000815260040161164190612cef565b60405180910390fd5b611655838383611ebe565b6116606000826113cd565b6001600360008573ffffffffffffffffffffffffffffffffffffffff1673ffffffffffffffffffffffffffffffffffffffff16815260200190815260200160002060008282546116b09190613096565b925050819055506001600360008473ffffffffffffffffffffffffffffffffffffffff1673ffffffffffffffffffffffffffffffffffffffff1681526020019081526020016000206000828254611707919061300f565b92505081905550816002600083815260200190815260200160002060006101000a81548173ffffffffffffffffffffffffffffffffffffffff021916908373ffffffffffffffffffffffffffffffffffffffff160217905550808273ffffffffffffffffffffffffffffffffffffffff168473ffffffffffffffffffffffffffffffffffffffff167fddf252ad1be2c89b69c2b068fc378daa952ba7f163c4a11628f55a4df523b3ef60405160405180910390a4505050565b600081600001549050919050565b6001816000016000828254019250508190555050565b600073ffffffffffffffffffffffffffffffffffffffff168273ffffffffffffffffffffffffffffffffffffffff161415611854576040517f08c379a000000000000000000000000000000000000000000000000000000000815260040161184b90612dcf565b60405180910390fd5b61185d81611359565b1561189d576040517f08c379a000000000000000000000000000000000000000000000000000000000815260040161189490612ccf565b60405180910390fd5b6118a960008383611ebe565b6001600360008473ffffffffffffffffffffffffffffffffffffffff1673ffffffffffffffffffffffffffffffffffffffff16815260200190815260200160002060008282546118f9919061300f565b92505081905550816002600083815260200190815260200160002060006101000a81548173ffffffffffffffffffffffffffffffffffffffff021916908373ffffffffffffffffffffffffffffffffffffffff160217905550808273ffffffffffffffffffffffffffffffffffffffff16600073ffffffffffffffffffffffffffffffffffffffff167fddf252ad1be2c89b69c2b068fc378daa952ba7f163c4a11628f55a4df523b3ef60405160405180910390a45050565b6119bb82611359565b6119fa576040517f08c379a00000000000000000000000000000000000000000000000000000000081526004016119f190612daf565b60405180910390fd5b80600660008481526020019081526020016000209080519060200190611a21929190612382565b505050565b6000600760009054906101000a900473ffffffffffffffffffffffffffffffffffffffff16905081600760006101000a81548173ffffffffffffffffffffffffffffffffffffffff021916908373ffffffffffffffffffffffffffffffffffffffff1602179055508173ffffffffffffffffffffffffffffffffffffffff168173ffffffffffffffffffffffffffffffffffffffff167f8be0079c531659141344cd1fd0a4f28419497f9722a3daafe3b4186f6b6457e060405160405180910390a35050565b8173ffffffffffffffffffffffffffffffffffffffff168373ffffffffffffffffffffffffffffffffffffffff161415611b5b576040517f08c379a0000000000000000000000000000000000000000000000000000000008152600401611b5290612d0f565b60405180910390fd5b80600560008573ffffffffffffffffffffffffffffffffffffffff1673ffffffffffffffffffffffffffffffffffffffff16815260200190815260200160002060008473ffffffffffffffffffffffffffffffffffffffff1673ffffffffffffffffffffffffffffffffffffffff16815260200190815260200160002060006101000a81548160ff0219169083151502179055508173ffffffffffffffffffffffffffffffffffffffff168373ffffffffffffffffffffffffffffffffffffffff167f17307eab39ab6107e8899845ad3d59bd9653f200f220920489ca2b5937696c3183604051611c4c9190612c52565b60405180910390a3505050565b611c64848484611564565b611c7084848484611ec3565b611caf576040517f08c379a0000000000000000000000000000000000000000000000000000000008152600401611ca690612c8f565b60405180910390fd5b50505050565b6060611cc082611359565b611cff576040517f08c379a0000000000000000000000000000000000000000000000000000000008152600401611cf690612def565b60405180910390fd5b6000600660008481526020019081526020016000208054611d1f9061318d565b80601f0160208091040260200160405190810160405280929190818152602001828054611d4b9061318d565b8015611d985780601f10611d6d57610100808354040283529160200191611d98565b820191906000526020600020905b815481529060010190602001808311611d7b57829003601f168201915b505050505090506000611da961205a565b9050600081511415611dbf578192505050611e02565b600082511115611df4578082604051602001611ddc929190612bc7565b60405160208183030381529060405292505050611e02565b611dfd84612097565b925050505b919050565b611e2182826040518060200160405280600081525061213e565b5050565b611ebb81604051602401611e399190612c6d565b6040516020818303038152906040527f41304fac000000000000000000000000000000000000000000000000000000007bffffffffffffffffffffffffffffffffffffffffffffffffffffffff19166020820180517bffffffffffffffffffffffffffffffffffffffffffffffffffffffff8381831617835250505050612199565b50565b505050565b6000611ee48473ffffffffffffffffffffffffffffffffffffffff166121c2565b1561204d578373ffffffffffffffffffffffffffffffffffffffff1663150b7a02611f0d6113c5565b8786866040518563ffffffff1660e01b8152600401611f2f9493929190612c06565b602060405180830381600087803b158015611f4957600080fd5b505af1925050508015611f7a57506040513d601f19601f82011682018060405250810190611f779190612782565b60015b611ffd573d8060008114611faa576040519150601f19603f3d011682016040523d82523d6000602084013e611faf565b606091505b50600081511415611ff5576040517f08c379a0000000000000000000000000000000000000000000000000000000008152600401611fec90612c8f565b60405180910390fd5b805181602001fd5b63150b7a0260e01b7bffffffffffffffffffffffffffffffffffffffffffffffffffffffff1916817bffffffffffffffffffffffffffffffffffffffffffffffffffffffff191614915050612052565b600190505b949350505050565b60606040518060400160405280600781526020017f697066733a2f2f00000000000000000000000000000000000000000000000000815250905090565b60606120a282611359565b6120e1576040517f08c379a00000000000000000000000000000000000000000000000000000000081526004016120d890612e8f565b60405180910390fd5b60006120eb61205a565b9050600081511161210b5760405180602001604052806000815250612136565b80612115846121d5565b604051602001612126929190612bc7565b6040516020818303038152906040525b915050919050565b61214883836117e4565b6121556000848484611ec3565b612194576040517f08c379a000000000000000000000000000000000000000000000000000000000815260040161218b90612c8f565b60405180910390fd5b505050565b60008151905060006a636f6e736f6c652e6c6f679050602083016000808483855afa5050505050565b600080823b905060008111915050919050565b6060600082141561221d576040518060400160405280600181526020017f3000000000000000000000000000000000000000000000000000000000000000815250905061237d565b600082905060005b6000821461224f578080612238906131f0565b915050600a826122489190613065565b9150612225565b60008167ffffffffffffffff811115612291577f4e487b7100000000000000000000000000000000000000000000000000000000600052604160045260246000fd5b6040519080825280601f01601f1916602001820160405280156122c35781602001600182028036833780820191505090505b5090505b60008514612376576001826122dc9190613096565b9150600a856122eb9190613239565b60306122f7919061300f565b60f81b818381518110612333577f4e487b7100000000000000000000000000000000000000000000000000000000600052603260045260246000fd5b60200101907effffffffffffffffffffffffffffffffffffffffffffffffffffffffffffff1916908160001a905350600a8561236f9190613065565b94506122c7565b8093505050505b919050565b82805461238e9061318d565b90600052602060002090601f0160209004810192826123b057600085556123f7565b82601f106123c957805160ff19168380011785556123f7565b828001600101855582156123f7579182015b828111156123f65782518255916020019190600101906123db565b5b5090506124049190612408565b5090565b5b80821115612421576000816000905550600101612409565b5090565b600061243861243384612f6a565b612f45565b90508281526020810184848401111561245057600080fd5b61245b84828561314b565b509392505050565b600061247661247184612f9b565b612f45565b90508281526020810184848401111561248e57600080fd5b61249984828561314b565b509392505050565b6000813590506124b08161387f565b92915050565b6000813590506124c581613896565b92915050565b6000813590506124da816138ad565b92915050565b6000815190506124ef816138ad565b92915050565b600082601f83011261250657600080fd5b8135612516848260208601612425565b91505092915050565b600082601f83011261253057600080fd5b8135612540848260208601612463565b91505092915050565b600081359050612558816138c4565b92915050565b60006020828403121561257057600080fd5b600061257e848285016124a1565b91505092915050565b6000806040838503121561259a57600080fd5b60006125a8858286016124a1565b92505060206125b9858286016124a1565b9150509250929050565b6000806000606084860312156125d857600080fd5b60006125e6868287016124a1565b93505060206125f7868287016124a1565b925050604061260886828701612549565b9150509250925092565b6000806000806080858703121561262857600080fd5b6000612636878288016124a1565b9450506020612647878288016124a1565b935050604061265887828801612549565b925050606085013567ffffffffffffffff81111561267557600080fd5b612681878288016124f5565b91505092959194509250565b600080604083850312156126a057600080fd5b60006126ae858286016124a1565b92505060206126bf858286016124b6565b9150509250929050565b600080604083850312156126dc57600080fd5b60006126ea858286016124a1565b925050602083013567ffffffffffffffff81111561270757600080fd5b6127138582860161251f565b9150509250929050565b6000806040838503121561273057600080fd5b600061273e858286016124a1565b925050602061274f85828601612549565b9150509250929050565b60006020828403121561276b57600080fd5b6000612779848285016124cb565b91505092915050565b60006020828403121561279457600080fd5b60006127a2848285016124e0565b91505092915050565b6000602082840312156127bd57600080fd5b600082013567ffffffffffffffff8111156127d757600080fd5b6127e38482850161251f565b91505092915050565b6000602082840312156127fe57600080fd5b600061280c84828501612549565b91505092915050565b61281e816130ca565b82525050565b61282d816130dc565b82525050565b600061283e82612fcc565b6128488185612fe2565b935061285881856020860161315a565b61286181613326565b840191505092915050565b600061287782612fd7565b6128818185612ff3565b935061289181856020860161315a565b61289a81613326565b840191505092915050565b60006128b082612fd7565b6128ba8185613004565b93506128ca81856020860161315a565b80840191505092915050565b60006128e3603283612ff3565b91506128ee82613337565b604082019050919050565b6000612906602683612ff3565b915061291182613386565b604082019050919050565b6000612929601c83612ff3565b9150612934826133d5565b602082019050919050565b600061294c602483612ff3565b9150612957826133fe565b604082019050919050565b600061296f601983612ff3565b915061297a8261344d565b602082019050919050565b6000612992602c83612ff3565b915061299d82613476565b604082019050919050565b60006129b5603883612ff3565b91506129c0826134c5565b604082019050919050565b60006129d8602a83612ff3565b91506129e382613514565b604082019050919050565b60006129fb602983612ff3565b9150612a0682613563565b604082019050919050565b6000612a1e602e83612ff3565b9150612a29826135b2565b604082019050919050565b6000612a41602083612ff3565b9150612a4c82613601565b602082019050919050565b6000612a64603183612ff3565b9150612a6f8261362a565b604082019050919050565b6000612a87602c83612ff3565b9150612a9282613679565b604082019050919050565b6000612aaa602083612ff3565b9150612ab5826136c8565b602082019050919050565b6000612acd601383612ff3565b9150612ad8826136f1565b602082019050919050565b6000612af0602983612ff3565b9150612afb8261371a565b604082019050919050565b6000612b13602f83612ff3565b9150612b1e82613769565b604082019050919050565b6000612b36602183612ff3565b9150612b41826137b8565b604082019050919050565b6000612b59603183612ff3565b9150612b6482613807565b604082019050919050565b6000612b7c601283612ff3565b9150612b8782613856565b602082019050919050565b612b9b81613134565b82525050565b612baa8161313e565b82525050565b6000612bbc82846128a5565b915081905092915050565b6000612bd382856128a5565b9150612bdf82846128a5565b91508190509392505050565b6000602082019050612c006000830184612815565b92915050565b6000608082019050612c1b6000830187612815565b612c286020830186612815565b612c356040830185612b92565b8181036060830152612c478184612833565b905095945050505050565b6000602082019050612c676000830184612824565b92915050565b60006020820190508181036000830152612c87818461286c565b905092915050565b60006020820190508181036000830152612ca8816128d6565b9050919050565b60006020820190508181036000830152612cc8816128f9565b9050919050565b60006020820190508181036000830152612ce88161291c565b9050919050565b60006020820190508181036000830152612d088161293f565b9050919050565b60006020820190508181036000830152612d2881612962565b9050919050565b60006020820190508181036000830152612d4881612985565b9050919050565b60006020820190508181036000830152612d68816129a8565b9050919050565b60006020820190508181036000830152612d88816129cb565b9050919050565b60006020820190508181036000830152612da8816129ee565b9050919050565b60006020820190508181036000830152612dc881612a11565b9050919050565b60006020820190508181036000830152612de881612a34565b9050919050565b60006020820190508181036000830152612e0881612a57565b9050919050565b60006020820190508181036000830152612e2881612a7a565b9050919050565b60006020820190508181036000830152612e4881612a9d565b9050919050565b60006020820190508181036000830152612e6881612ac0565b9050919050565b60006020820190508181036000830152612e8881612ae3565b9050919050565b60006020820190508181036000830152612ea881612b06565b9050919050565b60006020820190508181036000830152612ec881612b29565b9050919050565b60006020820190508181036000830152612ee881612b4c565b9050919050565b60006020820190508181036000830152612f0881612b6f565b9050919050565b6000602082019050612f246000830184612b92565b92915050565b6000602082019050612f3f6000830184612ba1565b92915050565b6000612f4f612f60565b9050612f5b82826131bf565b919050565b6000604051905090565b600067ffffffffffffffff821115612f8557612f846132f7565b5b612f8e82613326565b9050602081019050919050565b600067ffffffffffffffff821115612fb657612fb56132f7565b5b612fbf82613326565b9050602081019050919050565b600081519050919050565b600081519050919050565b600082825260208201905092915050565b600082825260208201905092915050565b600081905092915050565b600061301a82613134565b915061302583613134565b9250827fffffffffffffffffffffffffffffffffffffffffffffffffffffffffffffffff0382111561305a5761305961326a565b5b828201905092915050565b600061307082613134565b915061307b83613134565b92508261308b5761308a613299565b5b828204905092915050565b60006130a182613134565b91506130ac83613134565b9250828210156130bf576130be61326a565b5b828203905092915050565b60006130d582613114565b9050919050565b60008115159050919050565b60007fffffffff0000000000000000000000000000000000000000000000000000000082169050919050565b600073ffffffffffffffffffffffffffffffffffffffff82169050919050565b6000819050919050565b600060ff82169050919050565b82818337600083830152505050565b60005b8381101561317857808201518184015260208101905061315d565b83811115613187576000848401525b50505050565b600060028204905060018216806131a557607f821691505b602082108114156131b9576131b86132c8565b5b50919050565b6131c882613326565b810181811067ffffffffffffffff821117156131e7576131e66132f7565b5b80604052505050565b60006131fb82613134565b91507fffffffffffffffffffffffffffffffffffffffffffffffffffffffffffffffff82141561322e5761322d61326a565b5b600182019050919050565b600061324482613134565b915061324f83613134565b92508261325f5761325e613299565b5b828206905092915050565b7f4e487b7100000000000000000000000000000000000000000000000000000000600052601160045260246000fd5b7f4e487b7100000000000000000000000000000000000000000000000000000000600052601260045260246000fd5b7f4e487b7100000000000000000000000000000000000000000000000000000000600052602260045260246000fd5b7f4e487b7100000000000000000000000000000000000000000000000000000000600052604160045260246000fd5b6000601f19601f8301169050919050565b7f4552433732313a207472616e7366657220746f206e6f6e20455243373231526560008201527f63656976657220696d706c656d656e7465720000000000000000000000000000602082015250565b7f4f776e61626c653a206e6577206f776e657220697320746865207a65726f206160008201527f6464726573730000000000000000000000000000000000000000000000000000602082015250565b7f4552433732313a20746f6b656e20616c7265616479206d696e74656400000000600082015250565b7f4552433732313a207472616e7366657220746f20746865207a65726f2061646460008201527f7265737300000000000000000000000000000000000000000000000000000000602082015250565b7f4552433732313a20617070726f766520746f2063616c6c657200000000000000600082015250565b7f4552433732313a206f70657261746f7220717565727920666f72206e6f6e657860008201527f697374656e7420746f6b656e0000000000000000000000000000000000000000602082015250565b7f4552433732313a20617070726f76652063616c6c6572206973206e6f74206f7760008201527f6e6572206e6f7220617070726f76656420666f7220616c6c0000000000000000602082015250565b7f4552433732313a2062616c616e636520717565727920666f7220746865207a6560008201527f726f206164647265737300000000000000000000000000000000000000000000602082015250565b7f4552433732313a206f776e657220717565727920666f72206e6f6e657869737460008201527f656e7420746f6b656e0000000000000000000000000000000000000000000000602082015250565b7f45524337323155524953746f726167653a2055524920736574206f66206e6f6e60008201527f6578697374656e7420746f6b656e000000000000000000000000000000000000602082015250565b7f4552433732313a206d696e7420746f20746865207a65726f2061646472657373600082015250565b7f45524337323155524953746f726167653a2055524920717565727920666f722060008201527f6e6f6e6578697374656e7420746f6b656e000000000000000000000000000000602082015250565b7f4552433732313a20617070726f76656420717565727920666f72206e6f6e657860008201527f697374656e7420746f6b656e0000000000000000000000000000000000000000602082015250565b7f4f776e61626c653a2063616c6c6572206973206e6f7420746865206f776e6572600082015250565b7f4e6f746520416c7265616479204d696e74656400000000000000000000000000600082015250565b7f4552433732313a207472616e73666572206f6620746f6b656e2074686174206960008201527f73206e6f74206f776e0000000000000000000000000000000000000000000000602082015250565b7f4552433732314d657461646174613a2055524920717565727920666f72206e6f60008201527f6e6578697374656e7420746f6b656e0000000000000000000000000000000000602082015250565b7f4552433732313a20617070726f76616c20746f2063757272656e74206f776e6560008201527f7200000000000000000000000000000000000000000000000000000000000000602082015250565b7f4552433732313a207472616e736665722063616c6c6572206973206e6f74206f60008201527f776e6572206e6f7220617070726f766564000000000000000000000000000000602082015250565b7f53656e742066756e647320746f6f206c6f770000000000000000000000000000600082015250565b613888816130ca565b811461389357600080fd5b50565b61389f816130dc565b81146138aa57600080fd5b50565b6138b6816130e8565b81146138c157600080fd5b50565b6138cd81613134565b81146138d857600080fd5b5056fea26469706673582212207a73e2556e2873c873ba3038735976b685a536068fd4001ffaf7cbabaa606fd164736f6c63430008040033",
  "linkReferences": {},
  "deployedLinkReferences": {}
}