{
  "_format": "hh-sol-artifact-1",
  "contractName": "DappNotes",
  "sourceName": "contracts/DappNotes.sol",
  "abi": [
    {
      "inputs": [],
      "stateMutability": "nonpayable",
      "type": "constructor"
    },
    {
      "anonymous": false,
      "inputs": [
        {
          "indexed": true,
          "internalType": "address",
          "name": "owner",
          "type": "address"
        },
        {
          "indexed": true,
          "internalType": "address",
          "name": "approved",
          "type": "address"
        },
        {
          "indexed": true,
          "internalType": "uint256",
          "name": "tokenId",
          "type": "uint256"
        }
      ],
      "name": "Approval",
      "type": "event"
    },
    {
      "anonymous": false,
      "inputs": [
        {
          "indexed": true,
          "internalType": "address",
          "name": "owner",
          "type": "address"
        },
        {
          "indexed": true,
          "internalType": "address",
          "name": "operator",
          "type": "address"
        },
        {
          "indexed": false,
          "internalType": "bool",
          "name": "approved",
          "type": "bool"
        }
      ],
      "name": "ApprovalForAll",
      "type": "event"
    },
    {
      "anonymous": false,
      "inputs": [
        {
          "indexed": true,
          "internalType": "address",
          "name": "previousOwner",
          "type": "address"
        },
        {
          "indexed": true,
          "internalType": "address",
          "name": "newOwner",
          "type": "address"
        }
      ],
      "name": "OwnershipTransferred",
      "type": "event"
    },
    {
      "anonymous": false,
      "inputs": [
        {
          "indexed": true,
          "internalType": "address",
          "name": "from",
          "type": "address"
        },
        {
          "indexed": true,
          "internalType": "address",
          "name": "to",
          "type": "address"
        },
        {
          "indexed": true,
          "internalType": "uint256",
          "name": "tokenId",
          "type": "uint256"
        }
      ],
      "name": "Transfer",
      "type": "event"
    },
    {
      "inputs": [
        {
          "internalType": "address",
          "name": "to",
          "type": "address"
        },
        {
          "internalType": "uint256",
          "name": "tokenId",
          "type": "uint256"
        }
      ],
      "name": "approve",
      "outputs": [],
      "stateMutability": "nonpayable",
      "type": "function"
    },
    {
      "inputs": [
        {
          "internalType": "address",
          "name": "owner",
          "type": "address"
        }
      ],
      "name": "balanceOf",
      "outputs": [
        {
          "internalType": "uint256",
          "name": "",
          "type": "uint256"
        }
      ],
      "stateMutability": "view",
      "type": "function"
    },
    {
      "inputs": [
        {
          "internalType": "string",
          "name": "",
          "type": "string"
        }
      ],
      "name": "existingURIs",
      "outputs": [
        {
          "internalType": "uint8",
          "name": "",
          "type": "uint8"
        }
      ],
      "stateMutability": "view",
      "type": "function"
    },
    {
      "inputs": [
        {
          "internalType": "uint256",
          "name": "tokenId",
          "type": "uint256"
        }
      ],
      "name": "getApproved",
      "outputs": [
        {
          "internalType": "address",
          "name": "",
          "type": "address"
        }
      ],
      "stateMutability": "view",
      "type": "function"
    },
    {
      "inputs": [
        {
          "internalType": "string",
          "name": "key",
          "type": "string"
        }
      ],
      "name": "getContentByKey",
      "outputs": [
        {
          "internalType": "string",
          "name": "",
          "type": "string"
        }
      ],
      "stateMutability": "view",
      "type": "function"
    },
    {
      "inputs": [
        {
          "internalType": "address",
          "name": "owner",
          "type": "address"
        },
        {
          "internalType": "address",
          "name": "operator",
          "type": "address"
        }
      ],
      "name": "isApprovedForAll",
      "outputs": [
        {
          "internalType": "bool",
          "name": "",
          "type": "bool"
        }
      ],
      "stateMutability": "view",
      "type": "function"
    },
    {
      "inputs": [
        {
          "internalType": "string",
          "name": "uri",
          "type": "string"
        }
      ],
      "name": "isContentOwned",
      "outputs": [
        {
          "internalType": "bool",
          "name": "",
          "type": "bool"
        }
      ],
      "stateMutability": "view",
      "type": "function"
    },
    {
      "inputs": [
        {
          "internalType": "address",
          "name": "recipient",
          "type": "address"
        },
        {
          "internalType": "string",
          "name": "keyId",
          "type": "string"
        },
        {
          "internalType": "string",
          "name": "note",
          "type": "string"
        }
      ],
      "name": "mintNote",
      "outputs": [
        {
          "internalType": "uint256",
          "name": "",
          "type": "uint256"
        }
      ],
      "stateMutability": "payable",
      "type": "function"
    },
    {
      "inputs": [],
      "name": "name",
      "outputs": [
        {
          "internalType": "string",
          "name": "",
          "type": "string"
        }
      ],
      "stateMutability": "view",
      "type": "function"
    },
    {
      "inputs": [],
      "name": "owner",
      "outputs": [
        {
          "internalType": "address",
          "name": "",
          "type": "address"
        }
      ],
      "stateMutability": "view",
      "type": "function"
    },
    {
      "inputs": [
        {
          "internalType": "uint256",
          "name": "tokenId",
          "type": "uint256"
        }
      ],
      "name": "ownerOf",
      "outputs": [
        {
          "internalType": "address",
          "name": "",
          "type": "address"
        }
      ],
      "stateMutability": "view",
      "type": "function"
    },
    {
      "inputs": [
        {
          "internalType": "address",
          "name": "recipient",
          "type": "address"
        },
        {
          "internalType": "string",
          "name": "metadataURI",
          "type": "string"
        }
      ],
      "name": "payToMint",
      "outputs": [
        {
          "internalType": "uint256",
          "name": "",
          "type": "uint256"
        }
      ],
      "stateMutability": "payable",
      "type": "function"
    },
    {
      "inputs": [],
      "name": "renounceOwnership",
      "outputs": [],
      "stateMutability": "nonpayable",
      "type": "function"
    },
    {
      "inputs": [
        {
          "internalType": "address",
          "name": "to",
          "type": "address"
        },
        {
          "internalType": "string",
          "name": "uri",
          "type": "string"
        }
      ],
      "name": "safeMint",
      "outputs": [],
      "stateMutability": "nonpayable",
      "type": "function"
    },
    {
      "inputs": [
        {
          "internalType": "address",
          "name": "from",
          "type": "address"
        },
        {
          "internalType": "address",
          "name": "to",
          "type": "address"
        },
        {
          "internalType": "uint256",
          "name": "tokenId",
          "type": "uint256"
        }
      ],
      "name": "safeTransferFrom",
      "outputs": [],
      "stateMutability": "nonpayable",
      "type": "function"
    },
    {
      "inputs": [
        {
          "internalType": "address",
          "name": "from",
          "type": "address"
        },
        {
          "internalType": "address",
          "name": "to",
          "type": "address"
        },
        {
          "internalType": "uint256",
          "name": "tokenId",
          "type": "uint256"
        },
        {
          "internalType": "bytes",
          "name": "_data",
          "type": "bytes"
        }
      ],
      "name": "safeTransferFrom",
      "outputs": [],
      "stateMutability": "nonpayable",
      "type": "function"
    },
    {
      "inputs": [
        {
          "internalType": "address",
          "name": "operator",
          "type": "address"
        },
        {
          "internalType": "bool",
          "name": "approved",
          "type": "bool"
        }
      ],
      "name": "setApprovalForAll",
      "outputs": [],
      "stateMutability": "nonpayable",
      "type": "function"
    },
    {
      "inputs": [
        {
          "internalType": "string",
          "name": "",
          "type": "string"
        }
      ],
      "name": "storedNotes",
      "outputs": [
        {
          "internalType": "string",
          "name": "",
          "type": "string"
        }
      ],
      "stateMutability": "view",
      "type": "function"
    },
    {
      "inputs": [
        {
          "internalType": "bytes4",
          "name": "interfaceId",
          "type": "bytes4"
        }
      ],
      "name": "supportsInterface",
      "outputs": [
        {
          "internalType": "bool",
          "name": "",
          "type": "bool"
        }
      ],
      "stateMutability": "view",
      "type": "function"
    },
    {
      "inputs": [],
      "name": "symbol",
      "outputs": [
        {
          "internalType": "string",
          "name": "",
          "type": "string"
        }
      ],
      "stateMutability": "view",
      "type": "function"
    },
    {
      "inputs": [
        {
          "internalType": "uint256",
          "name": "tokenId",
          "type": "uint256"
        }
      ],
      "name": "tokenURI",
      "outputs": [
        {
          "internalType": "string",
          "name": "",
          "type": "string"
        }
      ],
      "stateMutability": "view",
      "type": "function"
    },
    {
      "inputs": [
        {
          "internalType": "address",
          "name": "from",
          "type": "address"
        },
        {
          "internalType": "address",
          "name": "to",
          "type": "address"
        },
        {
          "internalType": "uint256",
          "name": "tokenId",
          "type": "uint256"
        }
      ],
      "name": "transferFrom",
      "outputs": [],
      "stateMutability": "nonpayable",
      "type": "function"
    },
    {
      "inputs": [
        {
          "internalType": "address",
          "name": "newOwner",
          "type": "address"
        }
      ],
      "name": "transferOwnership",
      "outputs": [],
      "stateMutability": "nonpayable",
      "type": "function"
    }
  ],
  "bytecode": "0x60806040523480156200001157600080fd5b506040518060400160405280600981526020017f446170704e6f74657300000000000000000000000000000000000000000000008152506040518060400160405280600381526020017f4441500000000000000000000000000000000000000000000000000000000000815250816000908051906020019062000096929190620001a6565b508060019080519060200190620000af929190620001a6565b505050620000d2620000c6620000d860201b60201c565b620000e060201b60201c565b620002bb565b600033905090565b6000600760009054906101000a900473ffffffffffffffffffffffffffffffffffffffff16905081600760006101000a81548173ffffffffffffffffffffffffffffffffffffffff021916908373ffffffffffffffffffffffffffffffffffffffff1602179055508173ffffffffffffffffffffffffffffffffffffffff168173ffffffffffffffffffffffffffffffffffffffff167f8be0079c531659141344cd1fd0a4f28419497f9722a3daafe3b4186f6b6457e060405160405180910390a35050565b828054620001b49062000256565b90600052602060002090601f016020900481019282620001d8576000855562000224565b82601f10620001f357805160ff191683800117855562000224565b8280016001018555821562000224579182015b828111156200022357825182559160200191906001019062000206565b5b50905062000233919062000237565b5090565b5b808211156200025257600081600090555060010162000238565b5090565b600060028204905060018216806200026f57607f821691505b602082108114156200028657620002856200028c565b5b50919050565b7f4e487b7100000000000000000000000000000000000000000000000000000000600052602260045260246000fd5b613b2b80620002cb6000396000f3fe6080604052600436106101405760003560e01c80638da5cb5b116100b6578063c87b56dd1161006f578063c87b56dd14610478578063d204c45e146104b5578063e985e9c5146104de578063ec6cafcb1461051b578063f2fde38b14610558578063f37971df1461058157610140565b80638da5cb5b14610363578063943102151461038e57806395d89b41146103be5780639f1cabc6146103e9578063a22cb46514610426578063b88d4fde1461044f57610140565b80633b410ffe116101085780633b410ffe1461023c57806342842e0e14610279578063615fd9e2146102a25780636352211e146102d257806370a082311461030f578063715018a61461034c57610140565b806301ffc9a71461014557806306fdde0314610182578063081812fc146101ad578063095ea7b3146101ea57806323b872dd14610213575b600080fd5b34801561015157600080fd5b5061016c60048036038101906101679190612973565b6105be565b6040516101799190612e6c565b60405180910390f35b34801561018e57600080fd5b506101976106a0565b6040516101a49190612e87565b60405180910390f35b3480156101b957600080fd5b506101d460048036038101906101cf9190612a06565b610732565b6040516101e19190612e05565b60405180910390f35b3480156101f657600080fd5b50610211600480360381019061020c9190612937565b6107b7565b005b34801561021f57600080fd5b5061023a6004803603810190610235919061275e565b6108cf565b005b34801561024857600080fd5b50610263600480360381019061025e91906129c5565b61092f565b6040516102709190612e87565b60405180910390f35b34801561028557600080fd5b506102a0600480360381019061029b919061275e565b6109e5565b005b6102bc60048036038101906102b79190612864565b610a05565b6040516102c99190613129565b60405180910390f35b3480156102de57600080fd5b506102f960048036038101906102f49190612a06565b610b64565b6040516103069190612e05565b60405180910390f35b34801561031b57600080fd5b50610336600480360381019061033191906126f9565b610c16565b6040516103439190613129565b60405180910390f35b34801561035857600080fd5b50610361610cce565b005b34801561036f57600080fd5b50610378610d56565b6040516103859190612e05565b60405180910390f35b6103a860048036038101906103a391906128b8565b610d80565b6040516103b59190613129565b60405180910390f35b3480156103ca57600080fd5b506103d3610ee0565b6040516103e09190612e87565b60405180910390f35b3480156103f557600080fd5b50610410600480360381019061040b91906129c5565b610f72565b60405161041d9190612e6c565b60405180910390f35b34801561043257600080fd5b5061044d60048036038101906104489190612828565b610fad565b005b34801561045b57600080fd5b50610476600480360381019061047191906127ad565b610fc3565b005b34801561048457600080fd5b5061049f600480360381019061049a9190612a06565b611025565b6040516104ac9190612e87565b60405180910390f35b3480156104c157600080fd5b506104dc60048036038101906104d79190612864565b611037565b005b3480156104ea57600080fd5b5061050560048036038101906105009190612722565b6110e4565b6040516105129190612e6c565b60405180910390f35b34801561052757600080fd5b50610542600480360381019061053d91906129c5565b611178565b60405161054f9190612e87565b60405180910390f35b34801561056457600080fd5b5061057f600480360381019061057a91906126f9565b61135c565b005b34801561058d57600080fd5b506105a860048036038101906105a391906129c5565b611454565b6040516105b59190613144565b60405180910390f35b60007f80ac58cd000000000000000000000000000000000000000000000000000000007bffffffffffffffffffffffffffffffffffffffffffffffffffffffff1916827bffffffffffffffffffffffffffffffffffffffffffffffffffffffff1916148061068957507f5b5e139f000000000000000000000000000000000000000000000000000000007bffffffffffffffffffffffffffffffffffffffffffffffffffffffff1916827bffffffffffffffffffffffffffffffffffffffffffffffffffffffff1916145b8061069957506106988261148a565b5b9050919050565b6060600080546106af906133a7565b80601f01602080910402602001604051908101604052809291908181526020018280546106db906133a7565b80156107285780601f106106fd57610100808354040283529160200191610728565b820191906000526020600020905b81548152906001019060200180831161070b57829003601f168201915b5050505050905090565b600061073d826114f4565b61077c576040517f08c379a000000000000000000000000000000000000000000000000000000000815260040161077390613029565b60405180910390fd5b6004600083815260200190815260200160002060009054906101000a900473ffffffffffffffffffffffffffffffffffffffff169050919050565b60006107c282610b64565b90508073ffffffffffffffffffffffffffffffffffffffff168373ffffffffffffffffffffffffffffffffffffffff161415610833576040517f08c379a000000000000000000000000000000000000000000000000000000000815260040161082a906130c9565b60405180910390fd5b8073ffffffffffffffffffffffffffffffffffffffff16610852611560565b73ffffffffffffffffffffffffffffffffffffffff16148061088157506108808161087b611560565b6110e4565b5b6108c0576040517f08c379a00000000000000000000000000000000000000000000000000000000081526004016108b790612f69565b60405180910390fd5b6108ca8383611568565b505050565b6108e06108da611560565b82611621565b61091f576040517f08c379a0000000000000000000000000000000000000000000000000000000008152600401610916906130e9565b60405180910390fd5b61092a8383836116ff565b505050565b600a818051602081018201805184825260208301602085012081835280955050505050506000915090508054610964906133a7565b80601f0160208091040260200160405190810160405280929190818152602001828054610990906133a7565b80156109dd5780601f106109b2576101008083540402835291602001916109dd565b820191906000526020600020905b8154815290600101906020018083116109c057829003601f168201915b505050505081565b610a0083838360405180602001604052806000815250610fc3565b505050565b60006001600983604051610a199190612dca565b908152602001604051809103902060009054906101000a900460ff1660ff161415610a79576040517f08c379a0000000000000000000000000000000000000000000000000000000008152600401610a7090613069565b60405180910390fd5b66b1a2bc2ec50000341015610ac3576040517f08c379a0000000000000000000000000000000000000000000000000000000008152600401610aba90613109565b60405180910390fd5b6000610acf600861195b565b9050610adb6008611969565b6001600984604051610aed9190612dca565b908152602001604051809103902060006101000a81548160ff021916908360ff16021790555082600a84604051610b249190612dca565b90815260200160405180910390209080519060200190610b4592919061251d565b50610b50848261197f565b610b5a8184611b4d565b8091505092915050565b6000806002600084815260200190815260200160002060009054906101000a900473ffffffffffffffffffffffffffffffffffffffff169050600073ffffffffffffffffffffffffffffffffffffffff168173ffffffffffffffffffffffffffffffffffffffff161415610c0d576040517f08c379a0000000000000000000000000000000000000000000000000000000008152600401610c0490612fa9565b60405180910390fd5b80915050919050565b60008073ffffffffffffffffffffffffffffffffffffffff168273ffffffffffffffffffffffffffffffffffffffff161415610c87576040517f08c379a0000000000000000000000000000000000000000000000000000000008152600401610c7e90612f89565b60405180910390fd5b600360008373ffffffffffffffffffffffffffffffffffffffff1673ffffffffffffffffffffffffffffffffffffffff168152602001908152602001600020549050919050565b610cd6611560565b73ffffffffffffffffffffffffffffffffffffffff16610cf4610d56565b73ffffffffffffffffffffffffffffffffffffffff1614610d4a576040517f08c379a0000000000000000000000000000000000000000000000000000000008152600401610d4190613049565b60405180910390fd5b610d546000611bc1565b565b6000600760009054906101000a900473ffffffffffffffffffffffffffffffffffffffff16905090565b60006001600984604051610d949190612dca565b908152602001604051809103902060009054906101000a900460ff1660ff161415610df4576040517f08c379a0000000000000000000000000000000000000000000000000000000008152600401610deb90613069565b60405180910390fd5b66b1a2bc2ec50000341015610e3e576040517f08c379a0000000000000000000000000000000000000000000000000000000008152600401610e3590613109565b60405180910390fd5b6000610e4a600861195b565b9050610e566008611969565b6001600985604051610e689190612dca565b908152602001604051809103902060006101000a81548160ff021916908360ff16021790555082600a85604051610e9f9190612dca565b90815260200160405180910390209080519060200190610ec092919061251d565b50610ecb858261197f565b610ed58185611b4d565b809150509392505050565b606060018054610eef906133a7565b80601f0160208091040260200160405190810160405280929190818152602001828054610f1b906133a7565b8015610f685780601f10610f3d57610100808354040283529160200191610f68565b820191906000526020600020905b815481529060010190602001808311610f4b57829003601f168201915b5050505050905090565b60006001600983604051610f869190612dca565b908152602001604051809103902060009054906101000a900460ff1660ff16149050919050565b610fbf610fb8611560565b8383611c87565b5050565b610fd4610fce611560565b83611621565b611013576040517f08c379a000000000000000000000000000000000000000000000000000000000815260040161100a906130e9565b60405180910390fd5b61101f84848484611df4565b50505050565b606061103082611e50565b9050919050565b61103f611560565b73ffffffffffffffffffffffffffffffffffffffff1661105d610d56565b73ffffffffffffffffffffffffffffffffffffffff16146110b3576040517f08c379a00000000000000000000000000000000000000000000000000000000081526004016110aa90613049565b60405180910390fd5b60006110bf600861195b565b90506110cb6008611969565b6110d58382611fa2565b6110df8183611b4d565b505050565b6000600560008473ffffffffffffffffffffffffffffffffffffffff1673ffffffffffffffffffffffffffffffffffffffff16815260200190815260200160002060008373ffffffffffffffffffffffffffffffffffffffff1673ffffffffffffffffffffffffffffffffffffffff16815260200190815260200160002060009054906101000a900460ff16905092915050565b60606111b86040518060400160405280600f81526020017f676574436f6e74656e7442794b65790000000000000000000000000000000000815250611fc0565b6111c182611fc0565b611270600a836040516111d49190612dca565b908152602001604051809103902080546111ed906133a7565b80601f0160208091040260200160405190810160405280929190818152602001828054611219906133a7565b80156112665780601f1061123b57610100808354040283529160200191611266565b820191906000526020600020905b81548152906001019060200180831161124957829003601f168201915b5050505050611fc0565b6112ae6040518060400160405280600f81526020017f676574436f6e74656e7442794b65790000000000000000000000000000000000815250611fc0565b600a826040516112be9190612dca565b908152602001604051809103902080546112d7906133a7565b80601f0160208091040260200160405190810160405280929190818152602001828054611303906133a7565b80156113505780601f1061132557610100808354040283529160200191611350565b820191906000526020600020905b81548152906001019060200180831161133357829003601f168201915b50505050509050919050565b611364611560565b73ffffffffffffffffffffffffffffffffffffffff16611382610d56565b73ffffffffffffffffffffffffffffffffffffffff16146113d8576040517f08c379a00000000000000000000000000000000000000000000000000000000081526004016113cf90613049565b60405180910390fd5b600073ffffffffffffffffffffffffffffffffffffffff168173ffffffffffffffffffffffffffffffffffffffff161415611448576040517f08c379a000000000000000000000000000000000000000000000000000000000815260040161143f90612ec9565b60405180910390fd5b61145181611bc1565b50565b6009818051602081018201805184825260208301602085012081835280955050505050506000915054906101000a900460ff1681565b60007f01ffc9a7000000000000000000000000000000000000000000000000000000007bffffffffffffffffffffffffffffffffffffffffffffffffffffffff1916827bffffffffffffffffffffffffffffffffffffffffffffffffffffffff1916149050919050565b60008073ffffffffffffffffffffffffffffffffffffffff166002600084815260200190815260200160002060009054906101000a900473ffffffffffffffffffffffffffffffffffffffff1673ffffffffffffffffffffffffffffffffffffffff1614159050919050565b600033905090565b816004600083815260200190815260200160002060006101000a81548173ffffffffffffffffffffffffffffffffffffffff021916908373ffffffffffffffffffffffffffffffffffffffff160217905550808273ffffffffffffffffffffffffffffffffffffffff166115db83610b64565b73ffffffffffffffffffffffffffffffffffffffff167f8c5be1e5ebec7d5bd14f71427d1e84f3dd0314c0f7b2291e5b200ac8c7c3b92560405160405180910390a45050565b600061162c826114f4565b61166b576040517f08c379a000000000000000000000000000000000000000000000000000000000815260040161166290612f49565b60405180910390fd5b600061167683610b64565b90508073ffffffffffffffffffffffffffffffffffffffff168473ffffffffffffffffffffffffffffffffffffffff1614806116e557508373ffffffffffffffffffffffffffffffffffffffff166116cd84610732565b73ffffffffffffffffffffffffffffffffffffffff16145b806116f657506116f581856110e4565b5b91505092915050565b8273ffffffffffffffffffffffffffffffffffffffff1661171f82610b64565b73ffffffffffffffffffffffffffffffffffffffff1614611775576040517f08c379a000000000000000000000000000000000000000000000000000000000815260040161176c90613089565b60405180910390fd5b600073ffffffffffffffffffffffffffffffffffffffff168273ffffffffffffffffffffffffffffffffffffffff1614156117e5576040517f08c379a00000000000000000000000000000000000000000000000000000000081526004016117dc90612f09565b60405180910390fd5b6117f0838383612059565b6117fb600082611568565b6001600360008573ffffffffffffffffffffffffffffffffffffffff1673ffffffffffffffffffffffffffffffffffffffff168152602001908152602001600020600082825461184b91906132b0565b925050819055506001600360008473ffffffffffffffffffffffffffffffffffffffff1673ffffffffffffffffffffffffffffffffffffffff16815260200190815260200160002060008282546118a29190613229565b92505081905550816002600083815260200190815260200160002060006101000a81548173ffffffffffffffffffffffffffffffffffffffff021916908373ffffffffffffffffffffffffffffffffffffffff160217905550808273ffffffffffffffffffffffffffffffffffffffff168473ffffffffffffffffffffffffffffffffffffffff167fddf252ad1be2c89b69c2b068fc378daa952ba7f163c4a11628f55a4df523b3ef60405160405180910390a4505050565b600081600001549050919050565b6001816000016000828254019250508190555050565b600073ffffffffffffffffffffffffffffffffffffffff168273ffffffffffffffffffffffffffffffffffffffff1614156119ef576040517f08c379a00000000000000000000000000000000000000000000000000000000081526004016119e690612fe9565b60405180910390fd5b6119f8816114f4565b15611a38576040517f08c379a0000000000000000000000000000000000000000000000000000000008152600401611a2f90612ee9565b60405180910390fd5b611a4460008383612059565b6001600360008473ffffffffffffffffffffffffffffffffffffffff1673ffffffffffffffffffffffffffffffffffffffff1681526020019081526020016000206000828254611a949190613229565b92505081905550816002600083815260200190815260200160002060006101000a81548173ffffffffffffffffffffffffffffffffffffffff021916908373ffffffffffffffffffffffffffffffffffffffff160217905550808273ffffffffffffffffffffffffffffffffffffffff16600073ffffffffffffffffffffffffffffffffffffffff167fddf252ad1be2c89b69c2b068fc378daa952ba7f163c4a11628f55a4df523b3ef60405160405180910390a45050565b611b56826114f4565b611b95576040517f08c379a0000000000000000000000000000000000000000000000000000000008152600401611b8c90612fc9565b60405180910390fd5b80600660008481526020019081526020016000209080519060200190611bbc92919061251d565b505050565b6000600760009054906101000a900473ffffffffffffffffffffffffffffffffffffffff16905081600760006101000a81548173ffffffffffffffffffffffffffffffffffffffff021916908373ffffffffffffffffffffffffffffffffffffffff1602179055508173ffffffffffffffffffffffffffffffffffffffff168173ffffffffffffffffffffffffffffffffffffffff167f8be0079c531659141344cd1fd0a4f28419497f9722a3daafe3b4186f6b6457e060405160405180910390a35050565b8173ffffffffffffffffffffffffffffffffffffffff168373ffffffffffffffffffffffffffffffffffffffff161415611cf6576040517f08c379a0000000000000000000000000000000000000000000000000000000008152600401611ced90612f29565b60405180910390fd5b80600560008573ffffffffffffffffffffffffffffffffffffffff1673ffffffffffffffffffffffffffffffffffffffff16815260200190815260200160002060008473ffffffffffffffffffffffffffffffffffffffff1673ffffffffffffffffffffffffffffffffffffffff16815260200190815260200160002060006101000a81548160ff0219169083151502179055508173ffffffffffffffffffffffffffffffffffffffff168373ffffffffffffffffffffffffffffffffffffffff167f17307eab39ab6107e8899845ad3d59bd9653f200f220920489ca2b5937696c3183604051611de79190612e6c565b60405180910390a3505050565b611dff8484846116ff565b611e0b8484848461205e565b611e4a576040517f08c379a0000000000000000000000000000000000000000000000000000000008152600401611e4190612ea9565b60405180910390fd5b50505050565b6060611e5b826114f4565b611e9a576040517f08c379a0000000000000000000000000000000000000000000000000000000008152600401611e9190613009565b60405180910390fd5b6000600660008481526020019081526020016000208054611eba906133a7565b80601f0160208091040260200160405190810160405280929190818152602001828054611ee6906133a7565b8015611f335780601f10611f0857610100808354040283529160200191611f33565b820191906000526020600020905b815481529060010190602001808311611f1657829003601f168201915b505050505090506000611f446121f5565b9050600081511415611f5a578192505050611f9d565b600082511115611f8f578082604051602001611f77929190612de1565b60405160208183030381529060405292505050611f9d565b611f9884612232565b925050505b919050565b611fbc8282604051806020016040528060008152506122d9565b5050565b61205681604051602401611fd49190612e87565b6040516020818303038152906040527f41304fac000000000000000000000000000000000000000000000000000000007bffffffffffffffffffffffffffffffffffffffffffffffffffffffff19166020820180517bffffffffffffffffffffffffffffffffffffffffffffffffffffffff8381831617835250505050612334565b50565b505050565b600061207f8473ffffffffffffffffffffffffffffffffffffffff1661235d565b156121e8578373ffffffffffffffffffffffffffffffffffffffff1663150b7a026120a8611560565b8786866040518563ffffffff1660e01b81526004016120ca9493929190612e20565b602060405180830381600087803b1580156120e457600080fd5b505af192505050801561211557506040513d601f19601f82011682018060405250810190612112919061299c565b60015b612198573d8060008114612145576040519150601f19603f3d011682016040523d82523d6000602084013e61214a565b606091505b50600081511415612190576040517f08c379a000000000000000000000000000000000000000000000000000000000815260040161218790612ea9565b60405180910390fd5b805181602001fd5b63150b7a0260e01b7bffffffffffffffffffffffffffffffffffffffffffffffffffffffff1916817bffffffffffffffffffffffffffffffffffffffffffffffffffffffff1916149150506121ed565b600190505b949350505050565b60606040518060400160405280600781526020017f697066733a2f2f00000000000000000000000000000000000000000000000000815250905090565b606061223d826114f4565b61227c576040517f08c379a0000000000000000000000000000000000000000000000000000000008152600401612273906130a9565b60405180910390fd5b60006122866121f5565b905060008151116122a657604051806020016040528060008152506122d1565b806122b084612370565b6040516020016122c1929190612de1565b6040516020818303038152906040525b915050919050565b6122e3838361197f565b6122f0600084848461205e565b61232f576040517f08c379a000000000000000000000000000000000000000000000000000000000815260040161232690612ea9565b60405180910390fd5b505050565b60008151905060006a636f6e736f6c652e6c6f679050602083016000808483855afa5050505050565b600080823b905060008111915050919050565b606060008214156123b8576040518060400160405280600181526020017f30000000000000000000000000000000000000000000000000000000000000008152509050612518565b600082905060005b600082146123ea5780806123d39061340a565b915050600a826123e3919061327f565b91506123c0565b60008167ffffffffffffffff81111561242c577f4e487b7100000000000000000000000000000000000000000000000000000000600052604160045260246000fd5b6040519080825280601f01601f19166020018201604052801561245e5781602001600182028036833780820191505090505b5090505b600085146125115760018261247791906132b0565b9150600a856124869190613453565b60306124929190613229565b60f81b8183815181106124ce577f4e487b7100000000000000000000000000000000000000000000000000000000600052603260045260246000fd5b60200101907effffffffffffffffffffffffffffffffffffffffffffffffffffffffffffff1916908160001a905350600a8561250a919061327f565b9450612462565b8093505050505b919050565b828054612529906133a7565b90600052602060002090601f01602090048101928261254b5760008555612592565b82601f1061256457805160ff1916838001178555612592565b82800160010185558215612592579182015b82811115612591578251825591602001919060010190612576565b5b50905061259f91906125a3565b5090565b5b808211156125bc5760008160009055506001016125a4565b5090565b60006125d36125ce84613184565b61315f565b9050828152602081018484840111156125eb57600080fd5b6125f6848285613365565b509392505050565b600061261161260c846131b5565b61315f565b90508281526020810184848401111561262957600080fd5b612634848285613365565b509392505050565b60008135905061264b81613a99565b92915050565b60008135905061266081613ab0565b92915050565b60008135905061267581613ac7565b92915050565b60008151905061268a81613ac7565b92915050565b600082601f8301126126a157600080fd5b81356126b18482602086016125c0565b91505092915050565b600082601f8301126126cb57600080fd5b81356126db8482602086016125fe565b91505092915050565b6000813590506126f381613ade565b92915050565b60006020828403121561270b57600080fd5b60006127198482850161263c565b91505092915050565b6000806040838503121561273557600080fd5b60006127438582860161263c565b92505060206127548582860161263c565b9150509250929050565b60008060006060848603121561277357600080fd5b60006127818682870161263c565b93505060206127928682870161263c565b92505060406127a3868287016126e4565b9150509250925092565b600080600080608085870312156127c357600080fd5b60006127d18782880161263c565b94505060206127e28782880161263c565b93505060406127f3878288016126e4565b925050606085013567ffffffffffffffff81111561281057600080fd5b61281c87828801612690565b91505092959194509250565b6000806040838503121561283b57600080fd5b60006128498582860161263c565b925050602061285a85828601612651565b9150509250929050565b6000806040838503121561287757600080fd5b60006128858582860161263c565b925050602083013567ffffffffffffffff8111156128a257600080fd5b6128ae858286016126ba565b9150509250929050565b6000806000606084860312156128cd57600080fd5b60006128db8682870161263c565b935050602084013567ffffffffffffffff8111156128f857600080fd5b612904868287016126ba565b925050604084013567ffffffffffffffff81111561292157600080fd5b61292d868287016126ba565b9150509250925092565b6000806040838503121561294a57600080fd5b60006129588582860161263c565b9250506020612969858286016126e4565b9150509250929050565b60006020828403121561298557600080fd5b600061299384828501612666565b91505092915050565b6000602082840312156129ae57600080fd5b60006129bc8482850161267b565b91505092915050565b6000602082840312156129d757600080fd5b600082013567ffffffffffffffff8111156129f157600080fd5b6129fd848285016126ba565b91505092915050565b600060208284031215612a1857600080fd5b6000612a26848285016126e4565b91505092915050565b612a38816132e4565b82525050565b612a47816132f6565b82525050565b6000612a58826131e6565b612a6281856131fc565b9350612a72818560208601613374565b612a7b81613540565b840191505092915050565b6000612a91826131f1565b612a9b818561320d565b9350612aab818560208601613374565b612ab481613540565b840191505092915050565b6000612aca826131f1565b612ad4818561321e565b9350612ae4818560208601613374565b80840191505092915050565b6000612afd60328361320d565b9150612b0882613551565b604082019050919050565b6000612b2060268361320d565b9150612b2b826135a0565b604082019050919050565b6000612b43601c8361320d565b9150612b4e826135ef565b602082019050919050565b6000612b6660248361320d565b9150612b7182613618565b604082019050919050565b6000612b8960198361320d565b9150612b9482613667565b602082019050919050565b6000612bac602c8361320d565b9150612bb782613690565b604082019050919050565b6000612bcf60388361320d565b9150612bda826136df565b604082019050919050565b6000612bf2602a8361320d565b9150612bfd8261372e565b604082019050919050565b6000612c1560298361320d565b9150612c208261377d565b604082019050919050565b6000612c38602e8361320d565b9150612c43826137cc565b604082019050919050565b6000612c5b60208361320d565b9150612c668261381b565b602082019050919050565b6000612c7e60318361320d565b9150612c8982613844565b604082019050919050565b6000612ca1602c8361320d565b9150612cac82613893565b604082019050919050565b6000612cc460208361320d565b9150612ccf826138e2565b602082019050919050565b6000612ce760138361320d565b9150612cf28261390b565b602082019050919050565b6000612d0a60298361320d565b9150612d1582613934565b604082019050919050565b6000612d2d602f8361320d565b9150612d3882613983565b604082019050919050565b6000612d5060218361320d565b9150612d5b826139d2565b604082019050919050565b6000612d7360318361320d565b9150612d7e82613a21565b604082019050919050565b6000612d9660128361320d565b9150612da182613a70565b602082019050919050565b612db58161334e565b82525050565b612dc481613358565b82525050565b6000612dd68284612abf565b915081905092915050565b6000612ded8285612abf565b9150612df98284612abf565b91508190509392505050565b6000602082019050612e1a6000830184612a2f565b92915050565b6000608082019050612e356000830187612a2f565b612e426020830186612a2f565b612e4f6040830185612dac565b8181036060830152612e618184612a4d565b905095945050505050565b6000602082019050612e816000830184612a3e565b92915050565b60006020820190508181036000830152612ea18184612a86565b905092915050565b60006020820190508181036000830152612ec281612af0565b9050919050565b60006020820190508181036000830152612ee281612b13565b9050919050565b60006020820190508181036000830152612f0281612b36565b9050919050565b60006020820190508181036000830152612f2281612b59565b9050919050565b60006020820190508181036000830152612f4281612b7c565b9050919050565b60006020820190508181036000830152612f6281612b9f565b9050919050565b60006020820190508181036000830152612f8281612bc2565b9050919050565b60006020820190508181036000830152612fa281612be5565b9050919050565b60006020820190508181036000830152612fc281612c08565b9050919050565b60006020820190508181036000830152612fe281612c2b565b9050919050565b6000602082019050818103600083015261300281612c4e565b9050919050565b6000602082019050818103600083015261302281612c71565b9050919050565b6000602082019050818103600083015261304281612c94565b9050919050565b6000602082019050818103600083015261306281612cb7565b9050919050565b6000602082019050818103600083015261308281612cda565b9050919050565b600060208201905081810360008301526130a281612cfd565b9050919050565b600060208201905081810360008301526130c281612d20565b9050919050565b600060208201905081810360008301526130e281612d43565b9050919050565b6000602082019050818103600083015261310281612d66565b9050919050565b6000602082019050818103600083015261312281612d89565b9050919050565b600060208201905061313e6000830184612dac565b92915050565b60006020820190506131596000830184612dbb565b92915050565b600061316961317a565b905061317582826133d9565b919050565b6000604051905090565b600067ffffffffffffffff82111561319f5761319e613511565b5b6131a882613540565b9050602081019050919050565b600067ffffffffffffffff8211156131d0576131cf613511565b5b6131d982613540565b9050602081019050919050565b600081519050919050565b600081519050919050565b600082825260208201905092915050565b600082825260208201905092915050565b600081905092915050565b60006132348261334e565b915061323f8361334e565b9250827fffffffffffffffffffffffffffffffffffffffffffffffffffffffffffffffff0382111561327457613273613484565b5b828201905092915050565b600061328a8261334e565b91506132958361334e565b9250826132a5576132a46134b3565b5b828204905092915050565b60006132bb8261334e565b91506132c68361334e565b9250828210156132d9576132d8613484565b5b828203905092915050565b60006132ef8261332e565b9050919050565b60008115159050919050565b60007fffffffff0000000000000000000000000000000000000000000000000000000082169050919050565b600073ffffffffffffffffffffffffffffffffffffffff82169050919050565b6000819050919050565b600060ff82169050919050565b82818337600083830152505050565b60005b83811015613392578082015181840152602081019050613377565b838111156133a1576000848401525b50505050565b600060028204905060018216806133bf57607f821691505b602082108114156133d3576133d26134e2565b5b50919050565b6133e282613540565b810181811067ffffffffffffffff8211171561340157613400613511565b5b80604052505050565b60006134158261334e565b91507fffffffffffffffffffffffffffffffffffffffffffffffffffffffffffffffff82141561344857613447613484565b5b600182019050919050565b600061345e8261334e565b91506134698361334e565b925082613479576134786134b3565b5b828206905092915050565b7f4e487b7100000000000000000000000000000000000000000000000000000000600052601160045260246000fd5b7f4e487b7100000000000000000000000000000000000000000000000000000000600052601260045260246000fd5b7f4e487b7100000000000000000000000000000000000000000000000000000000600052602260045260246000fd5b7f4e487b7100000000000000000000000000000000000000000000000000000000600052604160045260246000fd5b6000601f19601f8301169050919050565b7f4552433732313a207472616e7366657220746f206e6f6e20455243373231526560008201527f63656976657220696d706c656d656e7465720000000000000000000000000000602082015250565b7f4f776e61626c653a206e6577206f776e657220697320746865207a65726f206160008201527f6464726573730000000000000000000000000000000000000000000000000000602082015250565b7f4552433732313a20746f6b656e20616c7265616479206d696e74656400000000600082015250565b7f4552433732313a207472616e7366657220746f20746865207a65726f2061646460008201527f7265737300000000000000000000000000000000000000000000000000000000602082015250565b7f4552433732313a20617070726f766520746f2063616c6c657200000000000000600082015250565b7f4552433732313a206f70657261746f7220717565727920666f72206e6f6e657860008201527f697374656e7420746f6b656e0000000000000000000000000000000000000000602082015250565b7f4552433732313a20617070726f76652063616c6c6572206973206e6f74206f7760008201527f6e6572206e6f7220617070726f76656420666f7220616c6c0000000000000000602082015250565b7f4552433732313a2062616c616e636520717565727920666f7220746865207a6560008201527f726f206164647265737300000000000000000000000000000000000000000000602082015250565b7f4552433732313a206f776e657220717565727920666f72206e6f6e657869737460008201527f656e7420746f6b656e0000000000000000000000000000000000000000000000602082015250565b7f45524337323155524953746f726167653a2055524920736574206f66206e6f6e60008201527f6578697374656e7420746f6b656e000000000000000000000000000000000000602082015250565b7f4552433732313a206d696e7420746f20746865207a65726f2061646472657373600082015250565b7f45524337323155524953746f726167653a2055524920717565727920666f722060008201527f6e6f6e6578697374656e7420746f6b656e000000000000000000000000000000602082015250565b7f4552433732313a20617070726f76656420717565727920666f72206e6f6e657860008201527f697374656e7420746f6b656e0000000000000000000000000000000000000000602082015250565b7f4f776e61626c653a2063616c6c6572206973206e6f7420746865206f776e6572600082015250565b7f4e6f746520416c7265616479204d696e74656400000000000000000000000000600082015250565b7f4552433732313a207472616e73666572206f6620746f6b656e2074686174206960008201527f73206e6f74206f776e0000000000000000000000000000000000000000000000602082015250565b7f4552433732314d657461646174613a2055524920717565727920666f72206e6f60008201527f6e6578697374656e7420746f6b656e0000000000000000000000000000000000602082015250565b7f4552433732313a20617070726f76616c20746f2063757272656e74206f776e6560008201527f7200000000000000000000000000000000000000000000000000000000000000602082015250565b7f4552433732313a207472616e736665722063616c6c6572206973206e6f74206f60008201527f776e6572206e6f7220617070726f766564000000000000000000000000000000602082015250565b7f53656e742066756e647320746f6f206c6f770000000000000000000000000000600082015250565b613aa2816132e4565b8114613aad57600080fd5b50565b613ab9816132f6565b8114613ac457600080fd5b50565b613ad081613302565b8114613adb57600080fd5b50565b613ae78161334e565b8114613af257600080fd5b5056fea264697066735822122008b0ef26e41fdc4df2332e9b07788d902ca2a1c30c96bfb13f7376519ea22aa364736f6c63430008040033",
  "linkReferences": {},
  "deployedLinkReferences": {}
}