{
  "_format": "hh-sol-artifact-1",
  "contractName": "DappNotes",
  "sourceName": "contracts/DappNotes.sol",
  "abi": [
    {
      "inputs": [],
      "stateMutability": "nonpayable",
      "type": "constructor"
    },
    {
      "anonymous": false,
      "inputs": [
        {
          "indexed": true,
          "internalType": "address",
          "name": "owner",
          "type": "address"
        },
        {
          "indexed": true,
          "internalType": "address",
          "name": "approved",
          "type": "address"
        },
        {
          "indexed": true,
          "internalType": "uint256",
          "name": "tokenId",
          "type": "uint256"
        }
      ],
      "name": "Approval",
      "type": "event"
    },
    {
      "anonymous": false,
      "inputs": [
        {
          "indexed": true,
          "internalType": "address",
          "name": "owner",
          "type": "address"
        },
        {
          "indexed": true,
          "internalType": "address",
          "name": "operator",
          "type": "address"
        },
        {
          "indexed": false,
          "internalType": "bool",
          "name": "approved",
          "type": "bool"
        }
      ],
      "name": "ApprovalForAll",
      "type": "event"
    },
    {
      "anonymous": false,
      "inputs": [
        {
          "indexed": true,
          "internalType": "address",
          "name": "previousOwner",
          "type": "address"
        },
        {
          "indexed": true,
          "internalType": "address",
          "name": "newOwner",
          "type": "address"
        }
      ],
      "name": "OwnershipTransferred",
      "type": "event"
    },
    {
      "anonymous": false,
      "inputs": [
        {
          "indexed": true,
          "internalType": "address",
          "name": "from",
          "type": "address"
        },
        {
          "indexed": true,
          "internalType": "address",
          "name": "to",
          "type": "address"
        },
        {
          "indexed": true,
          "internalType": "uint256",
          "name": "tokenId",
          "type": "uint256"
        }
      ],
      "name": "Transfer",
      "type": "event"
    },
    {
      "inputs": [
        {
          "internalType": "address",
          "name": "to",
          "type": "address"
        },
        {
          "internalType": "uint256",
          "name": "tokenId",
          "type": "uint256"
        }
      ],
      "name": "approve",
      "outputs": [],
      "stateMutability": "nonpayable",
      "type": "function"
    },
    {
      "inputs": [
        {
          "internalType": "address",
          "name": "owner",
          "type": "address"
        }
      ],
      "name": "balanceOf",
      "outputs": [
        {
          "internalType": "uint256",
          "name": "",
          "type": "uint256"
        }
      ],
      "stateMutability": "view",
      "type": "function"
    },
    {
      "inputs": [
        {
          "internalType": "string",
          "name": "",
          "type": "string"
        }
      ],
      "name": "existingURIs",
      "outputs": [
        {
          "internalType": "uint8",
          "name": "",
          "type": "uint8"
        }
      ],
      "stateMutability": "view",
      "type": "function"
    },
    {
      "inputs": [
        {
          "internalType": "uint256",
          "name": "tokenId",
          "type": "uint256"
        }
      ],
      "name": "getApproved",
      "outputs": [
        {
          "internalType": "address",
          "name": "",
          "type": "address"
        }
      ],
      "stateMutability": "view",
      "type": "function"
    },
    {
      "inputs": [
        {
          "internalType": "string",
          "name": "key",
          "type": "string"
        }
      ],
      "name": "getContentByKey",
      "outputs": [
        {
          "internalType": "string",
          "name": "",
          "type": "string"
        }
      ],
      "stateMutability": "view",
      "type": "function"
    },
    {
      "inputs": [
        {
          "internalType": "address",
          "name": "owner",
          "type": "address"
        },
        {
          "internalType": "address",
          "name": "operator",
          "type": "address"
        }
      ],
      "name": "isApprovedForAll",
      "outputs": [
        {
          "internalType": "bool",
          "name": "",
          "type": "bool"
        }
      ],
      "stateMutability": "view",
      "type": "function"
    },
    {
      "inputs": [
        {
          "internalType": "string",
          "name": "uri",
          "type": "string"
        }
      ],
      "name": "isContentOwned",
      "outputs": [
        {
          "internalType": "bool",
          "name": "",
          "type": "bool"
        }
      ],
      "stateMutability": "view",
      "type": "function"
    },
    {
      "inputs": [
        {
          "internalType": "address",
          "name": "recipient",
          "type": "address"
        },
        {
          "internalType": "string",
          "name": "keyId",
          "type": "string"
        },
        {
          "internalType": "string",
          "name": "note",
          "type": "string"
        }
      ],
      "name": "mintNote",
      "outputs": [
        {
          "internalType": "uint256",
          "name": "",
          "type": "uint256"
        }
      ],
      "stateMutability": "payable",
      "type": "function"
    },
    {
      "inputs": [],
      "name": "name",
      "outputs": [
        {
          "internalType": "string",
          "name": "",
          "type": "string"
        }
      ],
      "stateMutability": "view",
      "type": "function"
    },
    {
      "inputs": [],
      "name": "owner",
      "outputs": [
        {
          "internalType": "address",
          "name": "",
          "type": "address"
        }
      ],
      "stateMutability": "view",
      "type": "function"
    },
    {
      "inputs": [
        {
          "internalType": "uint256",
          "name": "tokenId",
          "type": "uint256"
        }
      ],
      "name": "ownerOf",
      "outputs": [
        {
          "internalType": "address",
          "name": "",
          "type": "address"
        }
      ],
      "stateMutability": "view",
      "type": "function"
    },
    {
      "inputs": [],
      "name": "renounceOwnership",
      "outputs": [],
      "stateMutability": "nonpayable",
      "type": "function"
    },
    {
      "inputs": [
        {
          "internalType": "address",
          "name": "to",
          "type": "address"
        },
        {
          "internalType": "string",
          "name": "uri",
          "type": "string"
        }
      ],
      "name": "safeMint",
      "outputs": [],
      "stateMutability": "nonpayable",
      "type": "function"
    },
    {
      "inputs": [
        {
          "internalType": "address",
          "name": "from",
          "type": "address"
        },
        {
          "internalType": "address",
          "name": "to",
          "type": "address"
        },
        {
          "internalType": "uint256",
          "name": "tokenId",
          "type": "uint256"
        }
      ],
      "name": "safeTransferFrom",
      "outputs": [],
      "stateMutability": "nonpayable",
      "type": "function"
    },
    {
      "inputs": [
        {
          "internalType": "address",
          "name": "from",
          "type": "address"
        },
        {
          "internalType": "address",
          "name": "to",
          "type": "address"
        },
        {
          "internalType": "uint256",
          "name": "tokenId",
          "type": "uint256"
        },
        {
          "internalType": "bytes",
          "name": "_data",
          "type": "bytes"
        }
      ],
      "name": "safeTransferFrom",
      "outputs": [],
      "stateMutability": "nonpayable",
      "type": "function"
    },
    {
      "inputs": [
        {
          "internalType": "address",
          "name": "operator",
          "type": "address"
        },
        {
          "internalType": "bool",
          "name": "approved",
          "type": "bool"
        }
      ],
      "name": "setApprovalForAll",
      "outputs": [],
      "stateMutability": "nonpayable",
      "type": "function"
    },
    {
      "inputs": [
        {
          "internalType": "string",
          "name": "",
          "type": "string"
        }
      ],
      "name": "storedNotes",
      "outputs": [
        {
          "internalType": "string",
          "name": "",
          "type": "string"
        }
      ],
      "stateMutability": "view",
      "type": "function"
    },
    {
      "inputs": [
        {
          "internalType": "bytes4",
          "name": "interfaceId",
          "type": "bytes4"
        }
      ],
      "name": "supportsInterface",
      "outputs": [
        {
          "internalType": "bool",
          "name": "",
          "type": "bool"
        }
      ],
      "stateMutability": "view",
      "type": "function"
    },
    {
      "inputs": [],
      "name": "symbol",
      "outputs": [
        {
          "internalType": "string",
          "name": "",
          "type": "string"
        }
      ],
      "stateMutability": "view",
      "type": "function"
    },
    {
      "inputs": [
        {
          "internalType": "uint256",
          "name": "tokenId",
          "type": "uint256"
        }
      ],
      "name": "tokenURI",
      "outputs": [
        {
          "internalType": "string",
          "name": "",
          "type": "string"
        }
      ],
      "stateMutability": "view",
      "type": "function"
    },
    {
      "inputs": [
        {
          "internalType": "address",
          "name": "from",
          "type": "address"
        },
        {
          "internalType": "address",
          "name": "to",
          "type": "address"
        },
        {
          "internalType": "uint256",
          "name": "tokenId",
          "type": "uint256"
        }
      ],
      "name": "transferFrom",
      "outputs": [],
      "stateMutability": "nonpayable",
      "type": "function"
    },
    {
      "inputs": [
        {
          "internalType": "address",
          "name": "newOwner",
          "type": "address"
        }
      ],
      "name": "transferOwnership",
      "outputs": [],
      "stateMutability": "nonpayable",
      "type": "function"
    }
  ],
  "bytecode": "0x60806040523480156200001157600080fd5b506040518060400160405280600981526020017f446170704e6f74657300000000000000000000000000000000000000000000008152506040518060400160405280600381526020017f4441500000000000000000000000000000000000000000000000000000000000815250816000908051906020019062000096929190620001a6565b508060019080519060200190620000af929190620001a6565b505050620000d2620000c6620000d860201b60201c565b620000e060201b60201c565b620002bb565b600033905090565b6000600760009054906101000a900473ffffffffffffffffffffffffffffffffffffffff16905081600760006101000a81548173ffffffffffffffffffffffffffffffffffffffff021916908373ffffffffffffffffffffffffffffffffffffffff1602179055508173ffffffffffffffffffffffffffffffffffffffff168173ffffffffffffffffffffffffffffffffffffffff167f8be0079c531659141344cd1fd0a4f28419497f9722a3daafe3b4186f6b6457e060405160405180910390a35050565b828054620001b49062000256565b90600052602060002090601f016020900481019282620001d8576000855562000224565b82601f10620001f357805160ff191683800117855562000224565b8280016001018555821562000224579182015b828111156200022357825182559160200191906001019062000206565b5b50905062000233919062000237565b5090565b5b808211156200025257600081600090555060010162000238565b5090565b600060028204905060018216806200026f57607f821691505b602082108114156200028657620002856200028c565b5b50919050565b7f4e487b7100000000000000000000000000000000000000000000000000000000600052602260045260246000fd5b61399180620002cb6000396000f3fe6080604052600436106101355760003560e01c806394310215116100ab578063c87b56dd1161006f578063c87b56dd1461043d578063d204c45e1461047a578063e985e9c5146104a3578063ec6cafcb146104e0578063f2fde38b1461051d578063f37971df1461054657610135565b8063943102151461035357806395d89b41146103835780639f1cabc6146103ae578063a22cb465146103eb578063b88d4fde1461041457610135565b80633b410ffe116100fd5780633b410ffe1461023157806342842e0e1461026e5780636352211e1461029757806370a08231146102d4578063715018a6146103115780638da5cb5b1461032857610135565b806301ffc9a71461013a57806306fdde0314610177578063081812fc146101a2578063095ea7b3146101df57806323b872dd14610208575b600080fd5b34801561014657600080fd5b50610161600480360381019061015c91906127d9565b610583565b60405161016e9190612cd2565b60405180910390f35b34801561018357600080fd5b5061018c610665565b6040516101999190612ced565b60405180910390f35b3480156101ae57600080fd5b506101c960048036038101906101c4919061286c565b6106f7565b6040516101d69190612c6b565b60405180910390f35b3480156101eb57600080fd5b506102066004803603810190610201919061279d565b61077c565b005b34801561021457600080fd5b5061022f600480360381019061022a91906125c4565b610894565b005b34801561023d57600080fd5b506102586004803603810190610253919061282b565b6108f4565b6040516102659190612ced565b60405180910390f35b34801561027a57600080fd5b50610295600480360381019061029091906125c4565b6109aa565b005b3480156102a357600080fd5b506102be60048036038101906102b9919061286c565b6109ca565b6040516102cb9190612c6b565b60405180910390f35b3480156102e057600080fd5b506102fb60048036038101906102f6919061255f565b610a7c565b6040516103089190612f8f565b60405180910390f35b34801561031d57600080fd5b50610326610b34565b005b34801561033457600080fd5b5061033d610bbc565b60405161034a9190612c6b565b60405180910390f35b61036d6004803603810190610368919061271e565b610be6565b60405161037a9190612f8f565b60405180910390f35b34801561038f57600080fd5b50610398610d46565b6040516103a59190612ced565b60405180910390f35b3480156103ba57600080fd5b506103d560048036038101906103d0919061282b565b610dd8565b6040516103e29190612cd2565b60405180910390f35b3480156103f757600080fd5b50610412600480360381019061040d919061268e565b610e13565b005b34801561042057600080fd5b5061043b60048036038101906104369190612613565b610e29565b005b34801561044957600080fd5b50610464600480360381019061045f919061286c565b610e8b565b6040516104719190612ced565b60405180910390f35b34801561048657600080fd5b506104a1600480360381019061049c91906126ca565b610e9d565b005b3480156104af57600080fd5b506104ca60048036038101906104c59190612588565b610f4a565b6040516104d79190612cd2565b60405180910390f35b3480156104ec57600080fd5b506105076004803603810190610502919061282b565b610fde565b6040516105149190612ced565b60405180910390f35b34801561052957600080fd5b50610544600480360381019061053f919061255f565b6111c2565b005b34801561055257600080fd5b5061056d6004803603810190610568919061282b565b6112ba565b60405161057a9190612faa565b60405180910390f35b60007f80ac58cd000000000000000000000000000000000000000000000000000000007bffffffffffffffffffffffffffffffffffffffffffffffffffffffff1916827bffffffffffffffffffffffffffffffffffffffffffffffffffffffff1916148061064e57507f5b5e139f000000000000000000000000000000000000000000000000000000007bffffffffffffffffffffffffffffffffffffffffffffffffffffffff1916827bffffffffffffffffffffffffffffffffffffffffffffffffffffffff1916145b8061065e575061065d826112f0565b5b9050919050565b6060600080546106749061320d565b80601f01602080910402602001604051908101604052809291908181526020018280546106a09061320d565b80156106ed5780601f106106c2576101008083540402835291602001916106ed565b820191906000526020600020905b8154815290600101906020018083116106d057829003601f168201915b5050505050905090565b60006107028261135a565b610741576040517f08c379a000000000000000000000000000000000000000000000000000000000815260040161073890612e8f565b60405180910390fd5b6004600083815260200190815260200160002060009054906101000a900473ffffffffffffffffffffffffffffffffffffffff169050919050565b6000610787826109ca565b90508073ffffffffffffffffffffffffffffffffffffffff168373ffffffffffffffffffffffffffffffffffffffff1614156107f8576040517f08c379a00000000000000000000000000000000000000000000000000000000081526004016107ef90612f2f565b60405180910390fd5b8073ffffffffffffffffffffffffffffffffffffffff166108176113c6565b73ffffffffffffffffffffffffffffffffffffffff1614806108465750610845816108406113c6565b610f4a565b5b610885576040517f08c379a000000000000000000000000000000000000000000000000000000000815260040161087c90612dcf565b60405180910390fd5b61088f83836113ce565b505050565b6108a561089f6113c6565b82611487565b6108e4576040517f08c379a00000000000000000000000000000000000000000000000000000000081526004016108db90612f4f565b60405180910390fd5b6108ef838383611565565b505050565b600a8180516020810182018051848252602083016020850120818352809550505050505060009150905080546109299061320d565b80601f01602080910402602001604051908101604052809291908181526020018280546109559061320d565b80156109a25780601f10610977576101008083540402835291602001916109a2565b820191906000526020600020905b81548152906001019060200180831161098557829003601f168201915b505050505081565b6109c583838360405180602001604052806000815250610e29565b505050565b6000806002600084815260200190815260200160002060009054906101000a900473ffffffffffffffffffffffffffffffffffffffff169050600073ffffffffffffffffffffffffffffffffffffffff168173ffffffffffffffffffffffffffffffffffffffff161415610a73576040517f08c379a0000000000000000000000000000000000000000000000000000000008152600401610a6a90612e0f565b60405180910390fd5b80915050919050565b60008073ffffffffffffffffffffffffffffffffffffffff168273ffffffffffffffffffffffffffffffffffffffff161415610aed576040517f08c379a0000000000000000000000000000000000000000000000000000000008152600401610ae490612def565b60405180910390fd5b600360008373ffffffffffffffffffffffffffffffffffffffff1673ffffffffffffffffffffffffffffffffffffffff168152602001908152602001600020549050919050565b610b3c6113c6565b73ffffffffffffffffffffffffffffffffffffffff16610b5a610bbc565b73ffffffffffffffffffffffffffffffffffffffff1614610bb0576040517f08c379a0000000000000000000000000000000000000000000000000000000008152600401610ba790612eaf565b60405180910390fd5b610bba60006117c1565b565b6000600760009054906101000a900473ffffffffffffffffffffffffffffffffffffffff16905090565b60006001600984604051610bfa9190612c30565b908152602001604051809103902060009054906101000a900460ff1660ff161415610c5a576040517f08c379a0000000000000000000000000000000000000000000000000000000008152600401610c5190612ecf565b60405180910390fd5b66038d7ea4c68000341015610ca4576040517f08c379a0000000000000000000000000000000000000000000000000000000008152600401610c9b90612f6f565b60405180910390fd5b6000610cb06008611887565b9050610cbc6008611895565b6001600985604051610cce9190612c30565b908152602001604051809103902060006101000a81548160ff021916908360ff16021790555082600a85604051610d059190612c30565b90815260200160405180910390209080519060200190610d26929190612383565b50610d3185826118ab565b610d3b8185611a79565b809150509392505050565b606060018054610d559061320d565b80601f0160208091040260200160405190810160405280929190818152602001828054610d819061320d565b8015610dce5780601f10610da357610100808354040283529160200191610dce565b820191906000526020600020905b815481529060010190602001808311610db157829003601f168201915b5050505050905090565b60006001600983604051610dec9190612c30565b908152602001604051809103902060009054906101000a900460ff1660ff16149050919050565b610e25610e1e6113c6565b8383611aed565b5050565b610e3a610e346113c6565b83611487565b610e79576040517f08c379a0000000000000000000000000000000000000000000000000000000008152600401610e7090612f4f565b60405180910390fd5b610e8584848484611c5a565b50505050565b6060610e9682611cb6565b9050919050565b610ea56113c6565b73ffffffffffffffffffffffffffffffffffffffff16610ec3610bbc565b73ffffffffffffffffffffffffffffffffffffffff1614610f19576040517f08c379a0000000000000000000000000000000000000000000000000000000008152600401610f1090612eaf565b60405180910390fd5b6000610f256008611887565b9050610f316008611895565b610f3b8382611e08565b610f458183611a79565b505050565b6000600560008473ffffffffffffffffffffffffffffffffffffffff1673ffffffffffffffffffffffffffffffffffffffff16815260200190815260200160002060008373ffffffffffffffffffffffffffffffffffffffff1673ffffffffffffffffffffffffffffffffffffffff16815260200190815260200160002060009054906101000a900460ff16905092915050565b606061101e6040518060400160405280600f81526020017f676574436f6e74656e7442794b65790000000000000000000000000000000000815250611e26565b61102782611e26565b6110d6600a8360405161103a9190612c30565b908152602001604051809103902080546110539061320d565b80601f016020809104026020016040519081016040528092919081815260200182805461107f9061320d565b80156110cc5780601f106110a1576101008083540402835291602001916110cc565b820191906000526020600020905b8154815290600101906020018083116110af57829003601f168201915b5050505050611e26565b6111146040518060400160405280600f81526020017f676574436f6e74656e7442794b65790000000000000000000000000000000000815250611e26565b600a826040516111249190612c30565b9081526020016040518091039020805461113d9061320d565b80601f01602080910402602001604051908101604052809291908181526020018280546111699061320d565b80156111b65780601f1061118b576101008083540402835291602001916111b6565b820191906000526020600020905b81548152906001019060200180831161119957829003601f168201915b50505050509050919050565b6111ca6113c6565b73ffffffffffffffffffffffffffffffffffffffff166111e8610bbc565b73ffffffffffffffffffffffffffffffffffffffff161461123e576040517f08c379a000000000000000000000000000000000000000000000000000000000815260040161123590612eaf565b60405180910390fd5b600073ffffffffffffffffffffffffffffffffffffffff168173ffffffffffffffffffffffffffffffffffffffff1614156112ae576040517f08c379a00000000000000000000000000000000000000000000000000000000081526004016112a590612d2f565b60405180910390fd5b6112b7816117c1565b50565b6009818051602081018201805184825260208301602085012081835280955050505050506000915054906101000a900460ff1681565b60007f01ffc9a7000000000000000000000000000000000000000000000000000000007bffffffffffffffffffffffffffffffffffffffffffffffffffffffff1916827bffffffffffffffffffffffffffffffffffffffffffffffffffffffff1916149050919050565b60008073ffffffffffffffffffffffffffffffffffffffff166002600084815260200190815260200160002060009054906101000a900473ffffffffffffffffffffffffffffffffffffffff1673ffffffffffffffffffffffffffffffffffffffff1614159050919050565b600033905090565b816004600083815260200190815260200160002060006101000a81548173ffffffffffffffffffffffffffffffffffffffff021916908373ffffffffffffffffffffffffffffffffffffffff160217905550808273ffffffffffffffffffffffffffffffffffffffff16611441836109ca565b73ffffffffffffffffffffffffffffffffffffffff167f8c5be1e5ebec7d5bd14f71427d1e84f3dd0314c0f7b2291e5b200ac8c7c3b92560405160405180910390a45050565b60006114928261135a565b6114d1576040517f08c379a00000000000000000000000000000000000000000000000000000000081526004016114c890612daf565b60405180910390fd5b60006114dc836109ca565b90508073ffffffffffffffffffffffffffffffffffffffff168473ffffffffffffffffffffffffffffffffffffffff16148061154b57508373ffffffffffffffffffffffffffffffffffffffff16611533846106f7565b73ffffffffffffffffffffffffffffffffffffffff16145b8061155c575061155b8185610f4a565b5b91505092915050565b8273ffffffffffffffffffffffffffffffffffffffff16611585826109ca565b73ffffffffffffffffffffffffffffffffffffffff16146115db576040517f08c379a00000000000000000000000000000000000000000000000000000000081526004016115d290612eef565b60405180910390fd5b600073ffffffffffffffffffffffffffffffffffffffff168273ffffffffffffffffffffffffffffffffffffffff16141561164b576040517f08c379a000000000000000000000000000000000000000000000000000000000815260040161164290612d6f565b60405180910390fd5b611656838383611ebf565b6116616000826113ce565b6001600360008573ffffffffffffffffffffffffffffffffffffffff1673ffffffffffffffffffffffffffffffffffffffff16815260200190815260200160002060008282546116b19190613116565b925050819055506001600360008473ffffffffffffffffffffffffffffffffffffffff1673ffffffffffffffffffffffffffffffffffffffff1681526020019081526020016000206000828254611708919061308f565b92505081905550816002600083815260200190815260200160002060006101000a81548173ffffffffffffffffffffffffffffffffffffffff021916908373ffffffffffffffffffffffffffffffffffffffff160217905550808273ffffffffffffffffffffffffffffffffffffffff168473ffffffffffffffffffffffffffffffffffffffff167fddf252ad1be2c89b69c2b068fc378daa952ba7f163c4a11628f55a4df523b3ef60405160405180910390a4505050565b6000600760009054906101000a900473ffffffffffffffffffffffffffffffffffffffff16905081600760006101000a81548173ffffffffffffffffffffffffffffffffffffffff021916908373ffffffffffffffffffffffffffffffffffffffff1602179055508173ffffffffffffffffffffffffffffffffffffffff168173ffffffffffffffffffffffffffffffffffffffff167f8be0079c531659141344cd1fd0a4f28419497f9722a3daafe3b4186f6b6457e060405160405180910390a35050565b600081600001549050919050565b6001816000016000828254019250508190555050565b600073ffffffffffffffffffffffffffffffffffffffff168273ffffffffffffffffffffffffffffffffffffffff16141561191b576040517f08c379a000000000000000000000000000000000000000000000000000000000815260040161191290612e4f565b60405180910390fd5b6119248161135a565b15611964576040517f08c379a000000000000000000000000000000000000000000000000000000000815260040161195b90612d4f565b60405180910390fd5b61197060008383611ebf565b6001600360008473ffffffffffffffffffffffffffffffffffffffff1673ffffffffffffffffffffffffffffffffffffffff16815260200190815260200160002060008282546119c0919061308f565b92505081905550816002600083815260200190815260200160002060006101000a81548173ffffffffffffffffffffffffffffffffffffffff021916908373ffffffffffffffffffffffffffffffffffffffff160217905550808273ffffffffffffffffffffffffffffffffffffffff16600073ffffffffffffffffffffffffffffffffffffffff167fddf252ad1be2c89b69c2b068fc378daa952ba7f163c4a11628f55a4df523b3ef60405160405180910390a45050565b611a828261135a565b611ac1576040517f08c379a0000000000000000000000000000000000000000000000000000000008152600401611ab890612e2f565b60405180910390fd5b80600660008481526020019081526020016000209080519060200190611ae8929190612383565b505050565b8173ffffffffffffffffffffffffffffffffffffffff168373ffffffffffffffffffffffffffffffffffffffff161415611b5c576040517f08c379a0000000000000000000000000000000000000000000000000000000008152600401611b5390612d8f565b60405180910390fd5b80600560008573ffffffffffffffffffffffffffffffffffffffff1673ffffffffffffffffffffffffffffffffffffffff16815260200190815260200160002060008473ffffffffffffffffffffffffffffffffffffffff1673ffffffffffffffffffffffffffffffffffffffff16815260200190815260200160002060006101000a81548160ff0219169083151502179055508173ffffffffffffffffffffffffffffffffffffffff168373ffffffffffffffffffffffffffffffffffffffff167f17307eab39ab6107e8899845ad3d59bd9653f200f220920489ca2b5937696c3183604051611c4d9190612cd2565b60405180910390a3505050565b611c65848484611565565b611c7184848484611ec4565b611cb0576040517f08c379a0000000000000000000000000000000000000000000000000000000008152600401611ca790612d0f565b60405180910390fd5b50505050565b6060611cc18261135a565b611d00576040517f08c379a0000000000000000000000000000000000000000000000000000000008152600401611cf790612e6f565b60405180910390fd5b6000600660008481526020019081526020016000208054611d209061320d565b80601f0160208091040260200160405190810160405280929190818152602001828054611d4c9061320d565b8015611d995780601f10611d6e57610100808354040283529160200191611d99565b820191906000526020600020905b815481529060010190602001808311611d7c57829003601f168201915b505050505090506000611daa61205b565b9050600081511415611dc0578192505050611e03565b600082511115611df5578082604051602001611ddd929190612c47565b60405160208183030381529060405292505050611e03565b611dfe84612098565b925050505b919050565b611e2282826040518060200160405280600081525061213f565b5050565b611ebc81604051602401611e3a9190612ced565b6040516020818303038152906040527f41304fac000000000000000000000000000000000000000000000000000000007bffffffffffffffffffffffffffffffffffffffffffffffffffffffff19166020820180517bffffffffffffffffffffffffffffffffffffffffffffffffffffffff838183161783525050505061219a565b50565b505050565b6000611ee58473ffffffffffffffffffffffffffffffffffffffff166121c3565b1561204e578373ffffffffffffffffffffffffffffffffffffffff1663150b7a02611f0e6113c6565b8786866040518563ffffffff1660e01b8152600401611f309493929190612c86565b602060405180830381600087803b158015611f4a57600080fd5b505af1925050508015611f7b57506040513d601f19601f82011682018060405250810190611f789190612802565b60015b611ffe573d8060008114611fab576040519150601f19603f3d011682016040523d82523d6000602084013e611fb0565b606091505b50600081511415611ff6576040517f08c379a0000000000000000000000000000000000000000000000000000000008152600401611fed90612d0f565b60405180910390fd5b805181602001fd5b63150b7a0260e01b7bffffffffffffffffffffffffffffffffffffffffffffffffffffffff1916817bffffffffffffffffffffffffffffffffffffffffffffffffffffffff191614915050612053565b600190505b949350505050565b60606040518060400160405280600781526020017f697066733a2f2f00000000000000000000000000000000000000000000000000815250905090565b60606120a38261135a565b6120e2576040517f08c379a00000000000000000000000000000000000000000000000000000000081526004016120d990612f0f565b60405180910390fd5b60006120ec61205b565b9050600081511161210c5760405180602001604052806000815250612137565b80612116846121d6565b604051602001612127929190612c47565b6040516020818303038152906040525b915050919050565b61214983836118ab565b6121566000848484611ec4565b612195576040517f08c379a000000000000000000000000000000000000000000000000000000000815260040161218c90612d0f565b60405180910390fd5b505050565b60008151905060006a636f6e736f6c652e6c6f679050602083016000808483855afa5050505050565b600080823b905060008111915050919050565b6060600082141561221e576040518060400160405280600181526020017f3000000000000000000000000000000000000000000000000000000000000000815250905061237e565b600082905060005b6000821461225057808061223990613270565b915050600a8261224991906130e5565b9150612226565b60008167ffffffffffffffff811115612292577f4e487b7100000000000000000000000000000000000000000000000000000000600052604160045260246000fd5b6040519080825280601f01601f1916602001820160405280156122c45781602001600182028036833780820191505090505b5090505b60008514612377576001826122dd9190613116565b9150600a856122ec91906132b9565b60306122f8919061308f565b60f81b818381518110612334577f4e487b7100000000000000000000000000000000000000000000000000000000600052603260045260246000fd5b60200101907effffffffffffffffffffffffffffffffffffffffffffffffffffffffffffff1916908160001a905350600a8561237091906130e5565b94506122c8565b8093505050505b919050565b82805461238f9061320d565b90600052602060002090601f0160209004810192826123b157600085556123f8565b82601f106123ca57805160ff19168380011785556123f8565b828001600101855582156123f8579182015b828111156123f75782518255916020019190600101906123dc565b5b5090506124059190612409565b5090565b5b8082111561242257600081600090555060010161240a565b5090565b600061243961243484612fea565b612fc5565b90508281526020810184848401111561245157600080fd5b61245c8482856131cb565b509392505050565b60006124776124728461301b565b612fc5565b90508281526020810184848401111561248f57600080fd5b61249a8482856131cb565b509392505050565b6000813590506124b1816138ff565b92915050565b6000813590506124c681613916565b92915050565b6000813590506124db8161392d565b92915050565b6000815190506124f08161392d565b92915050565b600082601f83011261250757600080fd5b8135612517848260208601612426565b91505092915050565b600082601f83011261253157600080fd5b8135612541848260208601612464565b91505092915050565b60008135905061255981613944565b92915050565b60006020828403121561257157600080fd5b600061257f848285016124a2565b91505092915050565b6000806040838503121561259b57600080fd5b60006125a9858286016124a2565b92505060206125ba858286016124a2565b9150509250929050565b6000806000606084860312156125d957600080fd5b60006125e7868287016124a2565b93505060206125f8868287016124a2565b92505060406126098682870161254a565b9150509250925092565b6000806000806080858703121561262957600080fd5b6000612637878288016124a2565b9450506020612648878288016124a2565b93505060406126598782880161254a565b925050606085013567ffffffffffffffff81111561267657600080fd5b612682878288016124f6565b91505092959194509250565b600080604083850312156126a157600080fd5b60006126af858286016124a2565b92505060206126c0858286016124b7565b9150509250929050565b600080604083850312156126dd57600080fd5b60006126eb858286016124a2565b925050602083013567ffffffffffffffff81111561270857600080fd5b61271485828601612520565b9150509250929050565b60008060006060848603121561273357600080fd5b6000612741868287016124a2565b935050602084013567ffffffffffffffff81111561275e57600080fd5b61276a86828701612520565b925050604084013567ffffffffffffffff81111561278757600080fd5b61279386828701612520565b9150509250925092565b600080604083850312156127b057600080fd5b60006127be858286016124a2565b92505060206127cf8582860161254a565b9150509250929050565b6000602082840312156127eb57600080fd5b60006127f9848285016124cc565b91505092915050565b60006020828403121561281457600080fd5b6000612822848285016124e1565b91505092915050565b60006020828403121561283d57600080fd5b600082013567ffffffffffffffff81111561285757600080fd5b61286384828501612520565b91505092915050565b60006020828403121561287e57600080fd5b600061288c8482850161254a565b91505092915050565b61289e8161314a565b82525050565b6128ad8161315c565b82525050565b60006128be8261304c565b6128c88185613062565b93506128d88185602086016131da565b6128e1816133a6565b840191505092915050565b60006128f782613057565b6129018185613073565b93506129118185602086016131da565b61291a816133a6565b840191505092915050565b600061293082613057565b61293a8185613084565b935061294a8185602086016131da565b80840191505092915050565b6000612963603283613073565b915061296e826133b7565b604082019050919050565b6000612986602683613073565b915061299182613406565b604082019050919050565b60006129a9601c83613073565b91506129b482613455565b602082019050919050565b60006129cc602483613073565b91506129d78261347e565b604082019050919050565b60006129ef601983613073565b91506129fa826134cd565b602082019050919050565b6000612a12602c83613073565b9150612a1d826134f6565b604082019050919050565b6000612a35603883613073565b9150612a4082613545565b604082019050919050565b6000612a58602a83613073565b9150612a6382613594565b604082019050919050565b6000612a7b602983613073565b9150612a86826135e3565b604082019050919050565b6000612a9e602e83613073565b9150612aa982613632565b604082019050919050565b6000612ac1602083613073565b9150612acc82613681565b602082019050919050565b6000612ae4603183613073565b9150612aef826136aa565b604082019050919050565b6000612b07602c83613073565b9150612b12826136f9565b604082019050919050565b6000612b2a602083613073565b9150612b3582613748565b602082019050919050565b6000612b4d601383613073565b9150612b5882613771565b602082019050919050565b6000612b70602983613073565b9150612b7b8261379a565b604082019050919050565b6000612b93602f83613073565b9150612b9e826137e9565b604082019050919050565b6000612bb6602183613073565b9150612bc182613838565b604082019050919050565b6000612bd9603183613073565b9150612be482613887565b604082019050919050565b6000612bfc601283613073565b9150612c07826138d6565b602082019050919050565b612c1b816131b4565b82525050565b612c2a816131be565b82525050565b6000612c3c8284612925565b915081905092915050565b6000612c538285612925565b9150612c5f8284612925565b91508190509392505050565b6000602082019050612c806000830184612895565b92915050565b6000608082019050612c9b6000830187612895565b612ca86020830186612895565b612cb56040830185612c12565b8181036060830152612cc781846128b3565b905095945050505050565b6000602082019050612ce760008301846128a4565b92915050565b60006020820190508181036000830152612d0781846128ec565b905092915050565b60006020820190508181036000830152612d2881612956565b9050919050565b60006020820190508181036000830152612d4881612979565b9050919050565b60006020820190508181036000830152612d688161299c565b9050919050565b60006020820190508181036000830152612d88816129bf565b9050919050565b60006020820190508181036000830152612da8816129e2565b9050919050565b60006020820190508181036000830152612dc881612a05565b9050919050565b60006020820190508181036000830152612de881612a28565b9050919050565b60006020820190508181036000830152612e0881612a4b565b9050919050565b60006020820190508181036000830152612e2881612a6e565b9050919050565b60006020820190508181036000830152612e4881612a91565b9050919050565b60006020820190508181036000830152612e6881612ab4565b9050919050565b60006020820190508181036000830152612e8881612ad7565b9050919050565b60006020820190508181036000830152612ea881612afa565b9050919050565b60006020820190508181036000830152612ec881612b1d565b9050919050565b60006020820190508181036000830152612ee881612b40565b9050919050565b60006020820190508181036000830152612f0881612b63565b9050919050565b60006020820190508181036000830152612f2881612b86565b9050919050565b60006020820190508181036000830152612f4881612ba9565b9050919050565b60006020820190508181036000830152612f6881612bcc565b9050919050565b60006020820190508181036000830152612f8881612bef565b9050919050565b6000602082019050612fa46000830184612c12565b92915050565b6000602082019050612fbf6000830184612c21565b92915050565b6000612fcf612fe0565b9050612fdb828261323f565b919050565b6000604051905090565b600067ffffffffffffffff82111561300557613004613377565b5b61300e826133a6565b9050602081019050919050565b600067ffffffffffffffff82111561303657613035613377565b5b61303f826133a6565b9050602081019050919050565b600081519050919050565b600081519050919050565b600082825260208201905092915050565b600082825260208201905092915050565b600081905092915050565b600061309a826131b4565b91506130a5836131b4565b9250827fffffffffffffffffffffffffffffffffffffffffffffffffffffffffffffffff038211156130da576130d96132ea565b5b828201905092915050565b60006130f0826131b4565b91506130fb836131b4565b92508261310b5761310a613319565b5b828204905092915050565b6000613121826131b4565b915061312c836131b4565b92508282101561313f5761313e6132ea565b5b828203905092915050565b600061315582613194565b9050919050565b60008115159050919050565b60007fffffffff0000000000000000000000000000000000000000000000000000000082169050919050565b600073ffffffffffffffffffffffffffffffffffffffff82169050919050565b6000819050919050565b600060ff82169050919050565b82818337600083830152505050565b60005b838110156131f85780820151818401526020810190506131dd565b83811115613207576000848401525b50505050565b6000600282049050600182168061322557607f821691505b6020821081141561323957613238613348565b5b50919050565b613248826133a6565b810181811067ffffffffffffffff8211171561326757613266613377565b5b80604052505050565b600061327b826131b4565b91507fffffffffffffffffffffffffffffffffffffffffffffffffffffffffffffffff8214156132ae576132ad6132ea565b5b600182019050919050565b60006132c4826131b4565b91506132cf836131b4565b9250826132df576132de613319565b5b828206905092915050565b7f4e487b7100000000000000000000000000000000000000000000000000000000600052601160045260246000fd5b7f4e487b7100000000000000000000000000000000000000000000000000000000600052601260045260246000fd5b7f4e487b7100000000000000000000000000000000000000000000000000000000600052602260045260246000fd5b7f4e487b7100000000000000000000000000000000000000000000000000000000600052604160045260246000fd5b6000601f19601f8301169050919050565b7f4552433732313a207472616e7366657220746f206e6f6e20455243373231526560008201527f63656976657220696d706c656d656e7465720000000000000000000000000000602082015250565b7f4f776e61626c653a206e6577206f776e657220697320746865207a65726f206160008201527f6464726573730000000000000000000000000000000000000000000000000000602082015250565b7f4552433732313a20746f6b656e20616c7265616479206d696e74656400000000600082015250565b7f4552433732313a207472616e7366657220746f20746865207a65726f2061646460008201527f7265737300000000000000000000000000000000000000000000000000000000602082015250565b7f4552433732313a20617070726f766520746f2063616c6c657200000000000000600082015250565b7f4552433732313a206f70657261746f7220717565727920666f72206e6f6e657860008201527f697374656e7420746f6b656e0000000000000000000000000000000000000000602082015250565b7f4552433732313a20617070726f76652063616c6c6572206973206e6f74206f7760008201527f6e6572206e6f7220617070726f76656420666f7220616c6c0000000000000000602082015250565b7f4552433732313a2062616c616e636520717565727920666f7220746865207a6560008201527f726f206164647265737300000000000000000000000000000000000000000000602082015250565b7f4552433732313a206f776e657220717565727920666f72206e6f6e657869737460008201527f656e7420746f6b656e0000000000000000000000000000000000000000000000602082015250565b7f45524337323155524953746f726167653a2055524920736574206f66206e6f6e60008201527f6578697374656e7420746f6b656e000000000000000000000000000000000000602082015250565b7f4552433732313a206d696e7420746f20746865207a65726f2061646472657373600082015250565b7f45524337323155524953746f726167653a2055524920717565727920666f722060008201527f6e6f6e6578697374656e7420746f6b656e000000000000000000000000000000602082015250565b7f4552433732313a20617070726f76656420717565727920666f72206e6f6e657860008201527f697374656e7420746f6b656e0000000000000000000000000000000000000000602082015250565b7f4f776e61626c653a2063616c6c6572206973206e6f7420746865206f776e6572600082015250565b7f4e6f746520416c7265616479204d696e74656400000000000000000000000000600082015250565b7f4552433732313a207472616e73666572206f6620746f6b656e2074686174206960008201527f73206e6f74206f776e0000000000000000000000000000000000000000000000602082015250565b7f4552433732314d657461646174613a2055524920717565727920666f72206e6f60008201527f6e6578697374656e7420746f6b656e0000000000000000000000000000000000602082015250565b7f4552433732313a20617070726f76616c20746f2063757272656e74206f776e6560008201527f7200000000000000000000000000000000000000000000000000000000000000602082015250565b7f4552433732313a207472616e736665722063616c6c6572206973206e6f74206f60008201527f776e6572206e6f7220617070726f766564000000000000000000000000000000602082015250565b7f53656e742066756e647320746f6f206c6f770000000000000000000000000000600082015250565b6139088161314a565b811461391357600080fd5b50565b61391f8161315c565b811461392a57600080fd5b50565b61393681613168565b811461394157600080fd5b50565b61394d816131b4565b811461395857600080fd5b5056fea26469706673582212206feca30d100aba67f2b6a3f763fed3f5fd91df224b112795ec8d669c34c142f064736f6c63430008040033",
  "linkReferences": {},
  "deployedLinkReferences": {}
}