{
  "_format": "hh-sol-artifact-1",
  "contractName": "DappNotes",
  "sourceName": "contracts/DappNotes.sol",
  "abi": [
    {
      "inputs": [],
      "stateMutability": "nonpayable",
      "type": "constructor"
    },
    {
      "anonymous": false,
      "inputs": [
        {
          "indexed": true,
          "internalType": "address",
          "name": "owner",
          "type": "address"
        },
        {
          "indexed": true,
          "internalType": "address",
          "name": "approved",
          "type": "address"
        },
        {
          "indexed": true,
          "internalType": "uint256",
          "name": "tokenId",
          "type": "uint256"
        }
      ],
      "name": "Approval",
      "type": "event"
    },
    {
      "anonymous": false,
      "inputs": [
        {
          "indexed": true,
          "internalType": "address",
          "name": "owner",
          "type": "address"
        },
        {
          "indexed": true,
          "internalType": "address",
          "name": "operator",
          "type": "address"
        },
        {
          "indexed": false,
          "internalType": "bool",
          "name": "approved",
          "type": "bool"
        }
      ],
      "name": "ApprovalForAll",
      "type": "event"
    },
    {
      "anonymous": false,
      "inputs": [
        {
          "indexed": true,
          "internalType": "address",
          "name": "previousOwner",
          "type": "address"
        },
        {
          "indexed": true,
          "internalType": "address",
          "name": "newOwner",
          "type": "address"
        }
      ],
      "name": "OwnershipTransferred",
      "type": "event"
    },
    {
      "anonymous": false,
      "inputs": [
        {
          "indexed": true,
          "internalType": "address",
          "name": "from",
          "type": "address"
        },
        {
          "indexed": true,
          "internalType": "address",
          "name": "to",
          "type": "address"
        },
        {
          "indexed": true,
          "internalType": "uint256",
          "name": "tokenId",
          "type": "uint256"
        }
      ],
      "name": "Transfer",
      "type": "event"
    },
    {
      "inputs": [
        {
          "internalType": "address",
          "name": "to",
          "type": "address"
        },
        {
          "internalType": "uint256",
          "name": "tokenId",
          "type": "uint256"
        }
      ],
      "name": "approve",
      "outputs": [],
      "stateMutability": "nonpayable",
      "type": "function"
    },
    {
      "inputs": [
        {
          "internalType": "address",
          "name": "owner",
          "type": "address"
        }
      ],
      "name": "balanceOf",
      "outputs": [
        {
          "internalType": "uint256",
          "name": "",
          "type": "uint256"
        }
      ],
      "stateMutability": "view",
      "type": "function"
    },
    {
      "inputs": [
        {
          "internalType": "uint256",
          "name": "tokenId",
          "type": "uint256"
        }
      ],
      "name": "getApproved",
      "outputs": [
        {
          "internalType": "address",
          "name": "",
          "type": "address"
        }
      ],
      "stateMutability": "view",
      "type": "function"
    },
    {
      "inputs": [
        {
          "internalType": "string",
          "name": "key",
          "type": "string"
        }
      ],
      "name": "getContentByKey",
      "outputs": [
        {
          "internalType": "uint8",
          "name": "",
          "type": "uint8"
        }
      ],
      "stateMutability": "view",
      "type": "function"
    },
    {
      "inputs": [
        {
          "internalType": "address",
          "name": "owner",
          "type": "address"
        },
        {
          "internalType": "address",
          "name": "operator",
          "type": "address"
        }
      ],
      "name": "isApprovedForAll",
      "outputs": [
        {
          "internalType": "bool",
          "name": "",
          "type": "bool"
        }
      ],
      "stateMutability": "view",
      "type": "function"
    },
    {
      "inputs": [
        {
          "internalType": "string",
          "name": "uri",
          "type": "string"
        }
      ],
      "name": "isContentOwned",
      "outputs": [
        {
          "internalType": "bool",
          "name": "",
          "type": "bool"
        }
      ],
      "stateMutability": "view",
      "type": "function"
    },
    {
      "inputs": [],
      "name": "name",
      "outputs": [
        {
          "internalType": "string",
          "name": "",
          "type": "string"
        }
      ],
      "stateMutability": "view",
      "type": "function"
    },
    {
      "inputs": [],
      "name": "owner",
      "outputs": [
        {
          "internalType": "address",
          "name": "",
          "type": "address"
        }
      ],
      "stateMutability": "view",
      "type": "function"
    },
    {
      "inputs": [
        {
          "internalType": "uint256",
          "name": "tokenId",
          "type": "uint256"
        }
      ],
      "name": "ownerOf",
      "outputs": [
        {
          "internalType": "address",
          "name": "",
          "type": "address"
        }
      ],
      "stateMutability": "view",
      "type": "function"
    },
    {
      "inputs": [
        {
          "internalType": "address",
          "name": "recipient",
          "type": "address"
        },
        {
          "internalType": "string",
          "name": "metadataURI",
          "type": "string"
        }
      ],
      "name": "payToMint",
      "outputs": [
        {
          "internalType": "uint256",
          "name": "",
          "type": "uint256"
        }
      ],
      "stateMutability": "payable",
      "type": "function"
    },
    {
      "inputs": [],
      "name": "renounceOwnership",
      "outputs": [],
      "stateMutability": "nonpayable",
      "type": "function"
    },
    {
      "inputs": [
        {
          "internalType": "address",
          "name": "to",
          "type": "address"
        },
        {
          "internalType": "string",
          "name": "uri",
          "type": "string"
        }
      ],
      "name": "safeMint",
      "outputs": [],
      "stateMutability": "nonpayable",
      "type": "function"
    },
    {
      "inputs": [
        {
          "internalType": "address",
          "name": "from",
          "type": "address"
        },
        {
          "internalType": "address",
          "name": "to",
          "type": "address"
        },
        {
          "internalType": "uint256",
          "name": "tokenId",
          "type": "uint256"
        }
      ],
      "name": "safeTransferFrom",
      "outputs": [],
      "stateMutability": "nonpayable",
      "type": "function"
    },
    {
      "inputs": [
        {
          "internalType": "address",
          "name": "from",
          "type": "address"
        },
        {
          "internalType": "address",
          "name": "to",
          "type": "address"
        },
        {
          "internalType": "uint256",
          "name": "tokenId",
          "type": "uint256"
        },
        {
          "internalType": "bytes",
          "name": "_data",
          "type": "bytes"
        }
      ],
      "name": "safeTransferFrom",
      "outputs": [],
      "stateMutability": "nonpayable",
      "type": "function"
    },
    {
      "inputs": [
        {
          "internalType": "address",
          "name": "operator",
          "type": "address"
        },
        {
          "internalType": "bool",
          "name": "approved",
          "type": "bool"
        }
      ],
      "name": "setApprovalForAll",
      "outputs": [],
      "stateMutability": "nonpayable",
      "type": "function"
    },
    {
      "inputs": [
        {
          "internalType": "bytes4",
          "name": "interfaceId",
          "type": "bytes4"
        }
      ],
      "name": "supportsInterface",
      "outputs": [
        {
          "internalType": "bool",
          "name": "",
          "type": "bool"
        }
      ],
      "stateMutability": "view",
      "type": "function"
    },
    {
      "inputs": [],
      "name": "symbol",
      "outputs": [
        {
          "internalType": "string",
          "name": "",
          "type": "string"
        }
      ],
      "stateMutability": "view",
      "type": "function"
    },
    {
      "inputs": [
        {
          "internalType": "uint256",
          "name": "tokenId",
          "type": "uint256"
        }
      ],
      "name": "tokenURI",
      "outputs": [
        {
          "internalType": "string",
          "name": "",
          "type": "string"
        }
      ],
      "stateMutability": "view",
      "type": "function"
    },
    {
      "inputs": [
        {
          "internalType": "address",
          "name": "from",
          "type": "address"
        },
        {
          "internalType": "address",
          "name": "to",
          "type": "address"
        },
        {
          "internalType": "uint256",
          "name": "tokenId",
          "type": "uint256"
        }
      ],
      "name": "transferFrom",
      "outputs": [],
      "stateMutability": "nonpayable",
      "type": "function"
    },
    {
      "inputs": [
        {
          "internalType": "address",
          "name": "newOwner",
          "type": "address"
        }
      ],
      "name": "transferOwnership",
      "outputs": [],
      "stateMutability": "nonpayable",
      "type": "function"
    }
  ],
  "bytecode": "0x60806040523480156200001157600080fd5b506040518060400160405280600981526020017f446170704e6f74657300000000000000000000000000000000000000000000008152506040518060400160405280600381526020017f4441500000000000000000000000000000000000000000000000000000000000815250816000908051906020019062000096929190620001a6565b508060019080519060200190620000af929190620001a6565b505050620000d2620000c6620000d860201b60201c565b620000e060201b60201c565b620002bb565b600033905090565b6000600760009054906101000a900473ffffffffffffffffffffffffffffffffffffffff16905081600760006101000a81548173ffffffffffffffffffffffffffffffffffffffff021916908373ffffffffffffffffffffffffffffffffffffffff1602179055508173ffffffffffffffffffffffffffffffffffffffff168173ffffffffffffffffffffffffffffffffffffffff167f8be0079c531659141344cd1fd0a4f28419497f9722a3daafe3b4186f6b6457e060405160405180910390a35050565b828054620001b49062000256565b90600052602060002090601f016020900481019282620001d8576000855562000224565b82601f10620001f357805160ff191683800117855562000224565b8280016001018555821562000224579182015b828111156200022357825182559160200191906001019062000206565b5b50905062000233919062000237565b5090565b5b808211156200025257600081600090555060010162000238565b5090565b600060028204905060018216806200026f57607f821691505b602082108114156200028657620002856200028c565b5b50919050565b7f4e487b7100000000000000000000000000000000000000000000000000000000600052602260045260246000fd5b6134f180620002cb6000396000f3fe60806040526004361061011f5760003560e01c80638da5cb5b116100a0578063c87b56dd11610064578063c87b56dd146103ea578063d204c45e14610427578063e985e9c514610450578063ec6cafcb1461048d578063f2fde38b146104ca5761011f565b80638da5cb5b1461030557806395d89b41146103305780639f1cabc61461035b578063a22cb46514610398578063b88d4fde146103c15761011f565b806342842e0e116100e757806342842e0e1461021b578063615fd9e2146102445780636352211e1461027457806370a08231146102b1578063715018a6146102ee5761011f565b806301ffc9a71461012457806306fdde0314610161578063081812fc1461018c578063095ea7b3146101c957806323b872dd146101f2575b600080fd5b34801561013057600080fd5b5061014b60048036038101906101469190612339565b6104f3565b6040516101589190612832565b60405180910390f35b34801561016d57600080fd5b506101766105d5565b604051610183919061284d565b60405180910390f35b34801561019857600080fd5b506101b360048036038101906101ae91906123cc565b610667565b6040516101c091906127cb565b60405180910390f35b3480156101d557600080fd5b506101f060048036038101906101eb91906122fd565b6106ec565b005b3480156101fe57600080fd5b50610219600480360381019061021491906121a3565b610804565b005b34801561022757600080fd5b50610242600480360381019061023d91906121a3565b610864565b005b61025e600480360381019061025991906122a9565b610884565b60405161026b9190612aef565b60405180910390f35b34801561028057600080fd5b5061029b600480360381019061029691906123cc565b6109b0565b6040516102a891906127cb565b60405180910390f35b3480156102bd57600080fd5b506102d860048036038101906102d3919061213e565b610a62565b6040516102e59190612aef565b60405180910390f35b3480156102fa57600080fd5b50610303610b1a565b005b34801561031157600080fd5b5061031a610ba2565b60405161032791906127cb565b60405180910390f35b34801561033c57600080fd5b50610345610bcc565b604051610352919061284d565b60405180910390f35b34801561036757600080fd5b50610382600480360381019061037d919061238b565b610c5e565b60405161038f9190612832565b60405180910390f35b3480156103a457600080fd5b506103bf60048036038101906103ba919061226d565b610c99565b005b3480156103cd57600080fd5b506103e860048036038101906103e391906121f2565b610caf565b005b3480156103f657600080fd5b50610411600480360381019061040c91906123cc565b610d11565b60405161041e919061284d565b60405180910390f35b34801561043357600080fd5b5061044e600480360381019061044991906122a9565b610d23565b005b34801561045c57600080fd5b5061047760048036038101906104729190612167565b610dd0565b6040516104849190612832565b60405180910390f35b34801561049957600080fd5b506104b460048036038101906104af919061238b565b610e64565b6040516104c19190612b0a565b60405180910390f35b3480156104d657600080fd5b506104f160048036038101906104ec919061213e565b610e99565b005b60007f80ac58cd000000000000000000000000000000000000000000000000000000007bffffffffffffffffffffffffffffffffffffffffffffffffffffffff1916827bffffffffffffffffffffffffffffffffffffffffffffffffffffffff191614806105be57507f5b5e139f000000000000000000000000000000000000000000000000000000007bffffffffffffffffffffffffffffffffffffffffffffffffffffffff1916827bffffffffffffffffffffffffffffffffffffffffffffffffffffffff1916145b806105ce57506105cd82610f91565b5b9050919050565b6060600080546105e490612d6d565b80601f016020809104026020016040519081016040528092919081815260200182805461061090612d6d565b801561065d5780601f106106325761010080835404028352916020019161065d565b820191906000526020600020905b81548152906001019060200180831161064057829003601f168201915b5050505050905090565b600061067282610ffb565b6106b1576040517f08c379a00000000000000000000000000000000000000000000000000000000081526004016106a8906129ef565b60405180910390fd5b6004600083815260200190815260200160002060009054906101000a900473ffffffffffffffffffffffffffffffffffffffff169050919050565b60006106f7826109b0565b90508073ffffffffffffffffffffffffffffffffffffffff168373ffffffffffffffffffffffffffffffffffffffff161415610768576040517f08c379a000000000000000000000000000000000000000000000000000000000815260040161075f90612a8f565b60405180910390fd5b8073ffffffffffffffffffffffffffffffffffffffff16610787611067565b73ffffffffffffffffffffffffffffffffffffffff1614806107b657506107b5816107b0611067565b610dd0565b5b6107f5576040517f08c379a00000000000000000000000000000000000000000000000000000000081526004016107ec9061292f565b60405180910390fd5b6107ff838361106f565b505050565b61081561080f611067565b82611128565b610854576040517f08c379a000000000000000000000000000000000000000000000000000000000815260040161084b90612aaf565b60405180910390fd5b61085f838383611206565b505050565b61087f83838360405180602001604052806000815250610caf565b505050565b600060016009836040516108989190612790565b908152602001604051809103902060009054906101000a900460ff1660ff1614156108f8576040517f08c379a00000000000000000000000000000000000000000000000000000000081526004016108ef90612a2f565b60405180910390fd5b66b1a2bc2ec50000341015610942576040517f08c379a000000000000000000000000000000000000000000000000000000000815260040161093990612acf565b60405180910390fd5b600061094e6008611462565b905061095a6008611470565b600160098460405161096c9190612790565b908152602001604051809103902060006101000a81548160ff021916908360ff16021790555061099c8482611486565b6109a68184611654565b8091505092915050565b6000806002600084815260200190815260200160002060009054906101000a900473ffffffffffffffffffffffffffffffffffffffff169050600073ffffffffffffffffffffffffffffffffffffffff168173ffffffffffffffffffffffffffffffffffffffff161415610a59576040517f08c379a0000000000000000000000000000000000000000000000000000000008152600401610a509061296f565b60405180910390fd5b80915050919050565b60008073ffffffffffffffffffffffffffffffffffffffff168273ffffffffffffffffffffffffffffffffffffffff161415610ad3576040517f08c379a0000000000000000000000000000000000000000000000000000000008152600401610aca9061294f565b60405180910390fd5b600360008373ffffffffffffffffffffffffffffffffffffffff1673ffffffffffffffffffffffffffffffffffffffff168152602001908152602001600020549050919050565b610b22611067565b73ffffffffffffffffffffffffffffffffffffffff16610b40610ba2565b73ffffffffffffffffffffffffffffffffffffffff1614610b96576040517f08c379a0000000000000000000000000000000000000000000000000000000008152600401610b8d90612a0f565b60405180910390fd5b610ba060006116c8565b565b6000600760009054906101000a900473ffffffffffffffffffffffffffffffffffffffff16905090565b606060018054610bdb90612d6d565b80601f0160208091040260200160405190810160405280929190818152602001828054610c0790612d6d565b8015610c545780601f10610c2957610100808354040283529160200191610c54565b820191906000526020600020905b815481529060010190602001808311610c3757829003601f168201915b5050505050905090565b60006001600983604051610c729190612790565b908152602001604051809103902060009054906101000a900460ff1660ff16149050919050565b610cab610ca4611067565b838361178e565b5050565b610cc0610cba611067565b83611128565b610cff576040517f08c379a0000000000000000000000000000000000000000000000000000000008152600401610cf690612aaf565b60405180910390fd5b610d0b848484846118fb565b50505050565b6060610d1c82611957565b9050919050565b610d2b611067565b73ffffffffffffffffffffffffffffffffffffffff16610d49610ba2565b73ffffffffffffffffffffffffffffffffffffffff1614610d9f576040517f08c379a0000000000000000000000000000000000000000000000000000000008152600401610d9690612a0f565b60405180910390fd5b6000610dab6008611462565b9050610db76008611470565b610dc18382611aa9565b610dcb8183611654565b505050565b6000600560008473ffffffffffffffffffffffffffffffffffffffff1673ffffffffffffffffffffffffffffffffffffffff16815260200190815260200160002060008373ffffffffffffffffffffffffffffffffffffffff1673ffffffffffffffffffffffffffffffffffffffff16815260200190815260200160002060009054906101000a900460ff16905092915050565b6000600982604051610e769190612790565b908152602001604051809103902060009054906101000a900460ff169050919050565b610ea1611067565b73ffffffffffffffffffffffffffffffffffffffff16610ebf610ba2565b73ffffffffffffffffffffffffffffffffffffffff1614610f15576040517f08c379a0000000000000000000000000000000000000000000000000000000008152600401610f0c90612a0f565b60405180910390fd5b600073ffffffffffffffffffffffffffffffffffffffff168173ffffffffffffffffffffffffffffffffffffffff161415610f85576040517f08c379a0000000000000000000000000000000000000000000000000000000008152600401610f7c9061288f565b60405180910390fd5b610f8e816116c8565b50565b60007f01ffc9a7000000000000000000000000000000000000000000000000000000007bffffffffffffffffffffffffffffffffffffffffffffffffffffffff1916827bffffffffffffffffffffffffffffffffffffffffffffffffffffffff1916149050919050565b60008073ffffffffffffffffffffffffffffffffffffffff166002600084815260200190815260200160002060009054906101000a900473ffffffffffffffffffffffffffffffffffffffff1673ffffffffffffffffffffffffffffffffffffffff1614159050919050565b600033905090565b816004600083815260200190815260200160002060006101000a81548173ffffffffffffffffffffffffffffffffffffffff021916908373ffffffffffffffffffffffffffffffffffffffff160217905550808273ffffffffffffffffffffffffffffffffffffffff166110e2836109b0565b73ffffffffffffffffffffffffffffffffffffffff167f8c5be1e5ebec7d5bd14f71427d1e84f3dd0314c0f7b2291e5b200ac8c7c3b92560405160405180910390a45050565b600061113382610ffb565b611172576040517f08c379a00000000000000000000000000000000000000000000000000000000081526004016111699061290f565b60405180910390fd5b600061117d836109b0565b90508073ffffffffffffffffffffffffffffffffffffffff168473ffffffffffffffffffffffffffffffffffffffff1614806111ec57508373ffffffffffffffffffffffffffffffffffffffff166111d484610667565b73ffffffffffffffffffffffffffffffffffffffff16145b806111fd57506111fc8185610dd0565b5b91505092915050565b8273ffffffffffffffffffffffffffffffffffffffff16611226826109b0565b73ffffffffffffffffffffffffffffffffffffffff161461127c576040517f08c379a000000000000000000000000000000000000000000000000000000000815260040161127390612a4f565b60405180910390fd5b600073ffffffffffffffffffffffffffffffffffffffff168273ffffffffffffffffffffffffffffffffffffffff1614156112ec576040517f08c379a00000000000000000000000000000000000000000000000000000000081526004016112e3906128cf565b60405180910390fd5b6112f7838383611ac7565b61130260008261106f565b6001600360008573ffffffffffffffffffffffffffffffffffffffff1673ffffffffffffffffffffffffffffffffffffffff16815260200190815260200160002060008282546113529190612c76565b925050819055506001600360008473ffffffffffffffffffffffffffffffffffffffff1673ffffffffffffffffffffffffffffffffffffffff16815260200190815260200160002060008282546113a99190612bef565b92505081905550816002600083815260200190815260200160002060006101000a81548173ffffffffffffffffffffffffffffffffffffffff021916908373ffffffffffffffffffffffffffffffffffffffff160217905550808273ffffffffffffffffffffffffffffffffffffffff168473ffffffffffffffffffffffffffffffffffffffff167fddf252ad1be2c89b69c2b068fc378daa952ba7f163c4a11628f55a4df523b3ef60405160405180910390a4505050565b600081600001549050919050565b6001816000016000828254019250508190555050565b600073ffffffffffffffffffffffffffffffffffffffff168273ffffffffffffffffffffffffffffffffffffffff1614156114f6576040517f08c379a00000000000000000000000000000000000000000000000000000000081526004016114ed906129af565b60405180910390fd5b6114ff81610ffb565b1561153f576040517f08c379a0000000000000000000000000000000000000000000000000000000008152600401611536906128af565b60405180910390fd5b61154b60008383611ac7565b6001600360008473ffffffffffffffffffffffffffffffffffffffff1673ffffffffffffffffffffffffffffffffffffffff168152602001908152602001600020600082825461159b9190612bef565b92505081905550816002600083815260200190815260200160002060006101000a81548173ffffffffffffffffffffffffffffffffffffffff021916908373ffffffffffffffffffffffffffffffffffffffff160217905550808273ffffffffffffffffffffffffffffffffffffffff16600073ffffffffffffffffffffffffffffffffffffffff167fddf252ad1be2c89b69c2b068fc378daa952ba7f163c4a11628f55a4df523b3ef60405160405180910390a45050565b61165d82610ffb565b61169c576040517f08c379a00000000000000000000000000000000000000000000000000000000081526004016116939061298f565b60405180910390fd5b806006600084815260200190815260200160002090805190602001906116c3929190611f62565b505050565b6000600760009054906101000a900473ffffffffffffffffffffffffffffffffffffffff16905081600760006101000a81548173ffffffffffffffffffffffffffffffffffffffff021916908373ffffffffffffffffffffffffffffffffffffffff1602179055508173ffffffffffffffffffffffffffffffffffffffff168173ffffffffffffffffffffffffffffffffffffffff167f8be0079c531659141344cd1fd0a4f28419497f9722a3daafe3b4186f6b6457e060405160405180910390a35050565b8173ffffffffffffffffffffffffffffffffffffffff168373ffffffffffffffffffffffffffffffffffffffff1614156117fd576040517f08c379a00000000000000000000000000000000000000000000000000000000081526004016117f4906128ef565b60405180910390fd5b80600560008573ffffffffffffffffffffffffffffffffffffffff1673ffffffffffffffffffffffffffffffffffffffff16815260200190815260200160002060008473ffffffffffffffffffffffffffffffffffffffff1673ffffffffffffffffffffffffffffffffffffffff16815260200190815260200160002060006101000a81548160ff0219169083151502179055508173ffffffffffffffffffffffffffffffffffffffff168373ffffffffffffffffffffffffffffffffffffffff167f17307eab39ab6107e8899845ad3d59bd9653f200f220920489ca2b5937696c31836040516118ee9190612832565b60405180910390a3505050565b611906848484611206565b61191284848484611acc565b611951576040517f08c379a00000000000000000000000000000000000000000000000000000000081526004016119489061286f565b60405180910390fd5b50505050565b606061196282610ffb565b6119a1576040517f08c379a0000000000000000000000000000000000000000000000000000000008152600401611998906129cf565b60405180910390fd5b60006006600084815260200190815260200160002080546119c190612d6d565b80601f01602080910402602001604051908101604052809291908181526020018280546119ed90612d6d565b8015611a3a5780601f10611a0f57610100808354040283529160200191611a3a565b820191906000526020600020905b815481529060010190602001808311611a1d57829003601f168201915b505050505090506000611a4b611c63565b9050600081511415611a61578192505050611aa4565b600082511115611a96578082604051602001611a7e9291906127a7565b60405160208183030381529060405292505050611aa4565b611a9f84611ca0565b925050505b919050565b611ac3828260405180602001604052806000815250611d47565b5050565b505050565b6000611aed8473ffffffffffffffffffffffffffffffffffffffff16611da2565b15611c56578373ffffffffffffffffffffffffffffffffffffffff1663150b7a02611b16611067565b8786866040518563ffffffff1660e01b8152600401611b3894939291906127e6565b602060405180830381600087803b158015611b5257600080fd5b505af1925050508015611b8357506040513d601f19601f82011682018060405250810190611b809190612362565b60015b611c06573d8060008114611bb3576040519150601f19603f3d011682016040523d82523d6000602084013e611bb8565b606091505b50600081511415611bfe576040517f08c379a0000000000000000000000000000000000000000000000000000000008152600401611bf59061286f565b60405180910390fd5b805181602001fd5b63150b7a0260e01b7bffffffffffffffffffffffffffffffffffffffffffffffffffffffff1916817bffffffffffffffffffffffffffffffffffffffffffffffffffffffff191614915050611c5b565b600190505b949350505050565b60606040518060400160405280600781526020017f697066733a2f2f00000000000000000000000000000000000000000000000000815250905090565b6060611cab82610ffb565b611cea576040517f08c379a0000000000000000000000000000000000000000000000000000000008152600401611ce190612a6f565b60405180910390fd5b6000611cf4611c63565b90506000815111611d145760405180602001604052806000815250611d3f565b80611d1e84611db5565b604051602001611d2f9291906127a7565b6040516020818303038152906040525b915050919050565b611d518383611486565b611d5e6000848484611acc565b611d9d576040517f08c379a0000000000000000000000000000000000000000000000000000000008152600401611d949061286f565b60405180910390fd5b505050565b600080823b905060008111915050919050565b60606000821415611dfd576040518060400160405280600181526020017f30000000000000000000000000000000000000000000000000000000000000008152509050611f5d565b600082905060005b60008214611e2f578080611e1890612dd0565b915050600a82611e289190612c45565b9150611e05565b60008167ffffffffffffffff811115611e71577f4e487b7100000000000000000000000000000000000000000000000000000000600052604160045260246000fd5b6040519080825280601f01601f191660200182016040528015611ea35781602001600182028036833780820191505090505b5090505b60008514611f5657600182611ebc9190612c76565b9150600a85611ecb9190612e19565b6030611ed79190612bef565b60f81b818381518110611f13577f4e487b7100000000000000000000000000000000000000000000000000000000600052603260045260246000fd5b60200101907effffffffffffffffffffffffffffffffffffffffffffffffffffffffffffff1916908160001a905350600a85611f4f9190612c45565b9450611ea7565b8093505050505b919050565b828054611f6e90612d6d565b90600052602060002090601f016020900481019282611f905760008555611fd7565b82601f10611fa957805160ff1916838001178555611fd7565b82800160010185558215611fd7579182015b82811115611fd6578251825591602001919060010190611fbb565b5b509050611fe49190611fe8565b5090565b5b80821115612001576000816000905550600101611fe9565b5090565b600061201861201384612b4a565b612b25565b90508281526020810184848401111561203057600080fd5b61203b848285612d2b565b509392505050565b600061205661205184612b7b565b612b25565b90508281526020810184848401111561206e57600080fd5b612079848285612d2b565b509392505050565b6000813590506120908161345f565b92915050565b6000813590506120a581613476565b92915050565b6000813590506120ba8161348d565b92915050565b6000815190506120cf8161348d565b92915050565b600082601f8301126120e657600080fd5b81356120f6848260208601612005565b91505092915050565b600082601f83011261211057600080fd5b8135612120848260208601612043565b91505092915050565b600081359050612138816134a4565b92915050565b60006020828403121561215057600080fd5b600061215e84828501612081565b91505092915050565b6000806040838503121561217a57600080fd5b600061218885828601612081565b925050602061219985828601612081565b9150509250929050565b6000806000606084860312156121b857600080fd5b60006121c686828701612081565b93505060206121d786828701612081565b92505060406121e886828701612129565b9150509250925092565b6000806000806080858703121561220857600080fd5b600061221687828801612081565b945050602061222787828801612081565b935050604061223887828801612129565b925050606085013567ffffffffffffffff81111561225557600080fd5b612261878288016120d5565b91505092959194509250565b6000806040838503121561228057600080fd5b600061228e85828601612081565b925050602061229f85828601612096565b9150509250929050565b600080604083850312156122bc57600080fd5b60006122ca85828601612081565b925050602083013567ffffffffffffffff8111156122e757600080fd5b6122f3858286016120ff565b9150509250929050565b6000806040838503121561231057600080fd5b600061231e85828601612081565b925050602061232f85828601612129565b9150509250929050565b60006020828403121561234b57600080fd5b6000612359848285016120ab565b91505092915050565b60006020828403121561237457600080fd5b6000612382848285016120c0565b91505092915050565b60006020828403121561239d57600080fd5b600082013567ffffffffffffffff8111156123b757600080fd5b6123c3848285016120ff565b91505092915050565b6000602082840312156123de57600080fd5b60006123ec84828501612129565b91505092915050565b6123fe81612caa565b82525050565b61240d81612cbc565b82525050565b600061241e82612bac565b6124288185612bc2565b9350612438818560208601612d3a565b61244181612f06565b840191505092915050565b600061245782612bb7565b6124618185612bd3565b9350612471818560208601612d3a565b61247a81612f06565b840191505092915050565b600061249082612bb7565b61249a8185612be4565b93506124aa818560208601612d3a565b80840191505092915050565b60006124c3603283612bd3565b91506124ce82612f17565b604082019050919050565b60006124e6602683612bd3565b91506124f182612f66565b604082019050919050565b6000612509601c83612bd3565b915061251482612fb5565b602082019050919050565b600061252c602483612bd3565b915061253782612fde565b604082019050919050565b600061254f601983612bd3565b915061255a8261302d565b602082019050919050565b6000612572602c83612bd3565b915061257d82613056565b604082019050919050565b6000612595603883612bd3565b91506125a0826130a5565b604082019050919050565b60006125b8602a83612bd3565b91506125c3826130f4565b604082019050919050565b60006125db602983612bd3565b91506125e682613143565b604082019050919050565b60006125fe602e83612bd3565b915061260982613192565b604082019050919050565b6000612621602083612bd3565b915061262c826131e1565b602082019050919050565b6000612644603183612bd3565b915061264f8261320a565b604082019050919050565b6000612667602c83612bd3565b915061267282613259565b604082019050919050565b600061268a602083612bd3565b9150612695826132a8565b602082019050919050565b60006126ad601383612bd3565b91506126b8826132d1565b602082019050919050565b60006126d0602983612bd3565b91506126db826132fa565b604082019050919050565b60006126f3602f83612bd3565b91506126fe82613349565b604082019050919050565b6000612716602183612bd3565b915061272182613398565b604082019050919050565b6000612739603183612bd3565b9150612744826133e7565b604082019050919050565b600061275c601283612bd3565b915061276782613436565b602082019050919050565b61277b81612d14565b82525050565b61278a81612d1e565b82525050565b600061279c8284612485565b915081905092915050565b60006127b38285612485565b91506127bf8284612485565b91508190509392505050565b60006020820190506127e060008301846123f5565b92915050565b60006080820190506127fb60008301876123f5565b61280860208301866123f5565b6128156040830185612772565b81810360608301526128278184612413565b905095945050505050565b60006020820190506128476000830184612404565b92915050565b60006020820190508181036000830152612867818461244c565b905092915050565b60006020820190508181036000830152612888816124b6565b9050919050565b600060208201905081810360008301526128a8816124d9565b9050919050565b600060208201905081810360008301526128c8816124fc565b9050919050565b600060208201905081810360008301526128e88161251f565b9050919050565b6000602082019050818103600083015261290881612542565b9050919050565b6000602082019050818103600083015261292881612565565b9050919050565b6000602082019050818103600083015261294881612588565b9050919050565b60006020820190508181036000830152612968816125ab565b9050919050565b60006020820190508181036000830152612988816125ce565b9050919050565b600060208201905081810360008301526129a8816125f1565b9050919050565b600060208201905081810360008301526129c881612614565b9050919050565b600060208201905081810360008301526129e881612637565b9050919050565b60006020820190508181036000830152612a088161265a565b9050919050565b60006020820190508181036000830152612a288161267d565b9050919050565b60006020820190508181036000830152612a48816126a0565b9050919050565b60006020820190508181036000830152612a68816126c3565b9050919050565b60006020820190508181036000830152612a88816126e6565b9050919050565b60006020820190508181036000830152612aa881612709565b9050919050565b60006020820190508181036000830152612ac88161272c565b9050919050565b60006020820190508181036000830152612ae88161274f565b9050919050565b6000602082019050612b046000830184612772565b92915050565b6000602082019050612b1f6000830184612781565b92915050565b6000612b2f612b40565b9050612b3b8282612d9f565b919050565b6000604051905090565b600067ffffffffffffffff821115612b6557612b64612ed7565b5b612b6e82612f06565b9050602081019050919050565b600067ffffffffffffffff821115612b9657612b95612ed7565b5b612b9f82612f06565b9050602081019050919050565b600081519050919050565b600081519050919050565b600082825260208201905092915050565b600082825260208201905092915050565b600081905092915050565b6000612bfa82612d14565b9150612c0583612d14565b9250827fffffffffffffffffffffffffffffffffffffffffffffffffffffffffffffffff03821115612c3a57612c39612e4a565b5b828201905092915050565b6000612c5082612d14565b9150612c5b83612d14565b925082612c6b57612c6a612e79565b5b828204905092915050565b6000612c8182612d14565b9150612c8c83612d14565b925082821015612c9f57612c9e612e4a565b5b828203905092915050565b6000612cb582612cf4565b9050919050565b60008115159050919050565b60007fffffffff0000000000000000000000000000000000000000000000000000000082169050919050565b600073ffffffffffffffffffffffffffffffffffffffff82169050919050565b6000819050919050565b600060ff82169050919050565b82818337600083830152505050565b60005b83811015612d58578082015181840152602081019050612d3d565b83811115612d67576000848401525b50505050565b60006002820490506001821680612d8557607f821691505b60208210811415612d9957612d98612ea8565b5b50919050565b612da882612f06565b810181811067ffffffffffffffff82111715612dc757612dc6612ed7565b5b80604052505050565b6000612ddb82612d14565b91507fffffffffffffffffffffffffffffffffffffffffffffffffffffffffffffffff821415612e0e57612e0d612e4a565b5b600182019050919050565b6000612e2482612d14565b9150612e2f83612d14565b925082612e3f57612e3e612e79565b5b828206905092915050565b7f4e487b7100000000000000000000000000000000000000000000000000000000600052601160045260246000fd5b7f4e487b7100000000000000000000000000000000000000000000000000000000600052601260045260246000fd5b7f4e487b7100000000000000000000000000000000000000000000000000000000600052602260045260246000fd5b7f4e487b7100000000000000000000000000000000000000000000000000000000600052604160045260246000fd5b6000601f19601f8301169050919050565b7f4552433732313a207472616e7366657220746f206e6f6e20455243373231526560008201527f63656976657220696d706c656d656e7465720000000000000000000000000000602082015250565b7f4f776e61626c653a206e6577206f776e657220697320746865207a65726f206160008201527f6464726573730000000000000000000000000000000000000000000000000000602082015250565b7f4552433732313a20746f6b656e20616c7265616479206d696e74656400000000600082015250565b7f4552433732313a207472616e7366657220746f20746865207a65726f2061646460008201527f7265737300000000000000000000000000000000000000000000000000000000602082015250565b7f4552433732313a20617070726f766520746f2063616c6c657200000000000000600082015250565b7f4552433732313a206f70657261746f7220717565727920666f72206e6f6e657860008201527f697374656e7420746f6b656e0000000000000000000000000000000000000000602082015250565b7f4552433732313a20617070726f76652063616c6c6572206973206e6f74206f7760008201527f6e6572206e6f7220617070726f76656420666f7220616c6c0000000000000000602082015250565b7f4552433732313a2062616c616e636520717565727920666f7220746865207a6560008201527f726f206164647265737300000000000000000000000000000000000000000000602082015250565b7f4552433732313a206f776e657220717565727920666f72206e6f6e657869737460008201527f656e7420746f6b656e0000000000000000000000000000000000000000000000602082015250565b7f45524337323155524953746f726167653a2055524920736574206f66206e6f6e60008201527f6578697374656e7420746f6b656e000000000000000000000000000000000000602082015250565b7f4552433732313a206d696e7420746f20746865207a65726f2061646472657373600082015250565b7f45524337323155524953746f726167653a2055524920717565727920666f722060008201527f6e6f6e6578697374656e7420746f6b656e000000000000000000000000000000602082015250565b7f4552433732313a20617070726f76656420717565727920666f72206e6f6e657860008201527f697374656e7420746f6b656e0000000000000000000000000000000000000000602082015250565b7f4f776e61626c653a2063616c6c6572206973206e6f7420746865206f776e6572600082015250565b7f4e6f746520416c7265616479204d696e74656400000000000000000000000000600082015250565b7f4552433732313a207472616e73666572206f6620746f6b656e2074686174206960008201527f73206e6f74206f776e0000000000000000000000000000000000000000000000602082015250565b7f4552433732314d657461646174613a2055524920717565727920666f72206e6f60008201527f6e6578697374656e7420746f6b656e0000000000000000000000000000000000602082015250565b7f4552433732313a20617070726f76616c20746f2063757272656e74206f776e6560008201527f7200000000000000000000000000000000000000000000000000000000000000602082015250565b7f4552433732313a207472616e736665722063616c6c6572206973206e6f74206f60008201527f776e6572206e6f7220617070726f766564000000000000000000000000000000602082015250565b7f53656e742066756e647320746f6f206c6f770000000000000000000000000000600082015250565b61346881612caa565b811461347357600080fd5b50565b61347f81612cbc565b811461348a57600080fd5b50565b61349681612cc8565b81146134a157600080fd5b50565b6134ad81612d14565b81146134b857600080fd5b5056fea26469706673582212203f406b4af5893fa23d5eaebb18791ba22081bf32eecfe320fdcca609c22125c364736f6c63430008040033",
  "linkReferences": {},
  "deployedLinkReferences": {}
}