{
  "_format": "hh-sol-artifact-1",
  "contractName": "DappNotes",
  "sourceName": "contracts/DappNotes.sol",
  "abi": [
    {
      "inputs": [],
      "stateMutability": "nonpayable",
      "type": "constructor"
    },
    {
      "anonymous": false,
      "inputs": [
        {
          "indexed": true,
          "internalType": "address",
          "name": "owner",
          "type": "address"
        },
        {
          "indexed": true,
          "internalType": "address",
          "name": "approved",
          "type": "address"
        },
        {
          "indexed": true,
          "internalType": "uint256",
          "name": "tokenId",
          "type": "uint256"
        }
      ],
      "name": "Approval",
      "type": "event"
    },
    {
      "anonymous": false,
      "inputs": [
        {
          "indexed": true,
          "internalType": "address",
          "name": "owner",
          "type": "address"
        },
        {
          "indexed": true,
          "internalType": "address",
          "name": "operator",
          "type": "address"
        },
        {
          "indexed": false,
          "internalType": "bool",
          "name": "approved",
          "type": "bool"
        }
      ],
      "name": "ApprovalForAll",
      "type": "event"
    },
    {
      "anonymous": false,
      "inputs": [
        {
          "indexed": true,
          "internalType": "address",
          "name": "previousOwner",
          "type": "address"
        },
        {
          "indexed": true,
          "internalType": "address",
          "name": "newOwner",
          "type": "address"
        }
      ],
      "name": "OwnershipTransferred",
      "type": "event"
    },
    {
      "anonymous": false,
      "inputs": [
        {
          "indexed": true,
          "internalType": "address",
          "name": "from",
          "type": "address"
        },
        {
          "indexed": true,
          "internalType": "address",
          "name": "to",
          "type": "address"
        },
        {
          "indexed": true,
          "internalType": "uint256",
          "name": "tokenId",
          "type": "uint256"
        }
      ],
      "name": "Transfer",
      "type": "event"
    },
    {
      "inputs": [
        {
          "internalType": "address",
          "name": "to",
          "type": "address"
        },
        {
          "internalType": "uint256",
          "name": "tokenId",
          "type": "uint256"
        }
      ],
      "name": "approve",
      "outputs": [],
      "stateMutability": "nonpayable",
      "type": "function"
    },
    {
      "inputs": [
        {
          "internalType": "address",
          "name": "owner",
          "type": "address"
        }
      ],
      "name": "balanceOf",
      "outputs": [
        {
          "internalType": "uint256",
          "name": "",
          "type": "uint256"
        }
      ],
      "stateMutability": "view",
      "type": "function"
    },
    {
      "inputs": [
        {
          "internalType": "string",
          "name": "",
          "type": "string"
        }
      ],
      "name": "existingURIs",
      "outputs": [
        {
          "internalType": "uint8",
          "name": "",
          "type": "uint8"
        }
      ],
      "stateMutability": "view",
      "type": "function"
    },
    {
      "inputs": [
        {
          "internalType": "uint256",
          "name": "tokenId",
          "type": "uint256"
        }
      ],
      "name": "getApproved",
      "outputs": [
        {
          "internalType": "address",
          "name": "",
          "type": "address"
        }
      ],
      "stateMutability": "view",
      "type": "function"
    },
    {
      "inputs": [
        {
          "internalType": "string",
          "name": "key",
          "type": "string"
        }
      ],
      "name": "getContentByKey",
      "outputs": [
        {
          "internalType": "string",
          "name": "",
          "type": "string"
        }
      ],
      "stateMutability": "view",
      "type": "function"
    },
    {
      "inputs": [
        {
          "internalType": "address",
          "name": "owner",
          "type": "address"
        },
        {
          "internalType": "address",
          "name": "operator",
          "type": "address"
        }
      ],
      "name": "isApprovedForAll",
      "outputs": [
        {
          "internalType": "bool",
          "name": "",
          "type": "bool"
        }
      ],
      "stateMutability": "view",
      "type": "function"
    },
    {
      "inputs": [
        {
          "internalType": "string",
          "name": "uri",
          "type": "string"
        }
      ],
      "name": "isContentOwned",
      "outputs": [
        {
          "internalType": "bool",
          "name": "",
          "type": "bool"
        }
      ],
      "stateMutability": "view",
      "type": "function"
    },
    {
      "inputs": [
        {
          "internalType": "address",
          "name": "recipient",
          "type": "address"
        },
        {
          "internalType": "string",
          "name": "keyId",
          "type": "string"
        },
        {
          "internalType": "string",
          "name": "note",
          "type": "string"
        }
      ],
      "name": "mintNote",
      "outputs": [
        {
          "internalType": "uint256",
          "name": "",
          "type": "uint256"
        }
      ],
      "stateMutability": "payable",
      "type": "function"
    },
    {
      "inputs": [],
      "name": "name",
      "outputs": [
        {
          "internalType": "string",
          "name": "",
          "type": "string"
        }
      ],
      "stateMutability": "view",
      "type": "function"
    },
    {
      "inputs": [],
      "name": "owner",
      "outputs": [
        {
          "internalType": "address",
          "name": "",
          "type": "address"
        }
      ],
      "stateMutability": "view",
      "type": "function"
    },
    {
      "inputs": [
        {
          "internalType": "uint256",
          "name": "tokenId",
          "type": "uint256"
        }
      ],
      "name": "ownerOf",
      "outputs": [
        {
          "internalType": "address",
          "name": "",
          "type": "address"
        }
      ],
      "stateMutability": "view",
      "type": "function"
    },
    {
      "inputs": [],
      "name": "renounceOwnership",
      "outputs": [],
      "stateMutability": "nonpayable",
      "type": "function"
    },
    {
      "inputs": [
        {
          "internalType": "address",
          "name": "to",
          "type": "address"
        },
        {
          "internalType": "string",
          "name": "uri",
          "type": "string"
        }
      ],
      "name": "safeMint",
      "outputs": [],
      "stateMutability": "nonpayable",
      "type": "function"
    },
    {
      "inputs": [
        {
          "internalType": "address",
          "name": "from",
          "type": "address"
        },
        {
          "internalType": "address",
          "name": "to",
          "type": "address"
        },
        {
          "internalType": "uint256",
          "name": "tokenId",
          "type": "uint256"
        }
      ],
      "name": "safeTransferFrom",
      "outputs": [],
      "stateMutability": "nonpayable",
      "type": "function"
    },
    {
      "inputs": [
        {
          "internalType": "address",
          "name": "from",
          "type": "address"
        },
        {
          "internalType": "address",
          "name": "to",
          "type": "address"
        },
        {
          "internalType": "uint256",
          "name": "tokenId",
          "type": "uint256"
        },
        {
          "internalType": "bytes",
          "name": "_data",
          "type": "bytes"
        }
      ],
      "name": "safeTransferFrom",
      "outputs": [],
      "stateMutability": "nonpayable",
      "type": "function"
    },
    {
      "inputs": [
        {
          "internalType": "address",
          "name": "operator",
          "type": "address"
        },
        {
          "internalType": "bool",
          "name": "approved",
          "type": "bool"
        }
      ],
      "name": "setApprovalForAll",
      "outputs": [],
      "stateMutability": "nonpayable",
      "type": "function"
    },
    {
      "inputs": [
        {
          "internalType": "string",
          "name": "",
          "type": "string"
        }
      ],
      "name": "storedNotes",
      "outputs": [
        {
          "internalType": "string",
          "name": "",
          "type": "string"
        }
      ],
      "stateMutability": "view",
      "type": "function"
    },
    {
      "inputs": [
        {
          "internalType": "bytes4",
          "name": "interfaceId",
          "type": "bytes4"
        }
      ],
      "name": "supportsInterface",
      "outputs": [
        {
          "internalType": "bool",
          "name": "",
          "type": "bool"
        }
      ],
      "stateMutability": "view",
      "type": "function"
    },
    {
      "inputs": [],
      "name": "symbol",
      "outputs": [
        {
          "internalType": "string",
          "name": "",
          "type": "string"
        }
      ],
      "stateMutability": "view",
      "type": "function"
    },
    {
      "inputs": [
        {
          "internalType": "uint256",
          "name": "tokenId",
          "type": "uint256"
        }
      ],
      "name": "tokenURI",
      "outputs": [
        {
          "internalType": "string",
          "name": "",
          "type": "string"
        }
      ],
      "stateMutability": "view",
      "type": "function"
    },
    {
      "inputs": [
        {
          "internalType": "address",
          "name": "from",
          "type": "address"
        },
        {
          "internalType": "address",
          "name": "to",
          "type": "address"
        },
        {
          "internalType": "uint256",
          "name": "tokenId",
          "type": "uint256"
        }
      ],
      "name": "transferFrom",
      "outputs": [],
      "stateMutability": "nonpayable",
      "type": "function"
    },
    {
      "inputs": [
        {
          "internalType": "address",
          "name": "newOwner",
          "type": "address"
        }
      ],
      "name": "transferOwnership",
      "outputs": [],
      "stateMutability": "nonpayable",
      "type": "function"
    },
    {
      "inputs": [],
      "name": "withdraw",
      "outputs": [],
      "stateMutability": "nonpayable",
      "type": "function"
    }
  ],
  "bytecode": "0x60806040523480156200001157600080fd5b506040518060400160405280600981526020017f446170704e6f74657300000000000000000000000000000000000000000000008152506040518060400160405280600381526020017f4441500000000000000000000000000000000000000000000000000000000000815250816000908051906020019062000096929190620001a6565b508060019080519060200190620000af929190620001a6565b505050620000d2620000c6620000d860201b60201c565b620000e060201b60201c565b620002bb565b600033905090565b6000600760009054906101000a900473ffffffffffffffffffffffffffffffffffffffff16905081600760006101000a81548173ffffffffffffffffffffffffffffffffffffffff021916908373ffffffffffffffffffffffffffffffffffffffff1602179055508173ffffffffffffffffffffffffffffffffffffffff168173ffffffffffffffffffffffffffffffffffffffff167f8be0079c531659141344cd1fd0a4f28419497f9722a3daafe3b4186f6b6457e060405160405180910390a35050565b828054620001b49062000256565b90600052602060002090601f016020900481019282620001d8576000855562000224565b82601f10620001f357805160ff191683800117855562000224565b8280016001018555821562000224579182015b828111156200022357825182559160200191906001019062000206565b5b50905062000233919062000237565b5090565b5b808211156200025257600081600090555060010162000238565b5090565b600060028204905060018216806200026f57607f821691505b602082108114156200028657620002856200028c565b5b50919050565b7f4e487b7100000000000000000000000000000000000000000000000000000000600052602260045260246000fd5b613bca80620002cb6000396000f3fe6080604052600436106101405760003560e01c80638da5cb5b116100b6578063c87b56dd1161006f578063c87b56dd1461045f578063d204c45e1461049c578063e985e9c5146104c5578063ec6cafcb14610502578063f2fde38b1461053f578063f37971df1461056857610140565b80638da5cb5b1461034a578063943102151461037557806395d89b41146103a55780639f1cabc6146103d0578063a22cb4651461040d578063b88d4fde1461043657610140565b80633b410ffe116101085780633b410ffe1461023c5780633ccfd60b1461027957806342842e0e146102905780636352211e146102b957806370a08231146102f6578063715018a61461033357610140565b806301ffc9a71461014557806306fdde0314610182578063081812fc146101ad578063095ea7b3146101ea57806323b872dd14610213575b600080fd5b34801561015157600080fd5b5061016c60048036038101906101679190612a12565b6105a5565b6040516101799190612f0b565b60405180910390f35b34801561018e57600080fd5b50610197610687565b6040516101a49190612f26565b60405180910390f35b3480156101b957600080fd5b506101d460048036038101906101cf9190612aa5565b610719565b6040516101e19190612ea4565b60405180910390f35b3480156101f657600080fd5b50610211600480360381019061020c91906129d6565b61079e565b005b34801561021f57600080fd5b5061023a600480360381019061023591906127fd565b6108b6565b005b34801561024857600080fd5b50610263600480360381019061025e9190612a64565b610916565b6040516102709190612f26565b60405180910390f35b34801561028557600080fd5b5061028e6109cc565b005b34801561029c57600080fd5b506102b760048036038101906102b291906127fd565b610ab1565b005b3480156102c557600080fd5b506102e060048036038101906102db9190612aa5565b610ad1565b6040516102ed9190612ea4565b60405180910390f35b34801561030257600080fd5b5061031d60048036038101906103189190612798565b610b83565b60405161032a91906131c8565b60405180910390f35b34801561033f57600080fd5b50610348610c3b565b005b34801561035657600080fd5b5061035f610cc3565b60405161036c9190612ea4565b60405180910390f35b61038f600480360381019061038a9190612957565b610ced565b60405161039c91906131c8565b60405180910390f35b3480156103b157600080fd5b506103ba610e4d565b6040516103c79190612f26565b60405180910390f35b3480156103dc57600080fd5b506103f760048036038101906103f29190612a64565b610edf565b6040516104049190612f0b565b60405180910390f35b34801561041957600080fd5b50610434600480360381019061042f91906128c7565b610f1a565b005b34801561044257600080fd5b5061045d6004803603810190610458919061284c565b610f30565b005b34801561046b57600080fd5b5061048660048036038101906104819190612aa5565b610f92565b6040516104939190612f26565b60405180910390f35b3480156104a857600080fd5b506104c360048036038101906104be9190612903565b610fa4565b005b3480156104d157600080fd5b506104ec60048036038101906104e791906127c1565b611051565b6040516104f99190612f0b565b60405180910390f35b34801561050e57600080fd5b5061052960048036038101906105249190612a64565b6110e5565b6040516105369190612f26565b60405180910390f35b34801561054b57600080fd5b5061056660048036038101906105619190612798565b6112c9565b005b34801561057457600080fd5b5061058f600480360381019061058a9190612a64565b6113c1565b60405161059c91906131e3565b60405180910390f35b60007f80ac58cd000000000000000000000000000000000000000000000000000000007bffffffffffffffffffffffffffffffffffffffffffffffffffffffff1916827bffffffffffffffffffffffffffffffffffffffffffffffffffffffff1916148061067057507f5b5e139f000000000000000000000000000000000000000000000000000000007bffffffffffffffffffffffffffffffffffffffffffffffffffffffff1916827bffffffffffffffffffffffffffffffffffffffffffffffffffffffff1916145b80610680575061067f826113f7565b5b9050919050565b60606000805461069690613446565b80601f01602080910402602001604051908101604052809291908181526020018280546106c290613446565b801561070f5780601f106106e45761010080835404028352916020019161070f565b820191906000526020600020905b8154815290600101906020018083116106f257829003601f168201915b5050505050905090565b600061072482611461565b610763576040517f08c379a000000000000000000000000000000000000000000000000000000000815260040161075a906130c8565b60405180910390fd5b6004600083815260200190815260200160002060009054906101000a900473ffffffffffffffffffffffffffffffffffffffff169050919050565b60006107a982610ad1565b90508073ffffffffffffffffffffffffffffffffffffffff168373ffffffffffffffffffffffffffffffffffffffff16141561081a576040517f08c379a000000000000000000000000000000000000000000000000000000000815260040161081190613168565b60405180910390fd5b8073ffffffffffffffffffffffffffffffffffffffff166108396114cd565b73ffffffffffffffffffffffffffffffffffffffff1614806108685750610867816108626114cd565b611051565b5b6108a7576040517f08c379a000000000000000000000000000000000000000000000000000000000815260040161089e90613008565b60405180910390fd5b6108b183836114d5565b505050565b6108c76108c16114cd565b8261158e565b610906576040517f08c379a00000000000000000000000000000000000000000000000000000000081526004016108fd90613188565b60405180910390fd5b61091183838361166c565b505050565b600a81805160208101820180518482526020830160208501208183528095505050505050600091509050805461094b90613446565b80601f016020809104026020016040519081016040528092919081815260200182805461097790613446565b80156109c45780601f10610999576101008083540402835291602001916109c4565b820191906000526020600020905b8154815290600101906020018083116109a757829003601f168201915b505050505081565b610a0a6040518060400160405280600881526020017f77697468647261770000000000000000000000000000000000000000000000008152506118c8565b610a1a610a15610cc3565b611961565b610a23476119fa565b610a2b610cc3565b73ffffffffffffffffffffffffffffffffffffffff166108fc479081150290604051600060405180830381858888f19350505050158015610a70573d6000803e3d6000fd5b50610aaf6040518060400160405280600881526020017f77697468647261770000000000000000000000000000000000000000000000008152506118c8565b565b610acc83838360405180602001604052806000815250610f30565b505050565b6000806002600084815260200190815260200160002060009054906101000a900473ffffffffffffffffffffffffffffffffffffffff169050600073ffffffffffffffffffffffffffffffffffffffff168173ffffffffffffffffffffffffffffffffffffffff161415610b7a576040517f08c379a0000000000000000000000000000000000000000000000000000000008152600401610b7190613048565b60405180910390fd5b80915050919050565b60008073ffffffffffffffffffffffffffffffffffffffff168273ffffffffffffffffffffffffffffffffffffffff161415610bf4576040517f08c379a0000000000000000000000000000000000000000000000000000000008152600401610beb90613028565b60405180910390fd5b600360008373ffffffffffffffffffffffffffffffffffffffff1673ffffffffffffffffffffffffffffffffffffffff168152602001908152602001600020549050919050565b610c436114cd565b73ffffffffffffffffffffffffffffffffffffffff16610c61610cc3565b73ffffffffffffffffffffffffffffffffffffffff1614610cb7576040517f08c379a0000000000000000000000000000000000000000000000000000000008152600401610cae906130e8565b60405180910390fd5b610cc16000611a93565b565b6000600760009054906101000a900473ffffffffffffffffffffffffffffffffffffffff16905090565b60006001600984604051610d019190612e69565b908152602001604051809103902060009054906101000a900460ff1660ff161415610d61576040517f08c379a0000000000000000000000000000000000000000000000000000000008152600401610d5890613108565b60405180910390fd5b66038d7ea4c68000341015610dab576040517f08c379a0000000000000000000000000000000000000000000000000000000008152600401610da2906131a8565b60405180910390fd5b6000610db76008611b59565b9050610dc36008611b67565b6001600985604051610dd59190612e69565b908152602001604051809103902060006101000a81548160ff021916908360ff16021790555082600a85604051610e0c9190612e69565b90815260200160405180910390209080519060200190610e2d9291906125bc565b50610e388582611b7d565b610e428185611d4b565b809150509392505050565b606060018054610e5c90613446565b80601f0160208091040260200160405190810160405280929190818152602001828054610e8890613446565b8015610ed55780601f10610eaa57610100808354040283529160200191610ed5565b820191906000526020600020905b815481529060010190602001808311610eb857829003601f168201915b5050505050905090565b60006001600983604051610ef39190612e69565b908152602001604051809103902060009054906101000a900460ff1660ff16149050919050565b610f2c610f256114cd565b8383611dbf565b5050565b610f41610f3b6114cd565b8361158e565b610f80576040517f08c379a0000000000000000000000000000000000000000000000000000000008152600401610f7790613188565b60405180910390fd5b610f8c84848484611f2c565b50505050565b6060610f9d82611f88565b9050919050565b610fac6114cd565b73ffffffffffffffffffffffffffffffffffffffff16610fca610cc3565b73ffffffffffffffffffffffffffffffffffffffff1614611020576040517f08c379a0000000000000000000000000000000000000000000000000000000008152600401611017906130e8565b60405180910390fd5b600061102c6008611b59565b90506110386008611b67565b61104283826120da565b61104c8183611d4b565b505050565b6000600560008473ffffffffffffffffffffffffffffffffffffffff1673ffffffffffffffffffffffffffffffffffffffff16815260200190815260200160002060008373ffffffffffffffffffffffffffffffffffffffff1673ffffffffffffffffffffffffffffffffffffffff16815260200190815260200160002060009054906101000a900460ff16905092915050565b60606111256040518060400160405280600f81526020017f676574436f6e74656e7442794b657900000000000000000000000000000000008152506118c8565b61112e826118c8565b6111dd600a836040516111419190612e69565b9081526020016040518091039020805461115a90613446565b80601f016020809104026020016040519081016040528092919081815260200182805461118690613446565b80156111d35780601f106111a8576101008083540402835291602001916111d3565b820191906000526020600020905b8154815290600101906020018083116111b657829003601f168201915b50505050506118c8565b61121b6040518060400160405280600f81526020017f676574436f6e74656e7442794b657900000000000000000000000000000000008152506118c8565b600a8260405161122b9190612e69565b9081526020016040518091039020805461124490613446565b80601f016020809104026020016040519081016040528092919081815260200182805461127090613446565b80156112bd5780601f10611292576101008083540402835291602001916112bd565b820191906000526020600020905b8154815290600101906020018083116112a057829003601f168201915b50505050509050919050565b6112d16114cd565b73ffffffffffffffffffffffffffffffffffffffff166112ef610cc3565b73ffffffffffffffffffffffffffffffffffffffff1614611345576040517f08c379a000000000000000000000000000000000000000000000000000000000815260040161133c906130e8565b60405180910390fd5b600073ffffffffffffffffffffffffffffffffffffffff168173ffffffffffffffffffffffffffffffffffffffff1614156113b5576040517f08c379a00000000000000000000000000000000000000000000000000000000081526004016113ac90612f68565b60405180910390fd5b6113be81611a93565b50565b6009818051602081018201805184825260208301602085012081835280955050505050506000915054906101000a900460ff1681565b60007f01ffc9a7000000000000000000000000000000000000000000000000000000007bffffffffffffffffffffffffffffffffffffffffffffffffffffffff1916827bffffffffffffffffffffffffffffffffffffffffffffffffffffffff1916149050919050565b60008073ffffffffffffffffffffffffffffffffffffffff166002600084815260200190815260200160002060009054906101000a900473ffffffffffffffffffffffffffffffffffffffff1673ffffffffffffffffffffffffffffffffffffffff1614159050919050565b600033905090565b816004600083815260200190815260200160002060006101000a81548173ffffffffffffffffffffffffffffffffffffffff021916908373ffffffffffffffffffffffffffffffffffffffff160217905550808273ffffffffffffffffffffffffffffffffffffffff1661154883610ad1565b73ffffffffffffffffffffffffffffffffffffffff167f8c5be1e5ebec7d5bd14f71427d1e84f3dd0314c0f7b2291e5b200ac8c7c3b92560405160405180910390a45050565b600061159982611461565b6115d8576040517f08c379a00000000000000000000000000000000000000000000000000000000081526004016115cf90612fe8565b60405180910390fd5b60006115e383610ad1565b90508073ffffffffffffffffffffffffffffffffffffffff168473ffffffffffffffffffffffffffffffffffffffff16148061165257508373ffffffffffffffffffffffffffffffffffffffff1661163a84610719565b73ffffffffffffffffffffffffffffffffffffffff16145b8061166357506116628185611051565b5b91505092915050565b8273ffffffffffffffffffffffffffffffffffffffff1661168c82610ad1565b73ffffffffffffffffffffffffffffffffffffffff16146116e2576040517f08c379a00000000000000000000000000000000000000000000000000000000081526004016116d990613128565b60405180910390fd5b600073ffffffffffffffffffffffffffffffffffffffff168273ffffffffffffffffffffffffffffffffffffffff161415611752576040517f08c379a000000000000000000000000000000000000000000000000000000000815260040161174990612fa8565b60405180910390fd5b61175d8383836120f8565b6117686000826114d5565b6001600360008573ffffffffffffffffffffffffffffffffffffffff1673ffffffffffffffffffffffffffffffffffffffff16815260200190815260200160002060008282546117b8919061334f565b925050819055506001600360008473ffffffffffffffffffffffffffffffffffffffff1673ffffffffffffffffffffffffffffffffffffffff168152602001908152602001600020600082825461180f91906132c8565b92505081905550816002600083815260200190815260200160002060006101000a81548173ffffffffffffffffffffffffffffffffffffffff021916908373ffffffffffffffffffffffffffffffffffffffff160217905550808273ffffffffffffffffffffffffffffffffffffffff168473ffffffffffffffffffffffffffffffffffffffff167fddf252ad1be2c89b69c2b068fc378daa952ba7f163c4a11628f55a4df523b3ef60405160405180910390a4505050565b61195e816040516024016118dc9190612f26565b6040516020818303038152906040527f41304fac000000000000000000000000000000000000000000000000000000007bffffffffffffffffffffffffffffffffffffffffffffffffffffffff19166020820180517bffffffffffffffffffffffffffffffffffffffffffffffffffffffff83818316178352505050506120fd565b50565b6119f7816040516024016119759190612ea4565b6040516020818303038152906040527f2c2ecbc2000000000000000000000000000000000000000000000000000000007bffffffffffffffffffffffffffffffffffffffffffffffffffffffff19166020820180517bffffffffffffffffffffffffffffffffffffffffffffffffffffffff83818316178352505050506120fd565b50565b611a9081604051602401611a0e91906131c8565b6040516020818303038152906040527ff5b1bba9000000000000000000000000000000000000000000000000000000007bffffffffffffffffffffffffffffffffffffffffffffffffffffffff19166020820180517bffffffffffffffffffffffffffffffffffffffffffffffffffffffff83818316178352505050506120fd565b50565b6000600760009054906101000a900473ffffffffffffffffffffffffffffffffffffffff16905081600760006101000a81548173ffffffffffffffffffffffffffffffffffffffff021916908373ffffffffffffffffffffffffffffffffffffffff1602179055508173ffffffffffffffffffffffffffffffffffffffff168173ffffffffffffffffffffffffffffffffffffffff167f8be0079c531659141344cd1fd0a4f28419497f9722a3daafe3b4186f6b6457e060405160405180910390a35050565b600081600001549050919050565b6001816000016000828254019250508190555050565b600073ffffffffffffffffffffffffffffffffffffffff168273ffffffffffffffffffffffffffffffffffffffff161415611bed576040517f08c379a0000000000000000000000000000000000000000000000000000000008152600401611be490613088565b60405180910390fd5b611bf681611461565b15611c36576040517f08c379a0000000000000000000000000000000000000000000000000000000008152600401611c2d90612f88565b60405180910390fd5b611c42600083836120f8565b6001600360008473ffffffffffffffffffffffffffffffffffffffff1673ffffffffffffffffffffffffffffffffffffffff1681526020019081526020016000206000828254611c9291906132c8565b92505081905550816002600083815260200190815260200160002060006101000a81548173ffffffffffffffffffffffffffffffffffffffff021916908373ffffffffffffffffffffffffffffffffffffffff160217905550808273ffffffffffffffffffffffffffffffffffffffff16600073ffffffffffffffffffffffffffffffffffffffff167fddf252ad1be2c89b69c2b068fc378daa952ba7f163c4a11628f55a4df523b3ef60405160405180910390a45050565b611d5482611461565b611d93576040517f08c379a0000000000000000000000000000000000000000000000000000000008152600401611d8a90613068565b60405180910390fd5b80600660008481526020019081526020016000209080519060200190611dba9291906125bc565b505050565b8173ffffffffffffffffffffffffffffffffffffffff168373ffffffffffffffffffffffffffffffffffffffff161415611e2e576040517f08c379a0000000000000000000000000000000000000000000000000000000008152600401611e2590612fc8565b60405180910390fd5b80600560008573ffffffffffffffffffffffffffffffffffffffff1673ffffffffffffffffffffffffffffffffffffffff16815260200190815260200160002060008473ffffffffffffffffffffffffffffffffffffffff1673ffffffffffffffffffffffffffffffffffffffff16815260200190815260200160002060006101000a81548160ff0219169083151502179055508173ffffffffffffffffffffffffffffffffffffffff168373ffffffffffffffffffffffffffffffffffffffff167f17307eab39ab6107e8899845ad3d59bd9653f200f220920489ca2b5937696c3183604051611f1f9190612f0b565b60405180910390a3505050565b611f3784848461166c565b611f4384848484612126565b611f82576040517f08c379a0000000000000000000000000000000000000000000000000000000008152600401611f7990612f48565b60405180910390fd5b50505050565b6060611f9382611461565b611fd2576040517f08c379a0000000000000000000000000000000000000000000000000000000008152600401611fc9906130a8565b60405180910390fd5b6000600660008481526020019081526020016000208054611ff290613446565b80601f016020809104026020016040519081016040528092919081815260200182805461201e90613446565b801561206b5780601f106120405761010080835404028352916020019161206b565b820191906000526020600020905b81548152906001019060200180831161204e57829003601f168201915b50505050509050600061207c6122bd565b90506000815114156120925781925050506120d5565b6000825111156120c75780826040516020016120af929190612e80565b604051602081830303815290604052925050506120d5565b6120d0846122fa565b925050505b919050565b6120f48282604051806020016040528060008152506123a1565b5050565b505050565b60008151905060006a636f6e736f6c652e6c6f679050602083016000808483855afa5050505050565b60006121478473ffffffffffffffffffffffffffffffffffffffff166123fc565b156122b0578373ffffffffffffffffffffffffffffffffffffffff1663150b7a026121706114cd565b8786866040518563ffffffff1660e01b81526004016121929493929190612ebf565b602060405180830381600087803b1580156121ac57600080fd5b505af19250505080156121dd57506040513d601f19601f820116820180604052508101906121da9190612a3b565b60015b612260573d806000811461220d576040519150601f19603f3d011682016040523d82523d6000602084013e612212565b606091505b50600081511415612258576040517f08c379a000000000000000000000000000000000000000000000000000000000815260040161224f90612f48565b60405180910390fd5b805181602001fd5b63150b7a0260e01b7bffffffffffffffffffffffffffffffffffffffffffffffffffffffff1916817bffffffffffffffffffffffffffffffffffffffffffffffffffffffff1916149150506122b5565b600190505b949350505050565b60606040518060400160405280600781526020017f697066733a2f2f00000000000000000000000000000000000000000000000000815250905090565b606061230582611461565b612344576040517f08c379a000000000000000000000000000000000000000000000000000000000815260040161233b90613148565b60405180910390fd5b600061234e6122bd565b9050600081511161236e5760405180602001604052806000815250612399565b806123788461240f565b604051602001612389929190612e80565b6040516020818303038152906040525b915050919050565b6123ab8383611b7d565b6123b86000848484612126565b6123f7576040517f08c379a00000000000000000000000000000000000000000000000000000000081526004016123ee90612f48565b60405180910390fd5b505050565b600080823b905060008111915050919050565b60606000821415612457576040518060400160405280600181526020017f300000000000000000000000000000000000000000000000000000000000000081525090506125b7565b600082905060005b60008214612489578080612472906134a9565b915050600a82612482919061331e565b915061245f565b60008167ffffffffffffffff8111156124cb577f4e487b7100000000000000000000000000000000000000000000000000000000600052604160045260246000fd5b6040519080825280601f01601f1916602001820160405280156124fd5781602001600182028036833780820191505090505b5090505b600085146125b057600182612516919061334f565b9150600a8561252591906134f2565b603061253191906132c8565b60f81b81838151811061256d577f4e487b7100000000000000000000000000000000000000000000000000000000600052603260045260246000fd5b60200101907effffffffffffffffffffffffffffffffffffffffffffffffffffffffffffff1916908160001a905350600a856125a9919061331e565b9450612501565b8093505050505b919050565b8280546125c890613446565b90600052602060002090601f0160209004810192826125ea5760008555612631565b82601f1061260357805160ff1916838001178555612631565b82800160010185558215612631579182015b82811115612630578251825591602001919060010190612615565b5b50905061263e9190612642565b5090565b5b8082111561265b576000816000905550600101612643565b5090565b600061267261266d84613223565b6131fe565b90508281526020810184848401111561268a57600080fd5b612695848285613404565b509392505050565b60006126b06126ab84613254565b6131fe565b9050828152602081018484840111156126c857600080fd5b6126d3848285613404565b509392505050565b6000813590506126ea81613b38565b92915050565b6000813590506126ff81613b4f565b92915050565b60008135905061271481613b66565b92915050565b60008151905061272981613b66565b92915050565b600082601f83011261274057600080fd5b813561275084826020860161265f565b91505092915050565b600082601f83011261276a57600080fd5b813561277a84826020860161269d565b91505092915050565b60008135905061279281613b7d565b92915050565b6000602082840312156127aa57600080fd5b60006127b8848285016126db565b91505092915050565b600080604083850312156127d457600080fd5b60006127e2858286016126db565b92505060206127f3858286016126db565b9150509250929050565b60008060006060848603121561281257600080fd5b6000612820868287016126db565b9350506020612831868287016126db565b925050604061284286828701612783565b9150509250925092565b6000806000806080858703121561286257600080fd5b6000612870878288016126db565b9450506020612881878288016126db565b935050604061289287828801612783565b925050606085013567ffffffffffffffff8111156128af57600080fd5b6128bb8782880161272f565b91505092959194509250565b600080604083850312156128da57600080fd5b60006128e8858286016126db565b92505060206128f9858286016126f0565b9150509250929050565b6000806040838503121561291657600080fd5b6000612924858286016126db565b925050602083013567ffffffffffffffff81111561294157600080fd5b61294d85828601612759565b9150509250929050565b60008060006060848603121561296c57600080fd5b600061297a868287016126db565b935050602084013567ffffffffffffffff81111561299757600080fd5b6129a386828701612759565b925050604084013567ffffffffffffffff8111156129c057600080fd5b6129cc86828701612759565b9150509250925092565b600080604083850312156129e957600080fd5b60006129f7858286016126db565b9250506020612a0885828601612783565b9150509250929050565b600060208284031215612a2457600080fd5b6000612a3284828501612705565b91505092915050565b600060208284031215612a4d57600080fd5b6000612a5b8482850161271a565b91505092915050565b600060208284031215612a7657600080fd5b600082013567ffffffffffffffff811115612a9057600080fd5b612a9c84828501612759565b91505092915050565b600060208284031215612ab757600080fd5b6000612ac584828501612783565b91505092915050565b612ad781613383565b82525050565b612ae681613395565b82525050565b6000612af782613285565b612b01818561329b565b9350612b11818560208601613413565b612b1a816135df565b840191505092915050565b6000612b3082613290565b612b3a81856132ac565b9350612b4a818560208601613413565b612b53816135df565b840191505092915050565b6000612b6982613290565b612b7381856132bd565b9350612b83818560208601613413565b80840191505092915050565b6000612b9c6032836132ac565b9150612ba7826135f0565b604082019050919050565b6000612bbf6026836132ac565b9150612bca8261363f565b604082019050919050565b6000612be2601c836132ac565b9150612bed8261368e565b602082019050919050565b6000612c056024836132ac565b9150612c10826136b7565b604082019050919050565b6000612c286019836132ac565b9150612c3382613706565b602082019050919050565b6000612c4b602c836132ac565b9150612c568261372f565b604082019050919050565b6000612c6e6038836132ac565b9150612c798261377e565b604082019050919050565b6000612c91602a836132ac565b9150612c9c826137cd565b604082019050919050565b6000612cb46029836132ac565b9150612cbf8261381c565b604082019050919050565b6000612cd7602e836132ac565b9150612ce28261386b565b604082019050919050565b6000612cfa6020836132ac565b9150612d05826138ba565b602082019050919050565b6000612d1d6031836132ac565b9150612d28826138e3565b604082019050919050565b6000612d40602c836132ac565b9150612d4b82613932565b604082019050919050565b6000612d636020836132ac565b9150612d6e82613981565b602082019050919050565b6000612d866013836132ac565b9150612d91826139aa565b602082019050919050565b6000612da96029836132ac565b9150612db4826139d3565b604082019050919050565b6000612dcc602f836132ac565b9150612dd782613a22565b604082019050919050565b6000612def6021836132ac565b9150612dfa82613a71565b604082019050919050565b6000612e126031836132ac565b9150612e1d82613ac0565b604082019050919050565b6000612e356012836132ac565b9150612e4082613b0f565b602082019050919050565b612e54816133ed565b82525050565b612e63816133f7565b82525050565b6000612e758284612b5e565b915081905092915050565b6000612e8c8285612b5e565b9150612e988284612b5e565b91508190509392505050565b6000602082019050612eb96000830184612ace565b92915050565b6000608082019050612ed46000830187612ace565b612ee16020830186612ace565b612eee6040830185612e4b565b8181036060830152612f008184612aec565b905095945050505050565b6000602082019050612f206000830184612add565b92915050565b60006020820190508181036000830152612f408184612b25565b905092915050565b60006020820190508181036000830152612f6181612b8f565b9050919050565b60006020820190508181036000830152612f8181612bb2565b9050919050565b60006020820190508181036000830152612fa181612bd5565b9050919050565b60006020820190508181036000830152612fc181612bf8565b9050919050565b60006020820190508181036000830152612fe181612c1b565b9050919050565b6000602082019050818103600083015261300181612c3e565b9050919050565b6000602082019050818103600083015261302181612c61565b9050919050565b6000602082019050818103600083015261304181612c84565b9050919050565b6000602082019050818103600083015261306181612ca7565b9050919050565b6000602082019050818103600083015261308181612cca565b9050919050565b600060208201905081810360008301526130a181612ced565b9050919050565b600060208201905081810360008301526130c181612d10565b9050919050565b600060208201905081810360008301526130e181612d33565b9050919050565b6000602082019050818103600083015261310181612d56565b9050919050565b6000602082019050818103600083015261312181612d79565b9050919050565b6000602082019050818103600083015261314181612d9c565b9050919050565b6000602082019050818103600083015261316181612dbf565b9050919050565b6000602082019050818103600083015261318181612de2565b9050919050565b600060208201905081810360008301526131a181612e05565b9050919050565b600060208201905081810360008301526131c181612e28565b9050919050565b60006020820190506131dd6000830184612e4b565b92915050565b60006020820190506131f86000830184612e5a565b92915050565b6000613208613219565b90506132148282613478565b919050565b6000604051905090565b600067ffffffffffffffff82111561323e5761323d6135b0565b5b613247826135df565b9050602081019050919050565b600067ffffffffffffffff82111561326f5761326e6135b0565b5b613278826135df565b9050602081019050919050565b600081519050919050565b600081519050919050565b600082825260208201905092915050565b600082825260208201905092915050565b600081905092915050565b60006132d3826133ed565b91506132de836133ed565b9250827fffffffffffffffffffffffffffffffffffffffffffffffffffffffffffffffff0382111561331357613312613523565b5b828201905092915050565b6000613329826133ed565b9150613334836133ed565b92508261334457613343613552565b5b828204905092915050565b600061335a826133ed565b9150613365836133ed565b92508282101561337857613377613523565b5b828203905092915050565b600061338e826133cd565b9050919050565b60008115159050919050565b60007fffffffff0000000000000000000000000000000000000000000000000000000082169050919050565b600073ffffffffffffffffffffffffffffffffffffffff82169050919050565b6000819050919050565b600060ff82169050919050565b82818337600083830152505050565b60005b83811015613431578082015181840152602081019050613416565b83811115613440576000848401525b50505050565b6000600282049050600182168061345e57607f821691505b6020821081141561347257613471613581565b5b50919050565b613481826135df565b810181811067ffffffffffffffff821117156134a05761349f6135b0565b5b80604052505050565b60006134b4826133ed565b91507fffffffffffffffffffffffffffffffffffffffffffffffffffffffffffffffff8214156134e7576134e6613523565b5b600182019050919050565b60006134fd826133ed565b9150613508836133ed565b92508261351857613517613552565b5b828206905092915050565b7f4e487b7100000000000000000000000000000000000000000000000000000000600052601160045260246000fd5b7f4e487b7100000000000000000000000000000000000000000000000000000000600052601260045260246000fd5b7f4e487b7100000000000000000000000000000000000000000000000000000000600052602260045260246000fd5b7f4e487b7100000000000000000000000000000000000000000000000000000000600052604160045260246000fd5b6000601f19601f8301169050919050565b7f4552433732313a207472616e7366657220746f206e6f6e20455243373231526560008201527f63656976657220696d706c656d656e7465720000000000000000000000000000602082015250565b7f4f776e61626c653a206e6577206f776e657220697320746865207a65726f206160008201527f6464726573730000000000000000000000000000000000000000000000000000602082015250565b7f4552433732313a20746f6b656e20616c7265616479206d696e74656400000000600082015250565b7f4552433732313a207472616e7366657220746f20746865207a65726f2061646460008201527f7265737300000000000000000000000000000000000000000000000000000000602082015250565b7f4552433732313a20617070726f766520746f2063616c6c657200000000000000600082015250565b7f4552433732313a206f70657261746f7220717565727920666f72206e6f6e657860008201527f697374656e7420746f6b656e0000000000000000000000000000000000000000602082015250565b7f4552433732313a20617070726f76652063616c6c6572206973206e6f74206f7760008201527f6e6572206e6f7220617070726f76656420666f7220616c6c0000000000000000602082015250565b7f4552433732313a2062616c616e636520717565727920666f7220746865207a6560008201527f726f206164647265737300000000000000000000000000000000000000000000602082015250565b7f4552433732313a206f776e657220717565727920666f72206e6f6e657869737460008201527f656e7420746f6b656e0000000000000000000000000000000000000000000000602082015250565b7f45524337323155524953746f726167653a2055524920736574206f66206e6f6e60008201527f6578697374656e7420746f6b656e000000000000000000000000000000000000602082015250565b7f4552433732313a206d696e7420746f20746865207a65726f2061646472657373600082015250565b7f45524337323155524953746f726167653a2055524920717565727920666f722060008201527f6e6f6e6578697374656e7420746f6b656e000000000000000000000000000000602082015250565b7f4552433732313a20617070726f76656420717565727920666f72206e6f6e657860008201527f697374656e7420746f6b656e0000000000000000000000000000000000000000602082015250565b7f4f776e61626c653a2063616c6c6572206973206e6f7420746865206f776e6572600082015250565b7f4e6f746520416c7265616479204d696e74656400000000000000000000000000600082015250565b7f4552433732313a207472616e73666572206f6620746f6b656e2074686174206960008201527f73206e6f74206f776e0000000000000000000000000000000000000000000000602082015250565b7f4552433732314d657461646174613a2055524920717565727920666f72206e6f60008201527f6e6578697374656e7420746f6b656e0000000000000000000000000000000000602082015250565b7f4552433732313a20617070726f76616c20746f2063757272656e74206f776e6560008201527f7200000000000000000000000000000000000000000000000000000000000000602082015250565b7f4552433732313a207472616e736665722063616c6c6572206973206e6f74206f60008201527f776e6572206e6f7220617070726f766564000000000000000000000000000000602082015250565b7f53656e742066756e647320746f6f206c6f770000000000000000000000000000600082015250565b613b4181613383565b8114613b4c57600080fd5b50565b613b5881613395565b8114613b6357600080fd5b50565b613b6f816133a1565b8114613b7a57600080fd5b50565b613b86816133ed565b8114613b9157600080fd5b5056fea26469706673582212202c7b16332712d9406c3bcbff889e43437dc6d2b0e8cfa1c1ec0226b41102619064736f6c63430008040033",
  "linkReferences": {},
  "deployedLinkReferences": {}
}